:020000040000FA
:040000004BEF00F0D2
:100008005582FACF48F0FBCF49F0D9CF4AF0DACF82
:100018004BF00E01BDB9C5A903D068EC03F02DD093
:10002800F2AC2BD0C0B9C8A908D001D826D0050099
:10003800FA6E4150FD6E42500AD0C0BBC8AB0CD01E
:1000480001D81BD00500FA6E3F50FD6E4050FE6E81
:10005800F850FF6EFA501200C1B3C9A303D0DBEC0D
:1000680002F00BD0C1B1C9A103D0FDEC01F005D05D
:10007800C3B1CBA102D0B2EC02F04BC0DAFF4AC048
:10008800D9FF49C0FBFF48C0FAFF55921100C6EFDF
:1000980001F05CD0010E226E82808282000E286EF2
:1000A800000E276E1200274A282A8280828228BEE4
:1000B8001200285004E1640E275CD8A01200020E3A
:1000C800226E000E286E000E276E1200274A282A7C
:1000D8002550446E456A2750445C4550800A466E58
:1000E8002850800A4658D8A082902650446E456A07
:1000F8002750445C4550800A466E2850800A46586E
:10010800D8A0829228BE1200285004E1640E275C11
:10011800D8A01200030E226E000E286E000E276E65
:100128001200274A282A8290829228BE1200080EBE
:10013800275C070E2858D8A01200010E226E000E68
:10014800286E000E276E8280829212002250446E22
:10015800456A4550000AD8A412004450000AD8B491
:1001680099D7010AD8B49FD7030AD8B4AFD7010AE0
:10017800D8A41200D6D7090E2C24D96EDA6A000E3C
:10018800DA22000EDF6E9CA413D0090E2C24D96E3F
:10019800DA6A000EDA22DF8201D80AD00500FA6E88
:1001A8003350FD6E3450FE6EF850FF6EFA50120058
:1001B8009CA213D0090E2C24D96EDA6A000EDA221A
:1001C800DF8401D80AD00500FA6E3150FD6E325036
:1001D800FE6EF850FF6EFA501200090E2C24D96EEC
:1001E800DA6A000EDA22DF50D8B40CD001D8120037
:1001F8000500FA6E2F50FD6E3050FE6EF850FF6EFF
:10020800FA501200FEEC02F012000E01C09B7E0EA6
:100218004C6E010E4D6E82EC03F00E01C099380E43
:100228004C6E050E4D6E7DEC03F0080E9E6E800E32
:100238009C6E240E9D6E8A0E9A6E000E9B6E6C0E3E
:100248004C6E070E4D6E8CEC03F04A0E4C6E070E8A
:100258004D6E87EC03F0500E4C6E070E4D6E91EC10
:1002680003F0000E296E000E2E6E000E2D6E080E85
:10027800436E000E2C6E000E2B6E000E2A6E0E01C1
:10028800C08B1200000E826E000E836E000E846E0C
:10029800F00E876E88683D0E896E3B0E0F011C6F4D
:1002A8001469FA0E0C6F000E286F000E136F000E03
:1002B8000B6F000E1B6F000E0A6F000E126F000E00
:1002C8001A6F0969116919691595169517856A0EC6
:1002D8004C6E070E4D6E78EC03F00E01BD89120EC0
:1002E800AA6F090EF86F1200EDEC02F0F28EF28C94
:1002F8002DEC02F0E2EC01F0520E516E2B0E506E16
:10030800000EE82EFED7502EFCD7512EFAD700D07B
:10031800000E5AEC02F0350EE82EFED700F044EC41
:1003280002F01D0E516E690E506EA50EE82EFED716
:10033800502EFCD7512EFAD700F0000E5AEC02F0DE
:10034800EED7000ECF6E000ED06E010ED16E630E8A
:10035800CD6EC00ECC6ECC50CDCF4EF04F6A4EC095
:100368004FF04E6A4E10376E4F50386E0E01C991DD
:10037800C181680E4C6E070E4D6E73EC03F0330EA0
:10038800CE6E1200620EF66E070EF76E000EF86E55
:100398000900F5CF52F00900F5CF53F00900F5CF69
:1003A80054F000EE01F02E0EEE6AE806FDE15590DD
:1003B8005592000EF86E000178EF01F08482000E6D
:1003C800016E000E066E0E01C391680E4C6E070E8C
:1003D8004D6E73EC03F06A0E4C6E070E4D6E78ECA2
:1003E80003F0A60E4C6E060E4D6E96EC03F084924A
:1003F80012000E01C99137C044F038C045F039ECFD
:1004080003F035503610D8B4120001D81200050098
:10041800FA6E3550FD6E3650FE6EF850FF6EFA508B
:1004280012006A0E446E070E456EA0EC03F0680ECB
:10043800446E070E456E9BEC03F0000E456E000EF1
:10044800446E39EC03F0AFEC03F082840E01C381F3
:100458001200000E226E000E5FEC03F0000E5AEC44
:1004680002F0320E266E9A0E4C6E000E4D6E6EEC39
:1004780003F0000E286E000E276E010E216E12008A
:10048800350EE82EFED700F00650D8A412001C0E38
:100498004C6E060E4D6E73EC03F0FF0E4D6EFC0EA7
:1004A8004C6E1DEC03F0ABEC03F012004C6E4C509C
:1004B800800A9E0FD8B002D0E20E4C6E4C50800AD3
:1004C800630FD8A002D01C0E4C6E4C50EF0F4C6E30
:1004D8004C50320F266E1200010EBE6E000EBD6E1D
:1004E800000EBF6E9F0EBB6E000EBA6E0E01C99352
:1004F800C183660E4C6E070E4D6E6EEC03F0800ED7
:10050800BC6E1200840EAB6E000EAC6E000EAA6EAE
:10051800000EA96E6E0E4C6E070E4D6E96EC03F033
:10052800AD50FC0B0109AD6E0E01CB91C3811200D9
:10053800080E436010D0190E2D24D96EDA6A000E09
:10054800DA22DF50996E2D2A070E2D6402D0000E94
:100558002D6E432A12000E01C09912000E01CB9194
:10056800A9CF46F0AACF47F046C044F047C045F0AF
:1005780001D812000500FA6E3950FD6E3A50FE6E31
:10058800F850FF6EFA5012003D503E10D8B40CD00F
:1005980001D80AD00500FA6E3D50FD6E3E50FE6E41
:1005A800F850FF6EFA5012000F01159512000E0157
:1005B800C9933B503C10D8B4120001D81200050072
:1005C800FA6E3B50FD6E3C50FE6EF850FF6EFA50CE
:1005D8001200ADEC03F02BEC03F046EC01F047EC15
:1005E80003F086EC02F070EC02F0A5EC01F009ECE7
:1005F80001F01200110E2C24D96EDA6A000EDA22EC
:1006080098CFDFFF2C2A070E2C6402D0000E2C6E28
:100618002A2A1200680E446E070E456E9BEC03F002
:10062800849489842A0E446E040E456EA0EC03F06F
:100638001200CEA407D0CE904D50CD6E4CC0CCFF4A
:10064800CE8012004D50CD6E4CC0CCFF1200000E73
:100658000E01DC6F000EDD6F000EDE6F000EDF6F27
:10066800000EE06F000EE16F1200CEA407D0CE900E
:100678004550CD6E44C0CCFFCE8012004550CD6EA3
:1006880044C0CCFF1200600E0E01D36F000ED56F70
:10069800000ED76F080ED96F000ED86F120044C035
:1006A80007F045C008F0000E066E010E016E0E013F
:1006B800C391829412004C6E640E4C6402D0640E96
:1006C8004C6E4CC025F012000F0115A51200C8ECA5
:1006D80002F012004CC03BF04DC03CF012004CC080
:1006E80035F04DC036F012004CC03DF04DC03EF024
:1006F80012004CC041F04DC042F012004CC03FF017
:100708004DC040F012004CC031F04DC032F0120024
:100718004CC033F04DC034F012004CC02FF04DC027
:1007280030F012004CC039F04DC03AF0120044C00D
:1007380035F045C036F0120044C03DF045C03EF0EB
:1007480012009C989C881200FEEC02F01200CE80E9
:0D0758001200F29A1200CE8012001CE2EF97
:0A076600120012001200120012002F
:020000040020DA
:10000000FFFFFFFFFFFFFFFFFFFFFFFFFFFFFFFF00
:10001000FFFFFFFFFFFFFFFFFFFFFFFFFFFFFFFFF0
:10002000FFFFFFFFFFFFFFFFFFFFFFFFFFFFFFFFE0
:10003000FFFFFFFFFFFFFFFFFFFFFFFFFFFFFFFFD0
:10004000FFFFFFFFFFFFFFFFFFFFFFFFFFFFFFFFC0
:10005000FFFFFFFFFFFFFFFFFFFFFFFFFFFFFFFFB0
:10006000FFFFFFFFFFFFFFFFFFFFFFFFFFFFFFFFA0
:10007000FFFFFFFFFFFFFFFFFFFFFFFFFFFFFFFF90
:10008000FFFFFFFFFFFFFFFFFFFFFFFFFFFFFFFF80
:10009000FFFFFFFFFFFFFFFFFFFFFFFFFFFFFFFF70
:1000A000FFFFFFFFFFFFFFFFFFFFFFFFFFFFFFFF60
:1000B000FFFFFFFFFFFFFFFFFFFFFFFFFFFFFFFF50
:1000C000FFFFFFFFFFFFFFFFFFFFFFFFFFFFFFFF40
:1000D000FFFFFFFFFFFFFFFFFFFFFFFFFFFFFFFF30
:1000E000FFFFFFFFFFFFFFFFFFFFFFFFFFFFFFFF20
:1000F000FFFFFFFFFFFFFFFFFFFFFFFFFFFFFFFF10
:020000040030CA
:0C0000008CFFFFFF9FFFFFFFFFFFFFFFD3
:00000001FF
