:020000040000FA
:04000000BFEF3FF01F
:107F6A00B8EC3FF0FFD7D3EC3FF0E1EC3FF0C7ECC1
:107F7A003FF01200056A046A036A026A016A000194
:107F8A00B5EF3FF0600E0E01D36F000ED56F000EF5
:107F9A00D76F080ED96F000ED86F1200000E0E01AF
:107FAA00DC6F000EDD6F000EDE6F000EDF6F000E5D
:107FBA00E06F000EE16F1200000E826E000E836EFB
:107FCA00000E846E8768886889680F011C691469C5
:107FDA000C69000E286F000E136F000E0B6F000E57
:107FEA001B6F000E0A6F000E126F000E1A6F0969DE
:067FFA0011691969120073
:020000040020DA
:10000000FFFFFFFFFFFFFFFFFFFFFFFFFFFFFFFF00
:10001000FFFFFFFFFFFFFFFFFFFFFFFFFFFFFFFFF0
:10002000FFFFFFFFFFFFFFFFFFFFFFFFFFFFFFFFE0
:10003000FFFFFFFFFFFFFFFFFFFFFFFFFFFFFFFFD0
:10004000FFFFFFFFFFFFFFFFFFFFFFFFFFFFFFFFC0
:10005000FFFFFFFFFFFFFFFFFFFFFFFFFFFFFFFFB0
:10006000FFFFFFFFFFFFFFFFFFFFFFFFFFFFFFFFA0
:10007000FFFFFFFFFFFFFFFFFFFFFFFFFFFFFFFF90
:10008000FFFFFFFFFFFFFFFFFFFFFFFFFFFFFFFF80
:10009000FFFFFFFFFFFFFFFFFFFFFFFFFFFFFFFF70
:1000A000FFFFFFFFFFFFFFFFFFFFFFFFFFFFFFFF60
:1000B000FFFFFFFFFFFFFFFFFFFFFFFFFFFFFFFF50
:1000C000FFFFFFFFFFFFFFFFFFFFFFFFFFFFFFFF40
:1000D000FFFFFFFFFFFFFFFFFFFFFFFFFFFFFFFF30
:1000E000FFFFFFFFFFFFFFFFFFFFFFFFFFFFFFFF20
:1000F000FFFFFFFFFFFFFFFFFFFFFFFFFFFFFFFF10
:020000040030CA
:0C0000008CFFFFFF9FFFFFFFFFFFFFFFD3
:00000001FF
