:020000040000FA
:040000001CEF00F001
:100008005582FACF09F0FBCF0AF00E01BDB9C5A998
:1000180003D000EC08F006D0F2BCC1A303D0C9B3EA
:1000280091EC07F00AC0FBFF09C0FAFF55921100D6
:10003800EEEF06F01C50800B256E1C501C242B6E16
:100048001BBE2B802B50D8B40DD02B28D8A408D099
:10005800000E196E000E1A6E000E1B6E000E1C6E3E
:100068001B8E08D0000E196E000E1A6E000E1B6E45
:10007800000E1C6E2050800B251A205020242A6E5A
:100088001FBE2A802A50D8B40DD02A28D8A408D058
:10009800000E1D6E000E1E6E000E1F6E000E206EEE
:1000A8001F8E08D0000E1D6E000E1E6E000E1F6EF5
:1000B800000E206E2A50D8B403D02B50D8A409D0F3
:1000C800000E196E000E1A6E000E1B6E000E1C6ECE
:1000D80012001F501902F3CF30F0F4CF31F0305036
:1000E800266E276A286A296A31502C6E2D6A2E6A74
:1000F8002F6A1E501A02F3CF30F0F4CF31F030508F
:100108002626000E27222822292231502C26000ECE
:100118002D222E222F221D501B02F3CF30F0F4CFB8
:1001280031F030502626000E27222822292231506D
:100138002C26000E2D222E222F2228C029F027C07F
:1001480028F026C027F0266A1D501A02F3CF30F097
:10015800F4CF31F03050262631502722000E2822C5
:10016800000E29221E501902F3CF30F0F4CF31F0DF
:100178003050262631502722000E2822000E292230
:1001880028C029F027C028F026C027F0266A1D506D
:100198001902F3CF30F0F4CF31F030502626315029
:1001A8002722000E2822000E29221F501A02F3CF00
:1001B80030F0F4CF31F030502C2631502D22000E83
:1001C8002E22000E2F221E501B02F3CF30F0F4CF48
:1001D80031F030502C2631502D22000E2E22000EE8
:1001E8002F221F501B02F3CF30F0F4CF31F03050E4
:1001F800216E3150226E236A246A23C024F022C063
:1002080023F021C022F0216A21502C2622502D22D1
:1002180023502E2224502F2226C021F027C022F05E
:1002280028C023F029C024F0190E05D0D890243214
:10023800233222322132E82EF9D721502C2622509F
:100248002D2223502E2224502F2228C029F027C0E7
:1002580028F026C027F0266A2A502BC021F0226AEF
:100268002126000E2222820E2124306EFF0E22202B
:10027800316E0FD0D8902C362D362E362F3629BE1B
:100288002C80D89026362736283629363006D8A02E
:1002980031062EAEEFD7000E2A6E29AE17D0FF0E0C
:1002A8002614216EFF0E2714226EFF0E2814236ECB
:1002B8007F0E2914246E2150221023102410D8B444
:1002C80003D0010E2A6E02D02CB0FBD72A50D8B426
:1002D8001FD0010E2C26000E2D222E222F222FA0F9
:1002E80017D02CC021F02DC022F02EC023F02FC033
:1002F80024F02434243223322232213221C02CF03B
:1003080022C02DF023C02EF024C02FF0304A312A0D
:1003180031BE0DD0315003E13028D8A008D0000EEE
:100328002C6E000E2D6E800E2E6E7F0E20D031BEEC
:1003380005D031500EE13004D8B00BD0000E2C6E31
:10034800000E2D6E000E2E6E000E2F6E000E256E06
:100358000FD030C02BF0FF0E2C16FF0E2D167F0E7F
:100368002E16000E2F162BB02E8ED8902B302F6EF7
:1003780025502F122CC019F02DC01AF02EC01BF0DA
:100388002FC01CF012003550800B3E6E35503524BE
:10039800406E34BE40804050D8B40DD04028D8A418
:1003A80008D0000E326E000E336E000E346E000E52
:1003B800356E348E06D0000E326E000E336E000E8F
:1003C800346E000E356E3950800B3F6E3E503F182C
:1003D800D8A43E8C395039243F6E38BE3F803F50F8
:1003E800D8B40DD03F28D8A408D0000E366E000E21
:1003F800376E000E386E000E396E388E06D0000E3D
:10040800366E000E376E000E386E000E396E405094
:100418003F5CD8B022D03EAC02D0800E3E1A40C01D
:1004280041F03FC040F041C03FF032C041F036C01B
:1004380032F041C036F033C041F037C033F041C02C
:1004480037F034C041F038C034F041C038F035C01E
:1004580041F039C035F041C039F0000E416E4050CE
:100468003FC03AF03B6A3A5E000E3B5A3BBE2CD086
:100478003B5004E11A0E3A5CD8A026D03250331013
:1004880034103510D8B402D0010E01D0000E416EE0
:10049800000E326E000E336E000E346E000E356E96
:1004A8003FC040F015D041A005D0D8904130010997
:1004B800416E02D0D890413232B0418E3534353257
:1004C800343233323232402A3F50405CD8A0EBD726
:1004D8003EBC28D04050D8A409D0000E326E000E81
:1004E800336E000E346E000E356E12003650322612
:1004F80037503322385034223950352235A071D044
:1005080041A005D0D89041300109416E02D0D89061
:10051800413232B0418E35343532343233323232B0
:10052800402A5FD03650325C3750335838503458F0
:100538003550800A3A6E3950800A3A58D8B025D0DA
:100548003250365C3A6E335037583B6E3450385818
:100558003C6E355039583D6EFF0E3A24326EFF0E10
:100568003B20336EFF0E3C20346EFF0E3D20356E6F
:10057800800E3E1A416C4150D8A40FD0010E32268D
:10058800000E33223422352208D03650325E3750DE
:10059800335A3850345A3950355A3250331034108F
:1005A8003510D8A41CD04150D8A419D0000E326EF2
:1005B800000E336E000E346E000E356E1200D890A9
:1005C800323633363436353641BE328041A002D019
:1005D800D88001D0D89041364050D8A4400634AED7
:1005E800EED7000E3F6E41AE0BD041C03AF07F0E01
:1005F8003A16D8B403D0010E3F6E02D032B0FBD702
:100608003F50D8B420D0010E3226000E33223422B7
:10061800352235A018D032C03AF033C03BF034C090
:100628003CF035C03DF03D343D323C323B323A324D
:100638003AC032F03BC033F03CC034F03DC035F036
:100648004028D8A4402A4028D8B403D04050D8A481
:100658000DD0000E326E000E336E000E346E000E9A
:10066800356E4050D8A402D0000E3E6E40A002D095
:10067800348E01D0349ED8904030356E3EBE358ED3
:1006880032C032F033C033F034C034F035C035F006
:1006980012000E50800B1B6E0E500E24226E0DBEE3
:1006A80022802250D8B40DD02228D8A408D0000E19
:1006B8000B6E000E0C6E000E0D6E000E0E6E0D8E83
:1006C80006D0000E0B6E000E0C6E000E0D6E000EA6
:1006D8000E6E1250800B1B1A12501224236E11BE7C
:1006E80023802350D8B40DD02328D8A408D0000ED6
:1006F8000F6E000E106E000E116E000E126E118E2F
:1007080006D0000E0F6E000E106E000E116E000E59
:10071800126E0F50101011101210D8A417D0000E1E
:100728000B6E000E0C6E000E0D6E000E0E6E800E1F
:100738000D127F0E0E121B500E120BC00BF00CC0C8
:100748000CF00DC00DF00EC00EF012002250D8A40F
:1007580009D0000E0B6E000E0C6E000E0D6E000E12
:100768000E6E1200235022C013F0146A135E000E9E
:10077800145A7F0E13241C6E000E14201D6E0BC01D
:1007880017F00CC018F00DC019F00EC01AF0000ECA
:100798000B6E000E0C6E000E0D6E000E0E6E000E2F
:1007A8001E6E000E1F6E000E206E000E216E000ED3
:1007B800236E28D02350D8B411D0D89017361836C5
:1007C80019361A36D8900B360C360D360E3621BE31
:1007D8000B80D8901E361F36203621360F50175CF6
:1007E800105018581150195812501A58D8A009D03A
:1007F800218C0F50175E1050185A1150195A125068
:100808001A5A232A190E2364D5D71750181019100D
:100818001A10D8B411D01E800FD0D8900B360C36D1
:100828000D360E3621BE0B80D8901E361F36203668
:1008380021361C06D8A01D060DAEEFD7000E236E7C
:1008480021AE17D0FF0E1E14136EFF0E1F14146E68
:10085800FF0E2014156E7F0E2114166E13501410FF
:1008680015101610D8B403D0010E236E02D00BB0A9
:10087800FBD72350D8B41FD0010E0B26000E0C2234
:100888000D220E220EA017D00BC013F00CC014F0CE
:100898000DC015F00EC016F016341632153214328B
:1008A800133213C00BF014C00CF015C00DF016C0B5
:1008B8000EF01C4A1D2A1DBE10D01D5003E11C2835
:1008C800D8A00BD0000E1D6E1C68000E0B6E000E1B
:1008D8000C6E000E0D6E000E0E6E1DBE05D01D5066
:1008E80011E11C04D8B00ED0000E1D6E000E1C6E57
:1008F800000E0B6E000E0C6E000E0D6E000E0E6ECE
:10090800000E1B6E1CC022F022A002D00D8E01D05A
:100918000D9ED89022300E6E0ED7136E1350D8A4A9
:100928000EAE1AD00BC00FF00CC010F00DC011F0B5
:100938000EC012F00F1E101E111E121E0F2A000EDE
:100948001022112212220FC015F010C016F011C08B
:1009580017F012C018F008D00BC015F00CC016F034
:100968000DC017F00EC018F00B500C100D100E1023
:10097800D8A409D0000E0B6E000E0C6E000E0D6E82
:10098800000E0E6E1200960E146E06D0142AD89021
:100998001832173216321532000E15140F6E000E6B
:1009A8001614106E000E1714116EFE0E1814126E27
:1009B8000F50101011101210D8B40DD0E7D7142A08
:1009C800010E1526000E162217221822D89018326A
:1009D800173216321532000E15140F6E000E16144B
:1009E800106E000E1714116EFF0E1814126E0F50B1
:1009F800101011101210D8B407D0E1D71406D890EF
:100A0800153616361736183617BE03D0020E146080
:100A1800F5D714A0179ED890143214C00FF0106A9E
:100A2800116A126A0FC012F0116A106A0F6A0F5029
:100A38001512105016121150171212501812135086
:100A4800D8A40EAE01D0188E15C00BF016C00CF04D
:100A580017C00DF018C00EF01200DEEC07F0F28E91
:100A6800F28C25EC07F0B3EC07F0520E0001696F29
:100A78002B0E686F000EE82EFED7682FFCD7692F63
:100A8800FAD700F0000E3CEC07F0350EE82EFED742
:100A980000F084EC06F032C06AF033C06BF034C06A
:100AA8006CF035C06DF06AC00BF06BC00CF06CC018
:100AB8000DF06DC00EF0000E0F6E000E106E160ECB
:100AC800116E430E126E4DEC03F00BC06EF00CC0AD
:100AD8006FF00DC070F00EC071F0000E366E000E93
:100AE800376EF00E386EC10E396E000E1D6E000E98
:100AF8001E6E700E1F6E420E206E6EC019F06FC013
:100B08001AF070C01BF071C01CF01EEC00F019C088
:100B180032F01AC033F01BC034F01CC035F0C7ECFB
:100B280001F032C060F033C061F034C062F035C00B
:100B380063F026EC06F060C072F061C073F000014B
:100B480072513CEC07F0090E0001696F1E0E686FC8
:100B5800E40EE82EFED7682FFCD7692FFAD798D76E
:100B68005CD0010E456E82808282000E4A6E000EB5
:100B7800496E1200494A4A2A828082824ABE12007D
:100B88004A5004E1640E495CD8A01200020E456E7A
:100B9800000E4A6E000E496E1200494A4A2A475012
:100BA800016E026A4950015C0250800A036E4A5085
:100BB800800A0358D8A082904850016E026A4950B2
:100BC800015C0250800A036E4A50800A0358D8A07C
:100BD80082924ABE12004A5004E1640E495CD8A0D1
:100BE8001200030E456E000E4A6E000E496E12008A
:100BF800494A4A2A829082924ABE1200080E495CEB
:100C0800070E4A58D8A01200010E456E000E4A6E13
:100C1800000E496E8280829212004550016E026A6F
:100C28000250000AD8A412000150000AD8B499D77B
:100C3800010AD8B49FD7030AD8B4AFD7010AD8A4F9
:100C48001200D6D7000162356335436E4350D8A4ED
:100C580009D0000E606F000E616F000E626F000E0B
:100C6800636F120060C064F061C065F062C066F036
:100C780063C067F0200E05D0D890673366336533BC
:100C88006433E82EF9D76451426E628FFF0E601705
:100C9800FF0E6117FF0E6217000E6317960E435E74
:100CA80043AE0DD04350800A970FD8A0D2D7D89022
:100CB8006333623361336033433EF9D70DD01F0E7F
:100CC800436407D0C6D7D890603761376237633737
:100CD80043064350D8A4F7D74250D8B408D0631F6E
:100CE800621F611F606D000E61236223632360C071
:100CF80060F061C061F062C062F063C063F012002E
:100D0800829487940A0EE82EFED700D08284350E8E
:100D1800E82EFED700F0829487844B50D8B4FDD7D4
:100D2800000E4B6E4CC00BF04DC00CF00D6A0E6AF5
:100D3800000E91EC04F00BC019F00CC01AF00DC0B5
:100D48001BF00EC01CF0AE0E1D6ED40E1E6EB30E40
:100D58001F6E370E206E1EEC00F019C036F01AC058
:100D680037F01BC038F01CC039F036C032F037C03D
:100D780033F038C034F039C035F01200000E826EFE
:100D8800000E836E000E846EFC0E876E886889687C
:100D98000F011C691469FA0E0C6F000E286F000E03
:100DA800136F000E0B6F000E1B6F000E0A6F000E04
:100DB800126F000E1A6F0969116919690595068580
:100DC8000785320E0B6E100E0C6E0BEC08F00E0140
:100DD800BD8912002C0EF66E100EF76E000EF86E1E
:100DE8000900F5CF52F00900F5CF53F00900F5CF0F
:100DF80054F000EE44F00A0EEE6AE806FDE1559064
:100E08005592000EF86E000131EF05F0000EC96E24
:100E1800000ECA6E010ECB6E060EC76E000EC66EB1
:100E2800C650C7CF0BF00C6A0BC00CF00B6A0B1046
:100E38000001746F0C50756F0E01C995220EC86EB3
:100E48001200010E446E000E456E000EF7EC07F01E
:100E5800000E3CEC07F0320E486E680E0B6E0B0E5F
:100E68000C6E06EC08F0000E4A6E000E496E120079
:100E78000B6E0B50800A9E0FD8B002D0E20E0B6E9C
:100E88000B50800A630FD8A002D01C0E0B6E0B50BB
:100E9800EF0F0B6E0B50320F486E1200010EBE6E34
:100EA800000EBD6E000EBF6E9F0EBB6E000EBA6EBA
:100EB8000E01C993C183300E0B6E100E0C6E06EC3A
:100EC80008F0800EBC6E12008CA409D0000E026ED1
:100ED800000E016ED0EC07F014EC08F0120012ECD2
:100EE80008F0A3EC07F001C04CF002C04DF0010E71
:100EF8004B6E120050505110D8B40CD001D80AD003
:100F08000500FA6E5050FD6E5150FE6EF850FF6E9F
:100F1800FA5012000F01059512000E01C9934E50A8
:100F28004F10D8B4120001D812000500FA6E4E50C6
:100F3800FD6E4F50FE6EF850FF6EFA501200C882D8
:100F4800C6CF08F0C7CF07F00750036E0850056EEC
:100F580003C006F005C001F006C002F01200D00E72
:100F68000B6E0E0E0C6E0BEC08F00AEC07F0000E80
:100F78004B6E000E4D6E000E4C6E1200000E0E01F0
:100F8800DC6F000EDD6F000EDE6F000EDF6F000EEF
:100F9800E06F000EE16F1200C8A407D0C89002509D
:100FA800C76E01C0C6FFC88012000250C76E01C0DC
:100FB800C6FF120010EC08F0C2EC07F0C2EC06F015
:100FC800EBEC07F00AEC07F052EC07F01200600EA9
:100FD8000E01D36F000ED56F000ED76F080ED96FB4
:100FE800000ED86F12000B6E640E0B6402D0640EF4
:100FF8000B6E0BC047F012000F0105A512007EEC26
:1010080007F012000BC04EF00CC04FF012000BC0DE
:1010180050F00CC051F01200F29A1200C890120061
:07102800C88012001CE2EF7A
:041030001200120098
:020000040020DA
:10000000FFFFFFFFFFFFFFFFFFFFFFFFFFFFFFFF00
:10001000FFFFFFFFFFFFFFFFFFFFFFFFFFFFFFFFF0
:10002000FFFFFFFFFFFFFFFFFFFFFFFFFFFFFFFFE0
:10003000FFFFFFFFFFFFFFFFFFFFFFFFFFFFFFFFD0
:10004000FFFFFFFFFFFFFFFFFFFFFFFFFFFFFFFFC0
:10005000FFFFFFFFFFFFFFFFFFFFFFFFFFFFFFFFB0
:10006000FFFFFFFFFFFFFFFFFFFFFFFFFFFFFFFFA0
:10007000FFFFFFFFFFFFFFFFFFFFFFFFFFFFFFFF90
:10008000FFFFFFFFFFFFFFFFFFFFFFFFFFFFFFFF80
:10009000FFFFFFFFFFFFFFFFFFFFFFFFFFFFFFFF70
:1000A000FFFFFFFFFFFFFFFFFFFFFFFFFFFFFFFF60
:1000B000FFFFFFFFFFFFFFFFFFFFFFFFFFFFFFFF50
:1000C000FFFFFFFFFFFFFFFFFFFFFFFFFFFFFFFF40
:1000D000FFFFFFFFFFFFFFFFFFFFFFFFFFFFFFFF30
:1000E000FFFFFFFFFFFFFFFFFFFFFFFFFFFFFFFF20
:1000F000FFFFFFFFFFFFFFFFFFFFFFFFFFFFFFFF10
:020000040030CA
:0C0000008CFFFFFF9FFFFFFFFFFFFFFFD3
:00000001FF
