:020000040000FA
:0400000051EF00F0CC
:06000800558234EF0FF0F9
:100018005580D8CF31F0E8CF32F0E0CF33F0FACFC7
:1000280034F0FBCF35F0D9CF36F0DACF37F0F3CF55
:1000380038F0F4CF39F00E01C1B1C9A103D050ECAA
:100048000EF017D0C1B5C9A503D038EC0EF011D009
:10005800BEB1C6A103D012EC0FF00BD0C3B1CBA137
:1000680003D0ADEC0EF005D0BDB9C5A902D0ACECFB
:100078000FF039C0F4FF38C0F3FF37C0DAFF36C0DD
:10008800D9FF35C0FBFF34C0FAFF33C0E0FF32C0F0
:0E009800E8FF31C0D8FF55901000DBEF0CF0F0
:10080000000A2A2A2A2A2A2A2A2A2A2A204E455730
:10081000205343414E202A2A2A2A2A2A2A2A2A2ACF
:070820000A0025640A000034
:100828001750800B206E17501724266E16BE268090
:100838002650D8B40DD02628D8A408D0000E146E9F
:10084800000E156E000E166E000E176E168E08D06E
:10085800000E146E000E156E000E166E000E176E4A
:100868001B50800B201A1B501B24256E1ABE258096
:100878002550D8B40DD02528D8A408D0000E186E5D
:10088800000E196E000E1A6E000E1B6E1A8E08D01E
:10089800000E186E000E196E000E1A6E000E1B6EFA
:1008A8002550D8B403D02650D8A409D0000E146E11
:1008B800000E156E000E166E000E176E12001A50FE
:1008C8001402F3CF2BF0F4CF2CF02B50216E226AB8
:1008D800236A246A2C50276E286A296A2A6A1950C2
:1008E8001502F3CF2BF0F4CF2CF02B502126000E5D
:1008F8002222232224222C502726000E28222922B5
:100908002A2218501602F3CF2BF0F4CF2CF02B50DC
:100918002126000E2222232224222C502726000ED4
:10092800282229222A2223C024F022C023F021C011
:1009380022F0216A18501502F3CF2BF0F4CF2CF0D7
:100948002B5021262C502222000E2322000E242276
:1009580019501402F3CF2BF0F4CF2CF02B50212692
:100968002C502222000E2322000E242223C024F021
:1009780022C023F021C022F0216A18501402F3CFBC
:100988002BF0F4CF2CF02B5021262C502222000ED5
:100998002322000E24221A501502F3CF2BF0F4CF95
:1009A8002CF02B5027262C502822000E2922000E2E
:1009B8002A2219501602F3CF2BF0F4CF2CF02B502B
:1009C80027262C502822000E2922000E2A221A50EF
:1009D8001602F3CF2BF0F4CF2CF02B501C6E2C50BA
:1009E8001D6E1E6A1F6A1EC01FF01DC01EF01CC0AF
:1009F8001DF01C6A1C5027261D5028221E50292233
:100A08001F502A2221C01CF022C01DF023C01EF056
:100A180024C01FF0190E05D0D8901F321E321D3287
:100A28001C32E82EF9D71C5027261D5028221E50AC
:100A380029221F502A2223C024F022C023F021C0DB
:100A480022F0216A255026C01CF01D6A1C26000EC3
:100A58001D22820E1C242B6EFF0E1D202C6E0FD023
:100A6800D8902736283629362A3624BE2780D890AB
:100A780021362236233624362B06D8A02C0629AE5A
:100A8800EFD7000E256E24AE17D0FF0E21141C6E72
:100A9800FF0E22141D6EFF0E23141E6E7F0E2414EB
:100AA8001F6E1C501D101E101F10D8B403D0010E4D
:100AB800256E02D027B0FBD72550D8B41FD0010E21
:100AC8002726000E282229222A222AA017D027C04A
:100AD8001CF028C01DF029C01EF02AC01FF01F34CA
:100AE8001F321E321D321C321CC027F01DC028F0D8
:100AF8001EC029F01FC02AF02B4A2C2A2CBE0DD06C
:100B08002C5003E12B28D8A008D0000E276E000E29
:100B1800286E800E296E7F0E20D02CBE05D02C505A
:100B28000EE12B04D8B00BD0000E276E000E286EF5
:100B3800000E296E000E2A6E000E206E0FD02BC0FC
:100B480026F0FF0E2716FF0E28167F0E2916000E18
:100B58002A1626B0298ED89026302A6E20502A12BE
:100B680027C014F028C015F029C016F02AC017F0C5
:100B780012007FC097F080C098F081C099F082C0C1
:100B88009AF083C09BF084C09CF085C09DF086C01D
:100B98009EF000019EAF02D0010E01D0000E956FAD
:100BA800966B95519611D8B410D09E1F9D1F9C1F0F
:100BB8009B1F9A1F991F981F976D000E98239923C2
:100BC8009A239B239C239D239E23D2AFD393D2BFEA
:100BD80005D0D25108E1D105D8B005D0000E926FEA
:100BE800010E916F04D0D1C091F0D2C092F0CFC065
:100BF80093F0D0C094F095519611D8A402D0D3A503
:100C080003D09307D8A09407000EA06F1F0E9F6F04
:100C1800000EF76F7DD09F07D8A0A007D80E9F259C
:100C2800D96E000EA021DA6E97C060F098C061F00E
:100C380099C062F09AC063F09BC064F09CC065F0F4
:100C48009DC066F09EC067F00A0E686F000E696F5F
:100C5800000E6A6F000E6B6F000E6C6F000E6D6FEA
:100C6800000E6E6F000E6F6FE8EC08F060C087F042
:100C780061C088F062C089F063C08AF064C08BF0FC
:100C880065C08CF066C08DF067C08EF087C072F0CA
:100C980089C073F0B9EC0DF000017251300FDF6EAE
:100CA8009107D8A092079307D8A0940797C060F03F
:100CB80098C061F099C062F09AC063F09BC064F07C
:100CC8009CC065F09DC066F09EC067F00A0E686F14
:100CD800000E696F000E6A6F000E6B6F000E6C6F6E
:100CE800000E6D6F000E6E6F000E6F6FA3EC07F0B5
:100CF80060C097F061C098F062C099F063C09AF044
:100D080064C09BF065C09CF066C09DF067C09EF013
:100D18000001A0BF1FD0A05103E19F05D8A01AD0A1
:100D28009751981199119A119B119C119D119E111F
:100D3800D8A471D792BF05D0925102E19105D8B0DD
:100D48006AD794BF07D0945103E19305D8A002D085
:100D5800D3B361D795519611D8A402D0D3A517D093
:100D68009F07D8A0A00795519611D8A404D0000ECB
:100D7800906F2B0E03D0000E906F2D0E8F6FD80E34
:100D88009F25D96E000EA021DA6E8FC0DFFF7DC0CF
:100D980072F07EC073F0D80E9F25746F000EA021EC
:100DA800756F93C076F094C077F015EC0BF072C0B5
:100DB8007DF073C07EF01200A3C0D9FFA4C0DAFF93
:100DC800DECFF6FFDDCFF7FF0800F550250AD8A4DF
:100DD8009BD0A3C0D9FFA4C0DAFFDE2A000EDD2213
:100DE800000E0001D06F000ECF6FCFC0D3F0D0C07F
:100DF800D4F0D169D269A3C0D9FFA4C0DAFFDECF8D
:100E0800F6FFDDCFF7FF0800F550640AD8B40DD01F
:100E1800A3C0D9FFA4C0DAFFDECFF6FFDDCFF7FF0E
:100E28000800F550690AD8A43FD0A3C0D9FFA4C0D0
:100E3800DAFFDE2A000EDD22A5C0D9FFA6C0DAFF40
:100E4800DFCFA7F0020EDE26DFCFA8F0000EDD22EE
:100E5800A7C0D9FFA8C0DAFFDECFA9F0DDCFAAF07E
:100E6800000EAABFFF0EAB6FAC6FAD6FAE6FAF6F6A
:100E7800B06FA1C07DF0A2C07EF0A9C07FF0AAC06B
:100E880080F0ABC081F0ACC082F0ADC083F0AEC0E2
:100E980084F0AFC085F0B0C086F0BDEC05F07DC031
:100EA800A1F07EC0A2F01200A3C0D9FFA4C0DAFF4F
:100EB800DECFF6FFDDCFF7FF0800F550250AD8A4EE
:100EC80017D0A3C0D9FFA4C0DAFFDE2A000EDD22A6
:100ED800000E636F250E626FA1C064F0A2C065F0BA
:100EE800D8EC0BF0000E0001A26F010EA16F1200EA
:100EF800A3C0D9FFA4C0DAFFDE2A000EDD22000E4F
:100F0800A26F000EA16F1200A3C0D9FFA4C0DAFF20
:100F1800DECFF6FFDDCFF7FF0800F5500001626F66
:100F2800636BA1C064F0A2C065F0D8EC0BF0A3C05D
:100F3800D9FFA4C0DAFFDE2A000EDD22D3D7000EC7
:100F48000001716F6FAF12D06F1F6E1F6D1F6C1F86
:100F58006B1F6A1F691F686D000E69236A236B2364
:100F68006C236D236E236F23010E716F67AF12D050
:100F7800671F661F651F641F631F621F611F606D07
:100F8800000E61236223632364236523662367239A
:100F9800010E711B20EE72F0070EDE6AE806FDE214
:100FA800685169116A116B116C116D116E116F1115
:100FB800D8B446D0010E706F0AD0D8906837693718
:100FC8006A376B376C376D376E376F37702B6FAF8B
:100FD800F4D7D890723773377437753776377737D1
:100FE800783779376851605D695161596A5162593A
:100FF8006B5163596C5164596D5165596E516659FD
:101008006F516759D8A011D06851605F6951615B11
:101018006A51625B6B51635B6C51645B6D51655BDC
:101028006E51665B6F51675B7281D8906F336E3318
:101038006D336C336B336A3369336833702FC9D7B8
:101048007151D8B410D0791F781F771F761F751F7C
:10105800741F731F726D000E732374237523762318
:1010680077237823792372C060F073C061F074C06D
:1010780062F075C063F076C064F077C065F078C040
:1010880066F079C067F012000E6E0E50D8A409AE53
:101098001AD006C00AF007C00BF008C00CF009C04F
:1010A8000DF00A1E0B1E0C1E0D1E0A2A000E0B2226
:1010B8000C220D220AC010F00BC011F00CC012F067
:1010C8000DC013F008D006C010F007C011F008C01A
:1010D80012F009C013F00650071008100910D8A420
:1010E80009D0000E066E000E076E000E086E000E88
:1010F800096E1200960E0F6E06D00F2AD890133282
:10110800123211321032000E10140A6E000E111431
:101118000B6E000E12140C6EFE0E13140D6E0A5098
:101128000B100C100D10D8B40DD0E7D70F2A010EF4
:101138001026000E112212221322D89013321232D6
:1011480011321032000E10140A6E000E11140B6EBC
:10115800000E12140C6EFF0E13140D6E0A500B10B5
:101168000C100D10D8B407D0E1D70F06D890103660
:1011780011361236133612BE03D0020E0F60F5D7A1
:101188000FA0129ED8900F320FC00AF00B6A0C6A9B
:101198000D6A0AC00DF00C6A0B6A0A6A0A5010122E
:1011A8000B5011120C5012120D5013120E50D8A4DD
:1011B80009AE01D0138E10C006F011C007F012C09E
:1011C80008F013C009F01200000E0001716F67AF3C
:1011D80012D0671F661F651F641F631F621F611F90
:1011E800606D000E612362236323642365236623F5
:1011F8006723010E716F6FAF10D06F1F6E1F6D1FC9
:101208006C1F6B1F6A1F691F686D000E69236A23B4
:101218006B236C236D236E236F23685169116A1148
:101228006B116C116D116E116F11D8B43CD0010E99
:10123800706F0AD0D890683769376A376B376C3760
:101248006D376E376F37702B6FAFF4D76851605DAD
:10125800695161596A5162596B5163596C516459AA
:101268006D5165596E5166596F516759D8A010D0A4
:101278006851605F6951615B6A51625B6B51635B86
:101288006C51645B6D51655B6E51665B6F51675B5A
:10129800D8906F336E336D336C336B336A33693385
:1012A8006833702FD3D77151D8B410D0671F661F19
:1012B800651F641F631F621F611F606D000E61233D
:1012C80062236323642365236623672360C060F079
:1012D80061C061F062C062F063C063F064C064F032
:1012E80065C065F066C066F067C067F01200C3ECC1
:1012F8000EF0F28CF28EF28CD3EC0DF007EC0EF0BF
:10130800000E89EC0FF0000E20EC0EF0000E00012C
:10131800C46F000EC36F79EC0CF0020E0001C26FAF
:10132800A00EC16F920EE82EFED7C12FFCD7C22F98
:10133800FAD700F0000E0001606F010E616FC3EC78
:101348000AF0C3C060F0C4C061F0000E0001636F12
:101358000A0E626F9FEC0BF0000160516111D8A476
:1013680035D0000EC66F000EC56F220EB96F080E7D
:10137800BA6FD890C535D96EC635DA6E000ED92643
:10138800010EDA22DECFBBF0DDCFBCF0D8EC0EF0D8
:10139800020E0001C525C56F000EC621C66FC6BF67
:1013A800E4D7C65104E1800EC55DD8A0DED7010E92
:1013B800B96F080EBA6FD8EC0EF0D00E0001C16FED
:1013C800C90EE82EFED7C12FFCD700D00001C34BB1
:1013D800C42BA1D75CD0010EC86F82808282000E18
:1013E800D66F000ED56F1200D54BD62B8280828225
:1013F800D6BF1200D65104E1640ED55DD8A0120004
:10140800020EC86F000ED66F000ED56F1200D54BB6
:10141800D62BCB51016E026AD551015C0250800A6D
:10142800036ED651800A0358D8A08290CC51016E21
:10143800026AD551015C0250800A036ED651800AB7
:101448000358D8A08292D6BF1200D65104E1640E88
:10145800D55DD8A01200030EC86F000ED66F000E1F
:10146800D56F1200D54BD62B82908292D6BF120030
:10147800080ED55D070ED659D8A01200010EC86F08
:10148800000ED66F000ED56F828082921200000186
:10149800C851016E026A0250000AD8A41200015015
:1014A800000AD8B498D7010AD8B49ED7030AD8B48A
:1014B800AED7010AD8A41200D5D784A202D0010E53
:1014C80001D0000EFF0A086E084684500818FD0B6C
:1014D8000818846E22EE00F0DF50D8B412D00F0145
:1014E8005F51086E096A24EE02F0DECF0AF0DDCF04
:1014F8000BF0D8900A360B36010E0A24D96E030E6B
:1015080011D00F015F51086E096A24EE02F0DECF98
:101518000AF0DDCF0BF0D8900A360B36010E0A24FC
:10152800D96E020E0B20DA6E08C0DEFF09C0DDFF9F
:1015380024EE02F0DE2A000EDD2224EE02F0010E77
:10154800DBBE0DD0010EDB5004E1800EDE5CD8A0BE
:1015580006D0020EE8CF01F483928394120050C0A3
:1015680006F051C007F06FEC0FF0C80E066E160EAD
:10157800076EEEEC0FF0FAEC0FF08392120022EEF9
:1015880000F0DF50D8B426D0000E0001636F000EC3
:10159800626FD8906235D96E6335DA6E010ED9263E
:1015A800020EDA22D8906235E16E6335E26E605140
:1015B800E1266151E222DECFE6FFDDCFE5FF624B97
:1015C800632B63BFE6D763512BE1800E625DD8B011
:1015D8001200DFD7000E0001656F000E646FD8900F
:1015E8006435D96E6535DA6E010ED926030EDA2216
:1015F800D8906435E16E6535E26E6051E12661513F
:10160800E222DECFE6FFDDCFE5FF644B652B65BF49
:10161800E6D7655105E1800E645DD8B01200DFD7CA
:1016280012000001D3A10AD074C06BF075C06CF031
:1016380072C06DF073C06EF09BEC0DF0000177BFC7
:1016480005D076C07BF077C07CF004D0000E7C6FAC
:10165800000E7B6F000E7A6F000E796F0DD0000EB2
:10166800636F200E626F72C064F073C065F0D8ECCF
:101678000BF00001794B7A2B7B51795D7A51800A06
:10168800786F7C51800A7859D8A0E9D7D3B10AD0AD
:1016980074C06BF075C06CF072C06DF073C06EF002
:1016A8009BEC0DF074C060F075C061F068EC0EF052
:1016B80000017B516025726F7C516121736F1200AC
:1016C800F80E066E1F0E076EEEEC0FF084A202D025
:1016D800010E01D0000EFF0A086E08468450081853
:1016E800FD0B0818846E24EE01F0DF50D8A414D046
:1016F800010EE8CF01F48394839250C006F051C0E4
:1017080007F06FEC0FF0C80E066E160E076EEEECC3
:101718000FF0FAEC0FF0120001C4E8FF010AD8A498
:10172800120083820F015B81C20E066E140E076ED3
:10173800DFEC0FF01200000E0001656F61AF06D0FC
:10174800606D611FD8B0612B010E656F63AF04D067
:10175800626D631FD8B0632B62516311D8B418D07F
:10176800010E646F04D0D89062376337642B63AF7F
:10177800FAD76251605D63516159D8A004D06251B3
:10178800605F6351615BD89063336233642FF1D734
:101798006551D8B404D0606D611FD8B0612B60C0AA
:1017A80060F061C061F01200000164516511D8B4A5
:1017B80004D064516511D8A404D06251A5EC0FF08F
:1017C800120020EE04F06451D9266551DA22DE5069
:1017D800DE10D8B416D020EE04F06451D926655135
:1017E800DA2210EE02F06451E1266551E222DE5061
:1017F800E65CE650800A6A6FDE50800A6A59D8B003
:10180800120020EE02F06451D9266551DA22DE2A50
:10181800000EDD221200000E826E000E836E000E96
:10182800846EF00E876EF90E886E3D0E896E3B0E43
:101838000F011C6FF10E146FFA0E0C6F000E286F5B
:10184800000E136F000E0B6F000E1B6F000E0A6F59
:10185800000E126F000E1A6F096911691969159542
:1018680016951785FC0E0001606F1F0E616FC1ECA5
:101878000FF00E01BD890B0EA96F120EAA6F090E8B
:10188800F86F12002DC04EF02EC04FF0000E4D6EB6
:10189800010E486E0E01C39182942DC006F02EC031
:1018A80007F0086A096A000E48EC08F006C014F050
:1018B80007C015F008C016F009C017F0BC0E186E66
:1018C800740E196E130E1A6E3C0E1B6E14EC04F097
:1018D80014C049F015C04AF016C04BF017C04CF0C0
:1018E800010E486E000E4D6E120001C4E8FF020A98
:1018F800D8A41200000EE8CF01F4000EE8CF02F4DD
:10190800000EE8CF03F422EE00F0DF50D8A404D094
:101918000001626B622B02D00001626B62C000F2B0
:101928008384100EE82EFED78382C80E0001606FF4
:10193800160E616FB2EC0FF050C060F051C061F04C
:1019480024EC0FF0F6EC0FF00F015B8F1200000E85
:10195800656E000E666E000E676E000E686E000EF5
:10196800636E000E646E000E616E000E0F015A6FFA
:10197800000E586F000E546F000E556F000E566F14
:10198800000E606E000E536F000E516F000E526F06
:10199800940E5B6F000E576F0E01C691BE81000E4C
:1019A8000001606F200E616FDAEC0FF01200E60E96
:1019B800F66E1F0EF76E000EF86E00EE50F010EE89
:1019C80005F00900F5CFEEFFE550E150FAE102EE2F
:1019D80000F012EE04F0EE6AE550E150FCE1E2504E
:1019E800FAE100EEC7F0310EEE6AE806FDE100EE1E
:1019F80048F0080EEE6AE806FDE155905592000E93
:101A0800F86E00017BEF09F0B3C0B7F0B4C0B8F0CE
:101A1800000E0001CE6F000ECD6F13D0B1C0A1F043
:101A2800B2C0A2F0B70EA36F000EA46FB5C0A5F0A8
:101A3800B6C0A6F0E0EC06F00001A151CD27A251F6
:101A4800CE23B7C0F6FFB8C0F7FF0800F55000096D
:101A5800D8A4E4D7CDC0B1F0CEC0B2F01200000EC9
:101A6800CF6E000ED06E010ED16E630ECD6EC00E1D
:101A7800CC6ECC50CDCF62F00001636B62C063F0D6
:101A8800626B6211426E6351436E0E01C991C1814E
:101A9800FA0E0001606F1F0E616FBCEC0FF0330E81
:101AA800CE6E1200080E9E6E800E9C6E240E9D6EE9
:101AB800820E9A6E060E9B6E000E0001606F000E7D
:101AC800616FCBEC0FF0000E0001606F000E616FCC
:101AD800C6EC0FF0000E0001606F000E616FD0ECD5
:101AE8000FF0000E0001D76F1200000EC96E000E35
:101AF800CA6E010ECB6EC768100EC66EC650C7CF31
:101B080062F00001636B62C063F0626B62113C6E4D
:101B180063513D6E0E01C995C185F80E0001606FD5
:101B28001F0E616FB2EC0FF0030EC86E1200000EAC
:101B38000001716F000E706F0CD06FC062F0636BA4
:101B48006DC064F06EC065F0D8EC0BF00001704B0E
:101B5800712B70516B25D96E71516C21DA6EDF5083
:101B68006F6F6F51D8B41200E8D7000173BF05D06A
:101B7800735110E17205D8B00DD072C074F073C003
:101B880075F0741F751F744B752B74C072F075C097
:101B980073F0120072C072F073C073F01200000E7E
:101BA8000001C86F000E89EC0FF0000E20EC0EF05B
:101BB800320E0001CC6FDC0E606F130E616FB7EC54
:101BC8000FF0000E0001D66F000ED56F010EC76F23
:101BD8001200FC0E066E1F0E076EE9EC0FF0FA0EEF
:101BE800066E1F0E076EE4EC0FF0000E076E000E77
:101BF800066E61EC0FF0F8EC0FF08284000E0E0117
:101C0800CB6FC38112008394839288948892C20E0A
:101C18000001606F140E616FDAEC0FF0000EE8CF70
:101C280002F4000EE8CF03F4020EE8CF01F40F012E
:101C38005B955B895B8F12000001606F000160514A
:101C4800800A9E0FD8B002D0E20E606F6051800A01
:101C5800630FD8A002D01C0E606F6051110F606F27
:101C68006051320FCC6F12000E01C9953CC006F0CE
:101C78003DC007F06FEC0FF03A503B10D8B412009B
:101C880001D812000500FA6E3A50FD6E3B50FE6E08
:101C9800F850FF6EFA5012000E01C99142C006F0CA
:101CA80043C007F061EC0FF040504110D8B4120067
:101CB80001D812000500FA6E4050FD6E4150FE6ECC
:101CC800F850FF6EFA50120060C062F061C063F015
:101CD80003D00001604B612B60C0D9FF61C0DAFFFF
:101CE800DF50D8A4F6D700016251605D606F635180
:101CF8006159616F1200010EBE6E000EBD6E000EBE
:101D0800BF6E000EBB6E000EBA6E0E01C993C18382
:101D1800020E0001606F200E616FB7EC0FF0F00E3D
:101D2800BC6E1200840EAB6E000EAC6E000EAA6E76
:101D3800000EA96EFE0E0001606F1F0E616FD5ECDC
:101D48000FF0AD50FC0B0109AD6E0E01CB91C381B4
:101D580012000E01CB91A9CF2FF0AACF30F02FC0DF
:101D68002DF030C02EF001D812000500FA6E445054
:101D7800FD6E4550FE6EF850FF6EFA50120094EC5E
:101D88000FF053EC0FF00FEC0CF07DEC0FF0ABEC18
:101D98000CF079EC0DF096EC0EF07FEC0EF033ECD5
:101DA8000DF056EC0DF01200BB0E0001BF6F000ED7
:101DB800C06F000EB16F000EB26FB9C0B3F0BAC0F9
:101DC800B4F0BF0EB56F000EB66F08EC0DF0120040
:101DD80046504710D8B40CD001D80AD00500FA6E86
:101DE8004650FD6E4750FE6EF850FF6EFA501200D6
:101DF8000F01159512000E01C9930001FE51FF1144
:101E0800D8B4120001D812000500FA6EFE51FD6E1A
:101E1800FF51FE6EF850FF6EFA5012000E01C69187
:101E28003E503F10D8B4120001D812000500FA6ED7
:101E38003E50FD6E3F50FE6EF850FF6EFA50120095
:101E4800C8A408D0C89000016151C76E60C0C6FF21
:101E5800C880120000016151C76E60C0C6FF120041
:101E6800FACF04F0FBCF05F00E01C1B3C9A302D02D
:101E7800FFEC0EF005C0FBFF04C0FAFF55921100FD
:101E8800FA0E066E1F0E076EE4EC0FF08494898438
:101E9800DA0E066E1B0E076EE9EC0FF01200000E4C
:101EA8000E01DC6F000EDD6F000EDE6F000EDF6FBF
:101EB800000EE06F000EE16F1200CEA407D0CE90A6
:101EC8000750CD6E06C0CCFFCE8012000750CD6EF5
:101ED80006C0CCFF1200C8A407D0C8900750C76E30
:101EE80006C0C6FFC88012000750C76E06C0C6FFEE
:101EF8001200600E0E01D36F000ED56F000ED76F63
:101F0800080ED96F000ED86F12000001606F640EC2
:101F18000001606502D0640E606F60C0CBF01200F3
:101F2800F28A0E01B983B991B995B691BB91B59969
:101F380012000001606F0E01C8A9FDD760C099FFAB
:101F480012000001616F000161519DEC0FF0120059
:101F58000F0115A51200ECEC0EF0120060C03AF06B
:101F680061C03BF0120060C0FEF061C0FFF01200DB
:101F780060C040F061C041F0120060C046F061C02E
:101F880047F0120060C0FAF061C0FBF0120060C0B8
:101F9800FCF061C0FDF0120060C0F8F061C0F9F01B
:101FA800120060C044F061C045F0120060C03EF00D
:101FB80061C03FF0120006C03EF007C03FF01200BB
:101FC80006C040F007C041F0120006C046F007C046
:101FD80047F0120006C03AF007C03BF0120010FFAD
:031FE8001CE211E7
:101FEC00C8801200CE801200C880120012001200AD
:081FFC00120012001200120095
:020000040020DA
:10000000FFFFFFFFFFFFFFFFFFFFFFFFFFFFFFFF00
:10001000FFFFFFFFFFFFFFFFFFFFFFFFFFFFFFFFF0
:10002000FFFFFFFFFFFFFFFFFFFFFFFFFFFFFFFFE0
:10003000FFFFFFFFFFFFFFFFFFFFFFFFFFFFFFFFD0
:10004000FFFFFFFFFFFFFFFFFFFFFFFFFFFFFFFFC0
:10005000FFFFFFFFFFFFFFFFFFFFFFFFFFFFFFFFB0
:10006000FFFFFFFFFFFFFFFFFFFFFFFFFFFFFFFFA0
:10007000FFFFFFFFFFFFFFFFFFFFFFFFFFFFFFFF90
:10008000FFFFFFFFFFFFFFFFFFFFFFFFFFFFFFFF80
:10009000FFFFFFFFFFFFFFFFFFFFFFFFFFFFFFFF70
:1000A000FFFFFFFFFFFFFFFFFFFFFFFFFFFFFFFF60
:1000B000FFFFFFFFFFFFFFFFFFFFFFFFFFFFFFFF50
:1000C000FFFFFFFFFFFFFFFFFFFFFFFFFFFFFFFF40
:1000D000FFFFFFFFFFFFFFFFFFFFFFFFFFFFFFFF30
:1000E000FFFFFFFFFFFFFFFFFFFFFFFFFFFFFFFF20
:1000F000FFFFFFFFFFFFFFFFFFFFFFFFFFFFFFFF10
:020000040030CA
:0C0000008CFFFFFF9FFFFFFFFFFFFFFFD3
:00000001FF
