:020000040000FA
:0400000017EF00F006
:100008001882FACF04F0FBCF05F0F2AC06D00E014F
:10001800C1B3C9A302D050EC02F005C0FBFF04C075
:10002800FAFF18921100F1EF01F07CEC02F0F28E69
:10003800F28C0DEC02F0520E096E2B0E086E000EBB
:10004800E82EFED7082EFCD7092EFAD700D0000ECE
:1000580024EC02F0000E0B6E000E0A6E0A5087ECBC
:1000680002F0030E096EAE0E086EB30EE82EFED730
:10007800082EFCD7092EFAD700F00A4A0B2A0BBE25
:10008800EDD70B5004E1500E0A5CD8A0E7D7000E5C
:100098000B6E000E0A6E0A50500887EC02F0030E31
:1000A800096EAE0E086EB30EE82EFED7082EFCD7EA
:1000B800092EFAD700F00A4A0B2A0BBEECD70B50D0
:1000C80004E1500E0A5CD8A0E6D7000E0B6E000EB5
:1000D8000A6E0A5024EC02F0030E096E080E086E30
:1000E800770EE82EFED7082EFCD7092EFAD700F097
:1000F8000A4A0B2A0BBEEDD70B5004E11C0E0A5C12
:10010800D8A0E7D7000E0B6E000E0A6E0A501C0826
:1001180024EC02F0030E096E700E086E5C0EE82ED9
:10012800FED7082EFCD7092EFAD700D00A4A0B2A88
:100138000BBEECD70B5004E11C0E0A5CD8A0E6D726
:10014800000E0B6E000E0A6E0A50000824EC02F036
:10015800030E096E700E086E5C0EE82EFED7082E90
:10016800FCD7092EFAD700D00A4A0B2A0BBEECD7C7
:100178000B5004E11E0E0A5CD8A0E6D7000E0B6EE9
:10018800000E0A6E0A50E20F24EC02F0030E096E0C
:10019800700E086E5C0EE82EFED7082EFCD7092ECE
:1001A800FAD700D00A4A0B2A0BBEECD70B5004E151
:1001B8001E0E0A5CD8A0E6D7000E0B6E000E0A6E63
:1001C8000A5024EC02F0030E096E700E086E5C0EE5
:1001D800E82EFED7082EFCD7092EFAD700D00A4AF7
:1001E8000B2A0BBEEDD70B5004E11C0E0A5CD8A0FD
:1001F800E7D7000E0B6E000E0A6E0A501C0824EC9E
:1002080002F0030E096E700E086E5C0EE82EFED723
:10021800082EFCD7092EFAD700D00A4A0B2A0BBEA3
:10022800ECD70B5004E11C0E0A5CD8A0E6D7000EF0
:100238000B6E000E0A6E0A50000824EC02F0030E42
:10024800096E700E086E5C0EE82EFED7082EFCD7DD
:10025800092EFAD700D00A4A0B2A0BBEECD70B504E
:1002680004E11E0E0A5CD8A0E6D7000E0B6E000E45
:100278000A6E0A50E20F24EC02F0030E096E700EAB
:10028800086E5C0EE82EFED7082EFCD7092EFAD78A
:1002980000D00A4A0B2A0BBEECD70B5004E11E0E05
:1002A8000A5CD8A0E6D7000E87EC02F0000E24EC1A
:1002B80002F0FCD75CD0010E0D6E82808282000EA7
:1002C800126E000E116E1200114A122A828082826A
:1002D80012BE1200125004E1640E115CD8A0120084
:1002E800020E0D6E000E126E000E116E1200114AF3
:1002F800122A0F50016E026A1150015C0250800AE6
:10030800036E1250800A0358D8A082901050016ED4
:10031800026A1150015C0250800A036E1250800A72
:100328000358D8A0829212BE1200125004E1640E43
:10033800115CD8A01200030E0D6E000E126E000E96
:10034800116E1200114A122A8290829212BE120075
:10035800080E115C070E1258D8A01200010E0D6E7F
:10036800000E126E000E116E8280829212000D50E5
:10037800016E026A0250000AD8A412000150000A55
:10038800D8B499D7010AD8B49FD7030AD8B4AFD73D
:10039800010AD8A41200D6D7000E826E000E836E12
:1003A800000E846EFC0E876E886889680F011C69D0
:1003B8001469FE0E0C6F000E286F000E136F000EEE
:1003C8000B6F000E1B6F000E0A6F000E126F000EEF
:1003D8001A6F09691169196912002E0EF66E050E59
:1003E800F76E000EF86E0900F5CF13F00900F5CF8F
:1003F80014F00900F5CF15F000EE0CF0070EEE6AC8
:10040800E806FDE118901892000EF86E000119EF49
:1004180000F0010E0C6E000E0D6E000E87EC02F05F
:10042800000E24EC02F0320E106EBC0E066E020EA8
:10043800076E90EC02F0000E126E000E116E1200A4
:10044800066E0650800A9E0FD8B002D0E20E066EE5
:100458000650800A630FD8A002D01C0E066E065004
:10046800EF0F066E0650320F106E1200010EBE6EB0
:10047800000EBD6E000EBF6E9F0EBB6E000EBA6EF4
:100488000E01C993C183320E066E050E076E90ECFD
:1004980002F0800EBC6E12000E01C99316501710A0
:1004A800D8B4120001D812000500FA6E1650FD6E7D
:1004B8001750FE6EF850FF6EFA501200000E0E0133
:1004C800DC6F000EDD6F000EDE6F000EDF6F000EBA
:1004D800E06F000EE16F1200600E0E01D36F000E88
:1004E800D56F000ED76F080ED96F000ED86F1200A7
:1004F80095EC02F062EC02F0D0EC01F070EC02F046
:100508003AEC02F01200066E640E066402D0640E25
:10051800066E06C00FF0120006C016F007C017F0EE
:090528001200F29A12001CE2EF2D
:020532001200B5
:020000040020DA
:10000000FFFFFFFFFFFFFFFFFFFFFFFFFFFFFFFF00
:10001000FFFFFFFFFFFFFFFFFFFFFFFFFFFFFFFFF0
:10002000FFFFFFFFFFFFFFFFFFFFFFFFFFFFFFFFE0
:10003000FFFFFFFFFFFFFFFFFFFFFFFFFFFFFFFFD0
:10004000FFFFFFFFFFFFFFFFFFFFFFFFFFFFFFFFC0
:10005000FFFFFFFFFFFFFFFFFFFFFFFFFFFFFFFFB0
:10006000FFFFFFFFFFFFFFFFFFFFFFFFFFFFFFFFA0
:10007000FFFFFFFFFFFFFFFFFFFFFFFFFFFFFFFF90
:10008000FFFFFFFFFFFFFFFFFFFFFFFFFFFFFFFF80
:10009000FFFFFFFFFFFFFFFFFFFFFFFFFFFFFFFF70
:1000A000FFFFFFFFFFFFFFFFFFFFFFFFFFFFFFFF60
:1000B000FFFFFFFFFFFFFFFFFFFFFFFFFFFFFFFF50
:1000C000FFFFFFFFFFFFFFFFFFFFFFFFFFFFFFFF40
:1000D000FFFFFFFFFFFFFFFFFFFFFFFFFFFFFFFF30
:1000E000FFFFFFFFFFFFFFFFFFFFFFFFFFFFFFFF20
:1000F000FFFFFFFFFFFFFFFFFFFFFFFFFFFFFFFF10
:020000040030CA
:0C0000008CFFFFFF9FFFFFFFFFFFFFFFD3
:00000001FF
