:020000040000FA
:0400000051EF00F0CC
:06000800578206EF0FF025
:100018005780D8CF31F0E8CF32F0E0CF33F0FACFC5
:1000280034F0FBCF35F0D9CF36F0DACF37F0F3CF55
:1000380038F0F4CF39F00E01C1B1C9A103D022ECD8
:100048000EF017D0C1B5C9A503D00AEC0EF011D037
:10005800C3B1CBA103D07FEC0EF00BD0BDB9C5A9BD
:1000680003D087EC0FF005D0BEB1C6A102D0E4ECF6
:100078000EF039C0F4FF38C0F3FF37C0DAFF36C0DE
:10008800D9FF35C0FBFF34C0FAFF33C0E0FF32C0F0
:0E009800E8FF31C0D8FF57901000ABEF0CF01E
:10080000000A2A2A2A2A2A2A2A2A2A2A204E455730
:10081000205343414E202A2A2A2A2A2A2A2A2A2ACF
:100820000A0025642C2000001750800B206E175002
:100830001724266E16BE26802650D8B40DD0262842
:10084000D8A408D0000E146E000E156E000E166EA1
:10085000000E176E168E08D0000E146E000E156E68
:10086000000E166E000E176E1B50800B201A1B50C8
:100870001B24256E1ABE25802550D8B40DD02528FE
:10088000D8A408D0000E186E000E196E000E1A6E55
:10089000000E1B6E1A8E08D0000E186E000E196E18
:1008A000000E1A6E000E1B6E2550D8B403D02650D1
:1008B000D8A409D0000E146E000E156E000E166E30
:1008C000000E176E12001A501402F3CF2BF0F4CF63
:1008D0002CF02B50216E226A236A246A2C50276E3A
:1008E000286A296A2A6A19501502F3CF2BF0F4CF2F
:1008F0002CF02B502126000E2222232224222C50C1
:100900002726000E282229222A2218501602F3CF69
:100910002BF0F4CF2CF02B502126000E2222232284
:1009200024222C502726000E282229222A2223C0E6
:1009300024F022C023F021C022F0216A18501502B1
:10094000F3CF2BF0F4CF2CF02B5021262C50222269
:10095000000E2322000E242219501402F3CF2BF094
:10096000F4CF2CF02B5021262C502222000E2322D3
:10097000000E242223C024F022C023F021C022F044
:10098000216A18501402F3CF2BF0F4CF2CF02B5027
:1009900021262C502222000E2322000E24221A503F
:1009A0001502F3CF2BF0F4CF2CF02B5027262C5030
:1009B0002822000E2922000E2A2219501602F3CFF7
:1009C0002BF0F4CF2CF02B5027262C502822000E91
:1009D0002922000E2A221A501602F3CF2BF0F4CF50
:1009E0002CF02B501C6E2C501D6E1E6A1F6A1EC0F0
:1009F0001FF01DC01EF01CC01DF01C6A1C502726D5
:100A00001D5028221E5029221F502A2221C01CF0CE
:100A100022C01DF023C01EF024C01FF0190E05D007
:100A2000D8901F321E321D321C32E82EF9D71C50CE
:100A300027261D5028221E5029221F502A2223C05B
:100A400024F022C023F021C022F0216A255026C0C4
:100A50001CF01D6A1C26000E1D22820E1C242B6E0B
:100A6000FF0E1D202C6E0FD0D89027362836293641
:100A70002A3624BE2780D8902136223623362436C3
:100A80002B06D8A02C0629AEEFD7000E256E24AE7B
:100A900017D0FF0E21141C6EFF0E22141D6EFF0EC8
:100AA00023141E6E7F0E24141F6E1C501D101E106A
:100AB0001F10D8B403D0010E256E02D027B0FBD78B
:100AC0002550D8B41FD0010E2726000E2822292237
:100AD0002A222AA017D027C01CF028C01DF029C048
:100AE0001EF02AC01FF01F341F321E321D321C326E
:100AF0001CC027F01DC028F01EC029F01FC02AF01E
:100B00002B4A2C2A2CBE0DD02C5003E12B28D8A028
:100B100008D0000E276E000E286E800E296E7F0E04
:100B200020D02CBE05D02C500EE12B04D8B00BD019
:100B3000000E276E000E286E000E296E000E2A6E23
:100B4000000E206E0FD02BC026F0FF0E2716FF0ED2
:100B500028167F0E2916000E2A1626B0298ED89048
:100B600026302A6E20502A1227C014F028C015F013
:100B700029C016F02AC017F012007FC097F080C07D
:100B800098F081C099F082C09AF083C09BF084C035
:100B90009CF085C09DF086C09EF000019EAF02D003
:100BA000010E01D0000E956F966B95519611D8B439
:100BB00010D09E1F9D1F9C1F9B1F9A1F991F981F3F
:100BC000976D000E982399239A239B239C239D23A2
:100BD0009E23D2AFD393D2BF05D0D25108E1D10525
:100BE000D8B005D0000E926F010E916F04D0D1C025
:100BF00091F0D2C092F0CFC093F0D0C094F0955154
:100C00009611D8A402D0D3A503D09307D8A09407F7
:100C1000000EA06F1F0E9F6F000EF76F7DD09F0715
:100C2000D8A0A007D80E9F25D96E000EA021DA6E9D
:100C300097C060F098C061F099C062F09AC063F00C
:100C40009BC064F09CC065F09DC066F09EC067F0DC
:100C50000A0E686F000E696F000E6A6F000E6B6FF0
:100C6000000E6C6F000E6D6F000E6E6F000E6F6FDA
:100C7000E8EC08F060C087F061C088F062C089F0DD
:100C800063C08AF064C08BF065C08CF066C08DF0E4
:100C900067C08EF087C072F089C073F0A4EC0DF0CD
:100CA00000017251300FDF6E9107D8A092079307B1
:100CB000D8A0940797C060F098C061F099C062F026
:100CC0009AC063F09BC064F09CC065F09DC066F064
:100CD0009EC067F00A0E686F000E696F000E6A6FA3
:100CE000000E6B6F000E6C6F000E6D6F000E6E6F5E
:100CF000000E6F6FA3EC07F060C097F061C098F032
:100D000062C099F063C09AF064C09BF065C09CF02B
:100D100066C09DF067C09EF00001A0BF1FD0A0512B
:100D200003E19F05D8A01AD09751981199119A11F3
:100D30009B119C119D119E11D8A471D792BF05D013
:100D4000925102E19105D8B06AD794BF07D094516F
:100D500003E19305D8A002D0D3B361D79551961182
:100D6000D8A402D0D3A517D09F07D8A0A00795512B
:100D70009611D8A404D0000E906F2B0E03D0000E55
:100D8000906F2D0E8F6FD80E9F25D96E000EA0216B
:100D9000DA6E8FC0DFFF7DC072F07EC073F0D80EB8
:100DA0009F25746F000EA021756F93C076F094C0DC
:100DB00077F0EFEC0AF072C07DF073C07EF01200A5
:100DC000A3C0D9FFA4C0DAFFDECFF6FFDDCFF7FF67
:100DD0000800F550250AD8A49BD0A3C0D9FFA4C011
:100DE000DAFFDE2A000EDD22000E0001D06F000EB9
:100DF000CF6FCFC0D3F0D0C0D4F0D169D269A3C037
:100E0000D9FFA4C0DAFFDECFF6FFDDCFF7FF080081
:100E1000F550640AD8B40DD0A3C0D9FFA4C0DAFF3E
:100E2000DECFF6FFDDCFF7FF0800F550690AD8A442
:100E30003FD0A3C0D9FFA4C0DAFFDE2A000EDD2216
:100E4000A5C0D9FFA6C0DAFFDFCFA7F0020EDE26CD
:100E5000DFCFA8F0000EDD22A7C0D9FFA8C0DAFFBF
:100E6000DECFA9F0DDCFAAF0000EAABFFF0EAB6F58
:100E7000AC6FAD6FAE6FAF6FB06FA1C07DF0A2C0B1
:100E80007EF0A9C07FF0AAC080F0ABC081F0ACC0FA
:100E900082F0ADC083F0AEC084F0AFC085F0B0C0CA
:100EA00086F0BDEC05F07DC0A1F07EC0A2F012007E
:100EB000A3C0D9FFA4C0DAFFDECFF6FFDDCFF7FF76
:100EC0000800F550250AD8A417D0A3C0D9FFA4C0A4
:100ED000DAFFDE2A000EDD22000E636F250E626F40
:100EE000A1C064F0A2C065F03EEC0BF0000E000162
:100EF000A26F010EA16F1200A3C0D9FFA4C0DAFF38
:100F0000DE2A000EDD22000EA26F000EA16F12007D
:100F1000A3C0D9FFA4C0DAFFDECFF6FFDDCFF7FF15
:100F20000800F5500001626F636BA1C064F0A2C0BD
:100F300065F03EEC0BF0A3C0D9FFA4C0DAFFDE2AB7
:100F4000000EDD22D3D7000E0001716F6FAF12D0FB
:100F50006F1F6E1F6D1F6C1F6B1F6A1F691F686DEF
:100F6000000E69236A236B236C236D236E236F238A
:100F7000010E716F67AF12D0671F661F651F641F78
:100F8000631F621F611F606D000E61236223632374
:100F90006423652366236723010E711B20EE72F024
:100FA000070EDE6AE806FDE2685169116A116B11ED
:100FB0006C116D116E116F11D8B446D0010E706FA7
:100FC0000AD0D890683769376A376B376C376D3716
:100FD0006E376F37702B6FAFF4D7D8907237733787
:100FE0007437753776377737783779376851605D7A
:100FF000695161596A5162596B5163596C51645915
:101000006D5165596E5166596F516759D8A011D00D
:101010006851605F6951615B6A51625B6B51635BF0
:101020006C51645B6D51655B6E51665B6F51675BC4
:101030007281D8906F336E336D336C336B336A3398
:1010400069336833702FC9D77151D8B410D0791F64
:10105000781F771F761F751F741F731F726D000E28
:10106000732374237523762377237823792372C01F
:1010700060F073C061F074C062F075C063F076C058
:1010800064F077C065F078C066F079C067F0120050
:101090000E6E0E50D8A409AE1AD006C00AF007C0D2
:1010A0000BF008C00CF009C00DF00A1E0B1E0C1E40
:1010B0000D1E0A2A000E0B220C220D220AC010F06F
:1010C0000BC011F00CC012F00DC013F008D006C018
:1010D00010F007C011F008C012F009C013F006505C
:1010E000071008100910D8A409D0000E066E000ED3
:1010F000076E000E086E000E096E1200960E0F6E3F
:1011000006D00F2AD8901332123211321032000E4C
:1011100010140A6E000E11140B6E000E12140C6ED9
:10112000FE0E13140D6E0A500B100C100D10D8B4D7
:101130000DD0E7D70F2A010E1026000E1122122221
:101140001322D8901332123211321032000E1014C2
:101150000A6E000E11140B6E000E12140C6EFF0EB0
:1011600013140D6E0A500B100C100D10D8B407D0CC
:10117000E1D70F06D890103611361236133612BE4C
:1011800003D0020E0F60F5D70FA0129ED8900F3239
:101190000FC00AF00B6A0C6A0D6A0AC00DF00C6AE7
:1011A0000B6A0A6A0A5010120B5011120C501212DC
:1011B0000D5013120E50D8A409AE01D0138E10C0DA
:1011C00006F011C007F012C008F013C009F01200B9
:1011D000000E0001716F67AF12D0671F661F651F99
:1011E000641F631F621F611F606D000E6123622315
:1011F00063236423652366236723010E716F6FAF3A
:1012000010D06F1F6E1F6D1F6C1F6B1F6A1F691F31
:10121000686D000E69236A236B236C236D236E2394
:101220006F23685169116A116B116C116D116E1188
:101230006F11D8B43CD0010E706F0AD0D8906837C7
:1012400069376A376B376C376D376E376F37702B8E
:101250006FAFF4D76851605D695161596A51625945
:101260006B5163596C5164596D5165596E51665992
:101270006F516759D8A010D06851605F6951615BA8
:101280006A51625B6B51635B6C51645B6D51655B72
:101290006E51665B6F51675BD8906F336E336D3301
:1012A0006C336B336A3369336833702FD3D7715122
:1012B000D8B410D0671F661F651F641F631F621FAD
:1012C000611F606D000E6123622363236423652325
:1012D0006623672360C060F061C061F062C062F0A5
:1012E00063C063F064C064F065C065F066C066F01A
:1012F00067C067F012005CD0010EC86F82808282E6
:10130000000ED66F000ED56F1200D54BD62B828003
:101310008282D6BF1200D65104E1640ED55DD8A0FA
:101320001200020EC86F000ED66F000ED56F1200AD
:10133000D54BD62BCB51016E026AD551015C0250C0
:10134000800A036ED651800A0358D8A08290CC51EF
:10135000016E026AD551015C0250800A036ED651BB
:10136000800A0358D8A08292D6BF1200D65104E159
:10137000640ED55DD8A01200030EC86F000ED66FA4
:10138000000ED56F1200D54BD62B82908292D6BF1D
:101390001200080ED55D070ED659D8A01200010E16
:1013A000C86F000ED66F000ED56F82808292120039
:1013B0000001C851016E026A0250000AD8A412004E
:1013C0000150000AD8B498D7010AD8B49ED7030AAE
:1013D000D8B4AED7010AD8A41200D5D70E01BE9159
:1013E00084A202D0010E01D0000EFF0A086E08464A
:1013F00084500818FD0B0818846E22EE00F0DF50B0
:10140000D8B40BD023EE02F0DECF08F0DDCF09F028
:10141000810E0824D96E020E0AD023EE02F0DECF30
:1014200008F0DDCF09F0010E0824D96E020E092064
:10143000DA6E5FCFDFFF23EE02F0DE2A000EDD2240
:1014400023EE02F0010EDBBE1BD0010EDB5004E1E7
:10145000800EDE5CD8A014D0020EE8CF01F3839298
:101460008394960E066E180E076EC4EC0FF04EC0F5
:1014700006F04FC007F041EC0FF0D0EC0FF0120077
:101480008392580E066E170E076EC4EC0FF052C012
:1014900006F053C007F041EC0FF0EFD722EE00F05A
:1014A000DF50D8B426D0000E0001656F000E646FC7
:1014B000010E6425D96E020E6521DA6EDF50626F6F
:1014C000636BD8906435D96E6535DA6E6051D92674
:1014D0006151DA2262C0DEFF63C0DDFF644B652B21
:1014E00065BFE6D765512BE1800E645DD8B0120070
:1014F000DFD7000E0001676F000E666F810E662554
:10150000D96E020E6721DA6EDF50626F636BD8907E
:101510006635D96E6735DA6E6051D9266151DA22A7
:1015200062C0DEFF63C0DDFF664B672B67BFE6D797
:10153000675105E1800E665DD8B01200DFD712005A
:1015400095EC0EF0F28CF28EF28CBEEC0DF089EC84
:101550000DF0000E5BEC0FF0000EF2EC0DF075ECF0
:101560000BF0090E0001C26F1E0EC16FE40EE82ED3
:10157000FED7C12FFCD7C22FFAD700F0000E000112
:10158000606F010E616F4EEC0AF0000E0001C66F35
:10159000000EC56F220EB96F080EBA6FD890C53510
:1015A000D96EC635DA6E000ED926010EDA22DECFEC
:1015B000BBF0DDCFBCF0AAEC0EF00001C54BC62B92
:1015C000C6BFE8D7C65104E1800EC55DD8A0E2D7FA
:1015D000010EB96F080EBA6FAAEC0EF0CFD700015A
:1015E000D3A10AD074C06BF075C06CF072C06DF0FE
:1015F00073C06EF06BEC0DF0000177BF05D076C0C4
:101600007BF077C07CF004D0000E7C6F000E7B6F07
:10161000000E7A6F000E796F0DD0000E636F200EF2
:10162000626F72C064F073C065F03EEC0BF00001B5
:10163000794B7A2B7B51795D7A51800A786F7C5196
:10164000800A7859D8A0E9D7D3B10AD074C06BF01A
:1016500075C06CF072C06DF073C06EF06BEC0DF085
:1016600074C060F075C061F03AEC0EF000017B517F
:101670006025726F7C516121736F1200000164510B
:101680006511D8B404D064516511D8A404D0625156
:1016900080EC0FF0120020EE04F06451D926655161
:1016A000DA22DE50DE10D8B416D020EE04F06451F9
:1016B000D9266551DA2210EE02F06451E126655117
:1016C000E222DE50E65CE650800A6A6FDE50800A55
:1016D0006A59D8B0120020EE02F06451D926655143
:1016E000DA22DE2A000EDD22120057B04BEF0CF09A
:1016F00001C3E8FF020AD8A41200000EE8CF01F3EC
:10170000000EE8CF02F3000EE8CF03F322EE00F064
:10171000DF50D8A404D00001626B622B02D000011C
:10172000626B62C000F28384100EE82EFED78382C3
:10173000580E0001606F170E616F92EC0FF052C0EF
:1017400060F053C061F0F6EC0EF0CCEC0FF00F013E
:101750005B8F0E01BE911200A40E066E1F0E076E67
:10176000C4EC0FF084A202D0010E01D0000EFF0ADB
:10177000086E084684500818FD0B0818846E23EE86
:1017800001F0DF50D8A414D0010EE8CF01F3839408
:10179000839252C006F053C007F041EC0FF0580E90
:1017A000066E170E076EC4EC0FF0D0EC0FF01200AF
:1017B00001C3E8FF010AD8A4120083820E01BE8192
:1017C0000F015B811200000E826E000E836E000E10
:1017D000846EF00E876EF90E886E3D0E896E3B0E9C
:1017E0000F011C6FF90E146FFA0E0C6F000E286FAC
:1017F000000E136F000E0B6F000E1B6F000E0A6FB2
:10180000000E126F000E1A6F09691169196915959A
:1018100016951785A80E0001606F1F0E616FA1EC71
:101820000FF00E01BD89120EAA6F090EF86F12009B
:101830002DC04CF02EC04DF0000E4B6E010E466ECA
:101840000E01C39182942DC006F02EC007F0086AE5
:10185000096A000E48EC08F006C014F007C015F045
:1018600008C016F009C017F0BC0E186E740E196E81
:10187000130E1A6E3C0E1B6E14EC04F014C047F0ED
:1018800015C048F016C049F017C04AF0010E466E68
:10189000000E4B6E120001C3E8FF020AD8A412002A
:1018A000000EE8CF01F3000EE8CF02F3000EE8CF00
:1018B00003F322EE00F0DF50D8A403D0086A082A10
:1018C00001D0086A08C000F28384100EE82EFED70B
:1018D0008382580E066E170E076EC4EC0FF052C0CE
:1018E00006F053C007F041EC0FF0D0EC0FF00F0101
:1018F0005B8F0E01BE911200000E506E000E516EF5
:10190000000E0F01546F000E556F000E566F000E43
:10191000516F000E606E000E526F000E536F000E7E
:10192000586F000E596F000E576F000E5A6F000E61
:10193000616E000E656E000E666E000E676E000E24
:10194000686E000E636E000E646E900E5B6F0E018B
:10195000C691BE811200920EF66E1F0EF76E000E3B
:10196000F86E00EE52F010EE05F00900F5CFEEFF34
:10197000E550E150FAE102EE00F011EE04F0EE6AFB
:10198000E550E150FCE1E250FAE100EEC7F0310E23
:10199000EE6AE806FDE100EE46F00C0EEE6AE8069F
:1019A000FDE157905792000EF86E0001A0EF0AF08B
:1019B000B3C0B7F0B4C0B8F0000E0001CE6F000E97
:1019C000CD6F13D0B1C0A1F0B2C0A2F0B70EA36F1B
:1019D000000EA46FB5C0A5F0B6C0A6F0E0EC06F00E
:1019E0000001A151CD27A251CE23B7C0F6FFB8C048
:1019F000F7FF0800F5500009D8A4E4D7CDC0B1F036
:101A0000CEC0B2F01200000ECF6E000ED06E010EEE
:101A1000D16E630ECD6EC00ECC6ECC50CDCF62F0C9
:101A20000001636B62C063F0626B6211406E6351D0
:101A3000416E0E01C991C181A60E0001606F1F0E9B
:101A4000616F9CEC0FF0330ECE6E1200080E9E6E8E
:101A5000800E9C6E240E9D6E820E9A6E060E9B6EFC
:101A6000000E0001606F000E616FABEC0FF0000E16
:101A70000001606F000E616FA6EC0FF0000E000118
:101A8000606F000E616FB0EC0FF0000E0001D76FB9
:101A90001200000EC96E000ECA6E010ECB6EC76832
:101AA000100EC66EC650C7CF62F00001636B62C0F5
:101AB00063F0626B62113C6E63513D6E0E01C9951D
:101AC000C185A40E0001606F1F0E616F92EC0FF0D4
:101AD000030EC86E1200000E0001716F000E706FD1
:101AE0000CD06FC062F0636B6DC064F06EC065F0C7
:101AF0003EEC0BF00001704B712B70516B25D96ED1
:101B000071516C21DA6EDF506F6F6F51D8B41200D3
:101B1000E8D78394839288948892DC0E0001606FEA
:101B2000130E616F8DEC0FF0020E0001606F0B0E53
:101B300066EC0FF0000EE8CF02F3000EE8CF03F3DF
:101B4000020EE8CF01F31200000173BF05D07351FC
:101B500010E17205D8B00DD072C074F073C075F08A
:101B6000741F751F744B752B74C072F075C073F0C1
:101B7000120072C072F073C073F01200000E000108
:101B8000C86F000E5BEC0FF0000EF2EC0DF0320EA1
:101B90000001CC6FF60E606F120E616F97EC0FF0C4
:101BA000000E0001D66F000ED56F010EC76F120038
:101BB000A80E066E1F0E076EBFEC0FF0A60E066E87
:101BC0001F0E076EBAEC0FF0000E076E000E066EC9
:101BD00033EC0FF0CEEC0FF08284000E0E01CB6FD1
:101BE000C38112000001606F00016051800A9E0FE6
:101BF000D8B002D0E20E606F6051800A630FD8A0A7
:101C000002D01C0E606F6051110F606F6051320F77
:101C1000CC6F12000E01C9953CC006F03DC007F024
:101C200041EC0FF03A503B10D8B4120001D812002A
:101C30000500FA6E3A50FD6E3B50FE6EF850FF6E96
:101C4000FA5012000E01C99140C006F041C007F0E1
:101C500033EC0FF03E503F10D8B4120001D8120000
:101C60000500FA6E3E50FD6E3F50FE6EF850FF6E5E
:101C7000FA50120060C062F061C063F003D000014E
:101C8000604B612B60C0D9FF61C0DAFFDF50D8A480
:101C9000F6D700016251605D606F63516159616FF9
:101CA0001200010EBE6E000EBD6E000EBF6E000E65
:101CB000BB6E000EBA6E0E01C993C183AC0E00015B
:101CC000606F1F0E616F97EC0FF0F00EBC6E12008C
:101CD000840EAB6E000EAC6E000EAA6E000EA96EE6
:101CE000AA0E0001606F1F0E616FB5EC0FF0AD50D2
:101CF000FC0B0109AD6E0E01CB91C38112000E01E8
:101D0000CB91A9CF2FF0AACF30F02FC02DF030C04B
:101D10002EF001D812000500FA6E4250FD6E4350BD
:101D2000FE6EF850FF6EFA5012006FEC0FF025ECCB
:101D30000FF0E3EC0BF04FEC0FF07CEC0CF049EC07
:101D40000DF068EC0EF051EC0EF003EC0DF026EC0B
:101D50000DF01200BB0E0001BF6F000EC06F000E31
:101D6000B16F000EB26FB9C0B3F0BAC0B4F0BF0E1D
:101D7000B56F000EB66FD8EC0CF012004450451051
:101D8000D8B40CD001D80AD00500FA6E4450FD6ECC
:101D90004550FE6EF850FF6EFA5012000F01159577
:101DA00012000E01C9930001FE51FF11D8B41200B8
:101DB00001D812000500FA6EFE51FD6EFF51FE6E55
:101DC000F850FF6EFA5012000E01C691505051109B
:101DD000D8B4120001D812000500FA6E5050FD6E02
:101DE0005150FE6EF850FF6EFA501200C8A408D091
:101DF000C89000016151C76E60C0C6FFC880120064
:101E000000016151C76E60C0C6FF1200FACF04F036
:101E1000FBCF05F00E01C1B3C9A302D0D1EC0EF087
:101E200005C0FBFF04C0FAFF57921100A60E066E14
:101E30001F0E076EBAEC0FF084948984B00E066E04
:101E40001B0E076EBFEC0FF01200000E0E01DC6FD0
:101E5000000EDD6F000EDE6F000EDF6F000EE06F14
:101E6000000EE16F1200CEA407D0CE900750CD6EC9
:101E700006C0CCFFCE8012000750CD6E06C0CCFF4E
:101E80001200C8A407D0C8900750C76E06C0C6FF8E
:101E9000C88012000750C76E06C0C6FF1200600E51
:101EA0000E01D36F000ED56F000ED76F080ED96FDD
:101EB000000ED86F12000001606F640E00016065B3
:101EC00002D0640E606F60C0CBF012000001616F41
:101ED00061C05AFF60C057FF0F015B8F1200F28A8A
:101EE0000E01B983B991B995BB91B599B69112001C
:101EF0000001606F0E01C8A9FDD760C099FF1200F4
:101F00000001616F0001615178EC0FF012000F01C8
:101F100015A51200BEEC0EF0120060C050F061C0BA
:101F200051F0120060C03AF061C03BF0120060C096
:101F3000FEF061C0FFF0120060C03EF061C03FF0F3
:101F4000120060C044F061C045F0120060C0FAF0B9
:101F500061C0FBF0120060C0FCF061C0FDF0120037
:101F600060C0F8F061C0F9F0120060C042F061C0DA
:101F700043F0120006C03EF007C03FF0120006C05A
:101F800044F007C045F0120006C03AF007C03BF02D
:071F9000120010FF1CE2111A
:101F9800C8801200CE801200C88012001200120001
:061FA800120012001200FD
:020000040020DA
:10000000FFFFFFFFFFFFFFFFFFFFFFFFFFFFFFFF00
:10001000FFFFFFFFFFFFFFFFFFFFFFFFFFFFFFFFF0
:10002000FFFFFFFFFFFFFFFFFFFFFFFFFFFFFFFFE0
:10003000FFFFFFFFFFFFFFFFFFFFFFFFFFFFFFFFD0
:10004000FFFFFFFFFFFFFFFFFFFFFFFFFFFFFFFFC0
:10005000FFFFFFFFFFFFFFFFFFFFFFFFFFFFFFFFB0
:10006000FFFFFFFFFFFFFFFFFFFFFFFFFFFFFFFFA0
:10007000FFFFFFFFFFFFFFFFFFFFFFFFFFFFFFFF90
:10008000FFFFFFFFFFFFFFFFFFFFFFFFFFFFFFFF80
:10009000FFFFFFFFFFFFFFFFFFFFFFFFFFFFFFFF70
:1000A000FFFFFFFFFFFFFFFFFFFFFFFFFFFFFFFF60
:1000B000FFFFFFFFFFFFFFFFFFFFFFFFFFFFFFFF50
:1000C000FFFFFFFFFFFFFFFFFFFFFFFFFFFFFFFF40
:1000D000FFFFFFFFFFFFFFFFFFFFFFFFFFFFFFFF30
:1000E000FFFFFFFFFFFFFFFFFFFFFFFFFFFFFFFF20
:1000F000FFFFFFFFFFFFFFFFFFFFFFFFFFFFFFFF10
:020000040030CA
:0C0000008CFFFFFF9FFFFFFFFFFFFFFFD3
:00000001FF
