:020000040000FA
:040000001CEF00F001
:100008005982FACF04F0FBCF05F00E01BDB9C5A99E
:1000180003D047EC06F006D0F2BCC1A303D0C9B3A5
:10002800F2EC05F005C0FBFF04C0FAFF599211007D
:1000380078EF05F01750800B206E17501724266EA6
:1000480016BE26802650D8B40DD02628D8A408D0AD
:10005800000E146E000E156E000E166E000E176E52
:10006800168E08D0000E146E000E156E000E166E59
:10007800000E176E1B50800B201A1B501B24216E7C
:100088001ABE21802150D8B40DD02128D8A408D078
:10009800000E186E000E196E000E1A6E000E1B6E02
:1000A8001A8E08D0000E186E000E196E000E1A6E09
:1000B800000E1B6E2150D8B403D02650D8A409D006
:1000C800000E146E000E156E000E166E000E176EE2
:1000D80012001A501402F3CF2BF0F4CF2CF02B504F
:1000E800226E236A246A256A2C50276E286A296A98
:1000F8002A6A19501502F3CF2BF0F4CF2CF02B50AD
:100108002226000E2322242225222C502726000EE8
:10011800282229222A2218501602F3CF2BF0F4CFD6
:100128002CF02B502226000E2322242225222C508C
:100138002726000E282229222A2224C025F023C09F
:1001480024F022C023F0226A18501502F3CF2BF0B6
:10015800F4CF2CF02B5022262C502322000E2422E0
:10016800000E252219501402F3CF2BF0F4CF2CF0F7
:100178002B5022262C502322000E2422000E25224A
:1001880024C025F023C024F022C023F0226A18508E
:100198001402F3CF2BF0F4CF2CF02B5022262C5046
:1001A8002322000E2422000E25221A501502F3CF16
:1001B8002BF0F4CF2CF02B5027262C502822000EA1
:1001C8002922000E2A2219501602F3CF2BF0F4CF61
:1001D8002CF02B5027262C502822000E2922000E06
:1001E8002A221A501602F3CF2BF0F4CF2CF02B5002
:1001F8001C6E2C501D6E1E6A1F6A1EC01FF01DC08B
:100208001EF01CC01DF01C6A1C5027261D502822F9
:100218001E5029221F502A2222C01CF023C01DF084
:1002280024C01EF025C01FF0190E05D0D8901F322B
:100238001E321D321C32E82EF9D71C5027261D50BD
:1002480028221E5029221F502A2224C025F023C00C
:1002580024F022C023F0226A215026C01CF01D6A17
:100268001C26000E1D22820E1C242B6EFF0E1D2044
:100278002C6E0FD0D8902736283629362A3625BE38
:100288002780D89022362336243625362B06D8A048
:100298002C0629AEEFD7000E216E25AE17D0FF0E23
:1002A80022141C6EFF0E23141D6EFF0E24141E6EE6
:1002B8007F0E25141F6E1C501D101E101F10D8B461
:1002C80003D0010E216E02D027B0FBD72150D8B43D
:1002D8001FD0010E2726000E282229222A222AA012
:1002E80017D027C01CF028C01DF029C01EF02AC056
:1002F8001FF01F341F321E321D321C321CC027F063
:100308001DC028F01EC029F01FC02AF02B4A2C2A35
:100318002CBE0DD02C5003E12B28D8A008D0000EFD
:10032800276E000E286E800E296E7F0E20D02CBE00
:1003380005D02C500EE12B04D8B00BD0000E276E40
:10034800000E286E000E296E000E2A6E000E206E1A
:100358000FD02BC026F0FF0E2716FF0E28167F0E93
:100368002916000E2A1626B0298ED89026302A6E15
:1003780020502A1227C014F028C015F029C016F002
:100388002AC017F012003050800B396E30503024DC
:100398003B6E2FBE3B803B50D8B40DD03B28D8A431
:1003A80008D0000E2D6E000E2E6E000E2F6E000E61
:1003B800306E2F8E06D0000E2D6E000E2E6E000EA3
:1003C8002F6E000E306E3450800B3A6E39503A184A
:1003D800D8A4398C345034243A6E33BE3A803A501B
:1003E800D8B40DD03A28D8A408D0000E316E000E2B
:1003F800326E000E336E000E346E338E06D0000E51
:10040800316E000E326E000E336E000E346E3B50AD
:100418003A5CD8B022D039AC02D0800E391A3BC031
:100428003CF03AC03BF03CC03AF02DC03CF031C043
:100438002DF03CC031F02EC03CF032C02EF03CC054
:1004480032F02FC03CF033C02FF03CC033F030C046
:100458003CF034C030F03CC034F0000E3C6E3B50F1
:100468003AC035F0366A355E000E365A36BE2CD0A4
:10047800365004E11A0E355CD8A026D02D502E1027
:100488002F103010D8B402D0010E01D0000E3C6EEF
:10049800000E2D6E000E2E6E000E2F6E000E306EAA
:1004A8003AC03BF015D03CA005D0D8903C300109AB
:1004B8003C6E02D0D8903C322DB03C8E3034303275
:1004C8002F322E322D323B2A3A503B5CD8A0EBD744
:1004D80039BC28D03B50D8A409D0000E2D6E000E90
:1004E8002E6E000E2F6E000E306E120031502D262B
:1004F80032502E2233502F223450302230A071D067
:100508003CA005D0D8903C3001093C6E02D0D89070
:100518003C322DB03C8E303430322F322E322D32D8
:100528003B2A5FD031502D5C32502E5833502F5813
:100538003050800A356E3450800A3558D8B025D0EE
:100548002D50315C356E2E503258366E2F50335840
:10055800376E30503458386EFF0E35242D6EFF0E2E
:1005680036202E6EFF0E37202F6EFF0E3820306E8D
:10057800800E391A3C6C3C50D8A40FD0010E2D26A1
:10058800000E2E222F22302208D031502D5E3250FC
:100598002E5A33502F5A3450305A2D502E102F10B7
:1005A8003010D8A41CD03C50D8A419D0000E2D6E01
:1005B800000E2E6E000E2F6E000E306E1200D890B8
:1005C8002D362E362F3630363CBE2D803CA002D03C
:1005D800D88001D0D8903C363B50D8A43B062FAEEB
:1005E800EED7000E3A6E3CAE0BD03CC035F07F0E15
:1005F8003516D8B403D0010E3A6E02D02DB0FBD711
:100608003A50D8B420D0010E2D26000E2E222F22CB
:10061800302230A018D02DC035F02EC036F02FC0B3
:1006280037F030C038F03834383237323632353275
:1006380035C02DF036C02EF037C02FF038C030F05E
:100648003B28D8A43B2A3B28D8B403D03B50D8A495
:100658000DD0000E2D6E000E2E6E000E2F6E000EA9
:10066800306E3B50D8A402D0000E396E3BA002D0A9
:100678002F8E01D02F9ED8903B30306E39BE308EF1
:100688002DC02DF02EC02EF02FC02FF030C030F02E
:1006980012000E6E0E50D8A409AE1AD006C00AF089
:1006A80007C00BF008C00CF009C00DF00A1E0B1EA5
:1006B8000C1E0D1E0A2A000E0B220C220D220AC047
:1006C80010F00BC011F00CC012F00DC013F008D0E0
:1006D80006C010F007C011F008C012F009C013F0EE
:1006E8000650071008100910D8A409D0000E066E8D
:1006F800000E076E000E086E000E096E1200960EB0
:100708000F6E06D00F2AD8901332123211321032DF
:10071800000E10140A6E000E11140B6E000E121447
:100728000C6EFE0E13140D6E0A500B100C100D10EB
:10073800D8B40DD0E7D70F2A010E1026000E1122CB
:1007480012221322D8901332123211321032000EB4
:1007580010140A6E000E11140B6E000E12140C6E9B
:10076800FF0E13140D6E0A500B100C100D10D8B498
:1007780007D0E1D70F06D890103611361236133647
:1007880012BE03D0020E0F60F5D70FA0129ED890AC
:100798000F320FC00AF00B6A0C6A0D6A0AC00DF01E
:1007A8000C6A0B6A0A6A0A5010120B5011120C508C
:1007B80012120D5013120E50D8A409AE01D0138E88
:1007C80010C006F011C007F012C008F013C009F0FD
:1007D80012005CD0010E4A6E82808282000E506E3A
:1007E800000E4F6E12004F4A502A8280828250BEFD
:1007F8001200505004E1640E4F5CD8A01200020EA3
:100808004A6E000E506E000E4F6E12004F4A502A6C
:100818004D50016E026A4F50015C0250800A036E0F
:100828005050800A0358D8A082904E50016E026A38
:100838004F50015C0250800A036E5050800A0358E2
:10084800D8A0829250BE1200505004E1640E4F5C52
:10085800D8A01200030E4A6E000E506E000E4F6EA6
:1008680012004F4A502A8290829250BE1200080EFF
:100878004F5C070E5058D8A01200010E4A6E000EA9
:10088800506E000E4F6E8280829212004A50016EA6
:10089800026A0250000AD8A412000150000AD8B413
:1008A80099D7010AD8B49FD7030AD8B4AFD7010A99
:1008B800D8A41200D6D712EC06F0F28EF28CAFEC68
:1008C80005F02BEC06F0520E486E2B0E476E000E0C
:1008D800E82EFED7472EFCD7482EFAD700D0000EB8
:1008E800C6EC05F0350EE82EFED700F024EC05F036
:1008F8002DC060F02EC061F02FC062F030C063F0F0
:10090800000E316E000E326EF00E336EC10E346E74
:10091800000E186E000E196E700E1A6E420E1B6EC7
:1009280060C014F061C015F062C016F063C017F023
:100938001EEC00F014C02DF015C02EF016C02FF0DC
:1009480017C030F0C7EC01F02DC03DF02EC03EF0CE
:100958002FC03FF030C040F0C7EC04F03DC064F059
:100968003EC065F000016451C6EC05F0090E486E02
:100978001E0E476EE40EE82EFED7472EFCD7482EF3
:10098800FAD700D0B3D73F344034466E4650D8A487
:1009980009D0000E3D6E000E3E6E000E3F6E000E3A
:1009A800406E12003DC041F03EC042F03FC043F0EF
:1009B80040C044F0200E05D0D89044324332423231
:1009C8004132E82EF9D74150456E3F8EFF0E3D1655
:1009D800FF0E3E16FF0E3F16000E4016960E465EA0
:1009E80046AE0DD04650800A970FD8A0D2D7D890DF
:1009F80040323F323E323D32463EF9D70DD01F0ECF
:100A0800466407D0C6D7D8903D363E363F36403686
:100A180046064650D8A4F7D74550D8B408D0401E4B
:100A28003F1E3E1E3D6C000E3E223F2240223DC02E
:100A38003DF03EC03EF03FC03FF040C040F01200E5
:100A48005150D8B4FDD7000E516E52C006F053C0B5
:100A580007F0086A096A000E4DEC03F006C014F0AE
:100A680007C015F008C016F009C017F0AE0E186ED2
:100A7800D40E196EB30E1A6E370E1B6E1EEC00F0F4
:100A880014C031F015C032F016C033F017C034F07E
:100A980031C02DF032C02EF033C02FF034C030F00A
:100AA8001200000E826E000E836E000E846EFC0E25
:100AB800876E886889680F011C691469FE0E0C6FBF
:100AC800000E286F000E136F000E0B6F000E1B6FC9
:100AD800000E0A6F000E126F000E1A6F0969116975
:100AE80019690E01BD891200880EF66E0C0EF76E9C
:100AF800000EF86E0900F5CF54F00900F5CF55F057
:100B08000900F5CF56F000EE49F00B0EEE6AE80644
:100B1800FDE159905992000EF86E00015FEF04F064
:100B2800000EC96E000ECA6E010ECB6E060EC76EA1
:100B3800000EC66EC650C7CF06F0076A06C007F09B
:100B4800066A06100001666F0750676F0E01C995A7
:100B5800230EC86E1200000E4A6E000E34EC06F02A
:100B6800000EC6EC05F0320E4E6EDA0E066E070E5B
:100B7800076E3DEC06F0000E506E000E4F6E010E33
:100B8800496E1200066E0650800A9E0FD8B002D039
:100B9800E20E066E0650800A630FD8A002D01C0E23
:100BA800066E0650EF0F066E0650320F4E6E12009C
:100BB800010EBE6E000EBD6E000EBF6E9F0EBB6EA8
:100BC800000EBA6E0E01C993C1838C0E066E0C0E10
:100BD800076E3DEC06F0800EBC6E12000E01C99344
:100BE80057505810D8B4120001D812000500FA6EF8
:100BF8005750FD6E5850FE6EF850FF6EFA501200B6
:100C0800000E0E01DC6F000EDD6F000EDE6F000EB1
:100C1800DF6F000EE06F000EE16F120042EC06F08D
:100C280004EC06F055EC05F01FEC06F094EC05F02A
:100C3800DCEC05F01200600E0E01D36F000ED56FCC
:100C4800000ED76F080ED96F000ED86F120094EC03
:100C580005F0000E516E000E536E000E526E12001B
:100C6800066E640E066402D0640E066E06C04DF071
:100C7800120006C057F007C058F01200F29A12008E
:030C88001CE2EF7C
:040C8C001200120040
:020000040020DA
:10000000FFFFFFFFFFFFFFFFFFFFFFFFFFFFFFFF00
:10001000FFFFFFFFFFFFFFFFFFFFFFFFFFFFFFFFF0
:10002000FFFFFFFFFFFFFFFFFFFFFFFFFFFFFFFFE0
:10003000FFFFFFFFFFFFFFFFFFFFFFFFFFFFFFFFD0
:10004000FFFFFFFFFFFFFFFFFFFFFFFFFFFFFFFFC0
:10005000FFFFFFFFFFFFFFFFFFFFFFFFFFFFFFFFB0
:10006000FFFFFFFFFFFFFFFFFFFFFFFFFFFFFFFFA0
:10007000FFFFFFFFFFFFFFFFFFFFFFFFFFFFFFFF90
:10008000FFFFFFFFFFFFFFFFFFFFFFFFFFFFFFFF80
:10009000FFFFFFFFFFFFFFFFFFFFFFFFFFFFFFFF70
:1000A000FFFFFFFFFFFFFFFFFFFFFFFFFFFFFFFF60
:1000B000FFFFFFFFFFFFFFFFFFFFFFFFFFFFFFFF50
:1000C000FFFFFFFFFFFFFFFFFFFFFFFFFFFFFFFF40
:1000D000FFFFFFFFFFFFFFFFFFFFFFFFFFFFFFFF30
:1000E000FFFFFFFFFFFFFFFFFFFFFFFFFFFFFFFF20
:1000F000FFFFFFFFFFFFFFFFFFFFFFFFFFFFFFFF10
:020000040030CA
:0C0000008CFFFFFF9FFFFFFFFFFFFFFFD3
:00000001FF
