:020000040000FA
:0400000051EF00F0CC
:0600080057820BEF0DF022
:100018005780D8CF31F0E8CF32F0E0CF33F0FACFC5
:1000280034F0FBCF35F0D9CF36F0DACF37F0F3CF55
:1000380038F0F4CF39F00E01C1B1C9A103D02EECCC
:100048000CF017D0C1B5C9A503D016EC0CF011D02F
:10005800C3B1CBA103D074EC0CF00BD0BDB9C5A9CA
:1000680003D07DEC0DF005D0BEB1C6A102D0D9EC0D
:100078000CF039C0F4FF38C0F3FF37C0DAFF36C0E0
:10008800D9FF35C0FBFF34C0FAFF33C0E0FF32C0F0
:10009800E8FF31C0D8FF57901000B1EF0AF0000117
:1000A8008151800B8A6F81518125906F80BF90812B
:1000B8009051D8B40DD09029D8A408D0000E7E6FE6
:1000C800000E7F6F000E806F000E816F808F08D04A
:1000D800000E7E6F000E7F6F000E806F000E816F26
:1000E8008551800B8A1B855185258F6F84BF8F8131
:1000F8008F51D8B40DD08F29D8A408D0000E826FA4
:10010800000E836F000E846F000E856F848F08D0F9
:10011800000E826F000E836F000E846F000E856FD5
:100128008F51D8B403D09051D8A409D0000E7E6F57
:10013800000E7F6F000E806F000E816F12008451D9
:100148007E03F3CF95F0F4CF96F095518B6F8C6BBF
:100158008D6B8E6B9651916F926B936B946B8351F1
:100168007F03F3CF95F0F4CF96F095518B27000ECF
:100178008C238D238E2396519127000E922393234F
:10018800942382518003F3CF95F0F4CF96F09551E4
:100198008B27000E8C238D238E2396519127000EDA
:1001A8009223932394238DC08EF08CC08DF08BC046
:1001B8008CF08B6B82517F03F3CF95F0F4CF96F0E0
:1001C80095518B2796518C23000E8D23000E8E237C
:1001D80083517E03F3CF95F0F4CF96F095518B279A
:1001E80096518C23000E8D23000E8E238DC08EF029
:1001F8008CC08DF08BC08CF08B6B82517E03F3CF5B
:1002080095F0F4CF96F095518B2796518C23000EDC
:100218008D23000E8E2384517F03F3CF95F0F4CF06
:1002280096F09551912796519223000E9323000E34
:10023800942383518003F3CF95F0F4CF96F0955132
:10024800912796519223000E9323000E94238451F4
:100258008003F3CF95F0F4CF96F09551866F9651C1
:10026800876F886B896B88C089F087C088F086C0E3
:1002780087F0866B86519127875192238851932363
:10028800895194238BC086F08CC087F08DC088F08C
:100298008EC089F0190E05D0D890893388338733FA
:1002A8008633E82EF9D786519127875192238851B2
:1002B8009323895194238DC08EF08CC08DF08BC010
:1002C8008CF08B6B8F5190C086F0876B8627000E61
:1002D8008723820E8625956FFF0E8721966F0FD094
:1002E800D89091379237933794378EBF9181D890B1
:1002F8008B378C378D378E379507D8A0960793AFF5
:10030800EFD7000E8F6F8EAF17D0FF0E8B15866F4D
:10031800FF0E8C15876FFF0E8D15886F7F0E8E155B
:10032800896F8651871188118911D8B403D0010EBD
:100338008F6F02D091B1FBD78F51D8B41FD0010E67
:100348009127000E92239323942394A117D091C050
:1003580086F092C087F093C088F094C089F0893500
:10036800893388338733863386C091F087C092F00B
:1003780088C093F089C094F0954B962B96BF0DD00A
:10038800965103E19529D8A008D0000E916F000E70
:10039800926F800E936F7F0E20D096BF05D0965136
:1003A8000EE19505D8B00BD0000E916F000E926F3C
:1003B800000E936F000E946F000E8A6F0FD095C0D9
:1003C80090F0FF0E9117FF0E92177F0E9317000EF5
:1003D800941790B1938FD8909031946F8A51941359
:1003E80091C07EF092C07FF093C080F094C081F0FD
:1003F80012001750800B206E17501724266E16BE59
:1004080026802650D8B40DD02628D8A408D0000EAF
:10041800146E000E156E000E166E000E176E168EF8
:1004280008D0000E146E000E156E000E166E000E2B
:10043800176E1B50800B201A1B501B24256E1ABEEA
:1004480025802550D8B40DD02528D8A408D0000E72
:10045800186E000E196E000E1A6E000E1B6E1A8EA4
:1004680008D0000E186E000E196E000E1A6E000EDF
:100478001B6E2550D8B403D02650D8A409D0000E3E
:10048800146E000E156E000E166E000E176E12001A
:100498001A501402F3CF2BF0F4CF2CF02B50216E0E
:1004A800226A236A246A2C50276E286A296A2A6AD3
:1004B80019501502F3CF2BF0F4CF2CF02B50212636
:1004C800000E2222232224222C502726000E282226
:1004D80029222A2218501602F3CF2BF0F4CF2CF041
:1004E8002B502126000E2222232224222C5027269C
:1004F800000E282229222A2223C024F022C023F019
:1005080021C022F0216A18501502F3CF2BF0F4CF46
:100518002CF02B5021262C502222000E2322000ED4
:10052800242219501402F3CF2BF0F4CF2CF02B50C7
:1005380021262C502222000E2322000E242223C022
:1005480024F022C023F021C022F0216A185014029E
:10055800F3CF2BF0F4CF2CF02B5021262C50222255
:10056800000E2322000E24221A501502F3CF2BF07E
:10057800F4CF2CF02B5027262C502822000E2922AD
:10058800000E2A2219501602F3CF2BF0F4CF2CF0CC
:100598002B5027262C502822000E2922000E2A2212
:1005A8001A501602F3CF2BF0F4CF2CF02B501C6E00
:1005B8002C501D6E1E6A1F6A1EC01FF01DC01EF043
:1005C8001CC01DF01C6A1C5027261D5028221E50D6
:1005D80029221F502A2221C01CF022C01DF023C04E
:1005E8001EF024C01FF0190E05D0D8901F321E32FD
:1005F8001D321C32E82EF9D71C5027261D50282200
:100608001E5029221F502A2223C024F022C023F082
:1006180021C022F0216A255026C01CF01D6A1C2624
:10062800000E1D22820E1C242B6EFF0E1D202C6E28
:100638000FD0D8902736283629362A3624BE278068
:10064800D89021362236233624362B06D8A02C06FD
:1006580029AEEFD7000E256E24AE17D0FF0E211459
:100668001C6EFF0E22141D6EFF0E23141E6E7F0ECD
:1006780024141F6E1C501D101E101F10D8B403D058
:10068800010E256E02D027B0FBD72550D8B41FD055
:10069800010E2726000E282229222A222AA017D056
:1006A80027C01CF028C01DF029C01EF02AC01FF06A
:1006B8001F341F321E321D321C321CC027F01DC0D1
:1006C80028F01EC029F01FC02AF02B4A2C2A2CBE65
:1006D8000DD02C5003E12B28D8A008D0000E276E8F
:1006E800000E286E800E296E7F0E20D02CBE05D0FD
:1006F8002C500EE12B04D8B00BD0000E276E000E44
:10070800286E000E296E000E2A6E000E206E0FD085
:100718002BC026F0FF0E2716FF0E28167F0E29166F
:10072800000E2A1626B0298ED89026302A6E205020
:100738002A1227C014F028C015F029C016F02AC0C4
:1007480017F0120000019A51800BA36F9A519A2555
:10075800A56F99BFA581A551D8B40DD0A529D8A456
:1007680008D0000E976F000E986F000E996F000E5C
:100778009A6F998F06D0000E976F000E986F000E33
:10078800996F000E9A6F9E51800BA46FA351A41904
:10079800D8A4A38D9E519E25A46F9DBFA481A4516A
:1007A800D8B40DD0A429D8A408D0000E9B6F000E91
:1007B8009C6F000E9D6F000E9E6F9D8F06D0000EE1
:1007C8009B6F000E9C6F000E9D6F000E9E6FA551D3
:1007D800A45DD8B022D0A3AD02D0800EA31BA5C0C3
:1007E800A6F0A4C0A5F0A6C0A4F097C0A6F09BC030
:1007F80097F0A6C09BF098C0A6F09CC098F0A6C041
:100808009CF099C0A6F09DC099F0A6C09DF09AC032
:10081800A6F09EC09AF0A6C09EF0000EA66FA55145
:10082800A4C09FF0A06B9F5F000EA05BA0BF2CD060
:10083800A05104E11A0E9F5DD8A026D097519811B7
:1008480099119A11D8B402D0010E01D0000EA66FEA
:10085800000E976F000E986F000E996F000E9A6F3A
:10086800A4C0A5F015D0A6A105D0D890A63101093D
:10087800A66F02D0D890A63397B1A68F9A359A332F
:10088800993398339733A52BA451A55DD8A0EBD7FE
:10089800A3BD28D0A551D8A409D0000E976F000E8B
:1008A800986F000E996F000E9A6F12009B51972750
:1008B8009C5198239D5199239E519A239AA171D0B6
:1008C800A6A105D0D890A6310109A66F02D0D8906C
:1008D800A63397B1A68F9A359A33993398339733BD
:1008E800A52B5FD09B51975D9C5198599D51995963
:1008F8009A51800A9F6F9E51800A9F59D8B025D07F
:1009080097519B5D9F6F98519C59A06F99519D5924
:10091800A16F9A519E59A26FFF0E9F25976FFF0EE8
:10092800A021986FFF0EA121996FFF0EA2219A6F47
:10093800800EA31BA66DA651D8A40FD0010E972731
:10094800000E982399239A2308D09B51975F9C51B6
:10095800985B9D51995B9E519A5B9751981199119B
:100968009A11D8A41CD0A651D8A419D0000E976FFC
:10097800000E986F000E996F000E9A6F1200D890B3
:100988009737983799379A37A6BF9781A6A102D08B
:10099800D88001D0D890A637A551D8A4A50799AF7B
:1009A800EED7000EA46FA6AF0BD0A6C09FF07F0EA7
:1009B8009F17D8B403D0010EA46F02D097B1FBD70C
:1009C800A451D8B420D0010E9727000E982399235C
:1009D8009A239AA118D097C09FF098C0A0F099C008
:1009E800A1F09AC0A2F0A235A233A133A0339F335D
:1009F8009FC097F0A0C098F0A1C099F0A2C09AF04B
:100A0800A529D8A4A52BA529D8B403D0A551D8A425
:100A18000DD0000E976F000E986F000E996F000EA4
:100A28009A6FA551D8A402D0000EA36FA5A102D039
:100A3800998F01D0999FD890A5319A6FA3BF9A8FAB
:100A480097C097F098C098F099C099F09AC09AF01A
:100A58001200000E0001B46F000EB36F000EB56FE8
:100A6800000EBA6F000EB96FB951A725A96FBA5118
:100A7800A821AA6F010EA925D96E000EAA21DA6E47
:100A8800DF50AB6FB951A725D96EBA51A821DA6EDC
:100A9800DF50AC6FAC51AB5DB66FB76BD8A0B70782
:100AA800B351B65DB751800AA96FB451800AA959EC
:100AB800D8B006D0B6C0B3F0B7C0B4F0B9C0B5F07E
:100AC800B94BBA2BBABFD0D7BA5104E17E0EB95D83
:100AD800D8A0CAD7B551CE5DB86FCD51B85DB16F4A
:100AE800B26BD8A0B207B8C0CDF0C3C082F0C4C002
:100AF80083F0C5C084F0C6C085F0B1C070F0B2C044
:100B080071F0000E71BFFF0E726F736F010EE0EC93
:100B180005F070C07EF071C07FF072C080F073C0C5
:100B280081F053EC00F07EC09BF07FC09CF080C049
:100B38009DF081C09EF0C7C060F0C8C061F0C9C018
:100B480062F0CAC063F0DBEC08F0000160516A6F24
:100B58006B6B6ABF6B07B8C06CF06D6B9FEC0CF0E9
:100B680000016AC070F06BC071F0000E71BFFF0E1B
:100B7800726F736F010EE0EC05F070C097F071C0F2
:100B880098F072C099F073C09AF0A6EC03F097C081
:100B9800ADF098C0AEF099C0AFF09AC0B0F0ADC05B
:100BA80060F0AEC061F0AFC062F0B0C063F0DBECE3
:100BB80008F00001605112000001786F00017851BF
:100BC800D8A473AF1AD070C074F071C075F072C039
:100BD80076F073C077F0741F751F761F771F742B1C
:100BE800000E75237623772374C07AF075C07BF0E6
:100BF80076C07CF077C07DF008D070C07AF071C004
:100C08007BF072C07CF073C07DF07051711172116D
:100C18007311D8A409D0000E706F000E716F000E0A
:100C2800726F000E736F1200960E796F06D0792BD3
:100C3800D8907D337C337B337A33000E7A15746F0A
:100C4800000E7B15756F000E7C15766FFE0E7D15F8
:100C5800776F7451751176117711D8B40DD0E7D725
:100C6800792B010E7A27000E7B237C237D23D890D5
:100C78007D337C337B337A33000E7A15746F000E24
:100C88007B15756F000E7C15766FFF0E7D15776FDF
:100C98007451751176117711D8B407D0E1D7790757
:100CA800D8907A377B377C377D377CBF03D0020EEC
:100CB8007961F5D779A17C9FD890793379C074F0A0
:100CC800756B766B776B74C077F0766B756B746B3E
:100CD80074517A1375517B1376517C1377517D13B8
:100CE8007851D8A473AF01D07D8F7AC070F07BC0E3
:100CF80071F07CC072F07DC073F012000E6E0E5061
:100D0800D8A409AE1AD006C00AF007C00BF008C074
:100D18000CF009C00DF00A1E0B1E0C1E0D1E0A2A2F
:100D2800000E0B220C220D220AC010F00BC011F08D
:100D38000CC012F00DC013F008D006C010F007C0A8
:100D480011F008C012F009C013F00650071008107F
:100D58000910D8A409D0000E066E000E076E000E0A
:100D6800086E000E096E1200960E0F6E06D00F2A3E
:100D7800D8901332123211321032000E10140A6E4B
:100D8800000E11140B6E000E12140C6EFE0E1314CE
:100D98000D6E0A500B100C100D10D8B40DD0E7D7FB
:100DA8000F2A010E1026000E112212221322D890AB
:100DB8001332123211321032000E10140A6E000E65
:100DC80011140B6E000E12140C6EFF0E13140D6E20
:100DD8000A500B100C100D10D8B407D0E1D70F062D
:100DE800D890103611361236133612BE03D0020EC2
:100DF8000F60F5D70FA0129ED8900F320FC00AF0DF
:100E08000B6A0C6A0D6A0AC00DF00C6A0B6A0A6A52
:100E18000A5010120B5011120C5012120D501312CE
:100E28000E50D8A409AE01D0138E10C006F011C020
:100E380007F012C008F013C009F012008AEC0CF099
:100E4800F28CF28EF28C9AEC0BF07FEC0BF0000E29
:100E58000001606F000E616FA00E626F400E636F3D
:100E6800000E646F000E656F000E666F000E676FF0
:100E7800640EE6EC0BF046EC0BF0000E60EC0DF0A7
:100E8800000EFEEC0BF07BEC09F0290E0001BC6FA4
:100E9800960EBB6F7F0EE82EFED7BB2FFCD7BC2F5C
:100EA800FAD764EC0BF0000E0001606F010E616F61
:100EB80039EC09F0000E0001A76F010EA86F2DECA8
:100EC80005F00101846F8451FEEC0BF0020E000165
:100ED800BC6FA00EBB6F920EE82EFED7BB2FFCD7BF
:100EE800BC2FFAD700F0CEEC0BF060C080F161C0E7
:100EF80081F162C082F163C083F180C160F081C179
:100F080061F082C162F083C163F0000E0001646F7A
:100F1800000E656FA00E666F410E676F12EC08F049
:100F28000001D8B004D0000E60EC0DF0BAD70B0E5B
:100F380060EC0DF0B6D75CD0010EBE6F8280828265
:100F4800000ECC6F000ECB6F1200CB4BCC2B8280E7
:100F58008282CCBF1200CC5104E1640ECB5DD8A0D4
:100F68001200020EBE6F000ECC6F000ECB6F120087
:100F7800CB4BCC2BC151016E026ACB51015C0250A4
:100F8800800A036ECC51800A0358D8A08290C251BF
:100F9800016E026ACB51015C0250800A036ECC518B
:100FA800800A0358D8A08292CCBF1200CC5104E129
:100FB800640ECB5DD8A01200030EBE6F000ECC6F7E
:100FC800000ECB6F1200CB4BCC2B82908292CCBF01
:100FD8001200080ECB5D070ECC59D8A01200010EE6
:100FE800BE6F000ECC6F000ECB6F82808292120013
:100FF8000001BE51016E026A0250000AD8A4120014
:101008000150000AD8B498D7010AD8B49ED7030A69
:10101800D8B4AED7010AD8A41200D5D7000E000163
:101028006015686F000E6115696F800E62156A6F32
:101038007F0E63156B6F685169116A116B11D8A423
:1010480008D0000E606F000E616F000E626F000E18
:10105800636F000E6415686F000E6515696F800E6A
:1010680066156A6F7F0E67156B6F685169116A1193
:101078006B11D8A408D0000E646F000E656F000EC7
:10108800666F000E676F63AF09D0606D611FD8B0DF
:10109800612B621FD8B0622B800E635767AF09D0EF
:1010A800646D651FD8B0652B661FD8B0662B800E9F
:1010B8006757000E601B000E611B000E621B800E3E
:1010C800631B000E641B000E651B000E661B800E62
:1010D800671B6451605D655161596651625967517A
:1010E8006359D8B002D0D8901200D88012000E01EF
:1010F800BE9184A202D0010E01D0000EFF0A086E34
:10110800084684500818FD0B0818846E21EE85F0F7
:10111800DF50D8B40BD022EE87F0DECF08F0DDCF59
:1011280009F0060E0824D96E020E0AD022EE87F0C6
:10113800DECF08F0DDCF09F0860E0824D96E010E47
:101148000920DA6E5FCFDFFF22EE87F0DE2A000E7D
:10115800DD2222EE87F0010EDBBE1BD0010EDB5034
:1011680004E1800EDE5CD8A014D0020EE8CF86F22F
:1011780083928394A20E066E140E076EBAEC0DF0DD
:101188004EC006F04FC007F046EC0DF0C8EC0DF06D
:1011980012008392640E066E130E076EBAEC0DF001
:1011A80052C006F053C007F046EC0DF0EFD700012F
:1011B80062356335696F6951D8A409D0000E606F34
:1011C800000E616F000E626F000E636F120060C048
:1011D80064F061C065F062C066F063C067F0200E1D
:1011E80005D0D8906733663365336433E82EF9D772
:1011F8006451686F628FFF0E6017FF0E6117FF0E54
:101208006217000E6317960E695F69AF0DD06951BA
:10121800800A970FD8A0D2D7D8906333623361334E
:101228006033693FF9D70DD01F0E696507D0C6D75F
:10123800D890603761376237633769076951D8A436
:10124800F7D76851D8B408D0631F621F611F606D5B
:10125800000E61236223632360C060F061C061F007
:1012680062C062F063C063F0120021EE85F0DF50C7
:10127800D8B41ED0000E0001636F000E626F860E98
:101288006225D96E010E6321DA6E62516025E16E26
:1012980063516121E26EDFCFE7FF624B632B63BFCF
:1012A800EED7635123E1800E625DD8B01200E7D714
:1012B800000E0001656F000E646F060E6425D96E7E
:1012C800020E6521DA6E64516025E16E6551612177
:1012D800E26EDFCFE7FF644B652B65BFEED7655144
:1012E80005E1800E645DD8B01200E7D7120057B050
:1012F80051EF0AF086C2E8FF020AD8A41200000ED5
:10130800E8CF86F2000EE8CF87F2000EE8CF88F229
:1013180021EE85F0DF50D8A404D00001626B622B67
:1013280002D00001626B62C085F18384100EE82E42
:10133800FED78382640E0001606F130E616F88EC24
:101348000DF052C060F053C061F0FBEC0CF0C4EC3F
:101358000DF00F015B8F0E01BE911200940E066E08
:101368001B0E076EBAEC0DF084A202D0010E01D05C
:10137800000EFF0A086E084684500818FD0B08186E
:10138800846E22EE86F0DF50D8A414D0010EE8CF88
:1013980086F28394839252C006F053C007F046EC5D
:1013A8000DF0640E066E130E076EBAEC0DF0C8EC65
:1013B8000DF0120086C2E8FF010AD8A41200838249
:1013C8000E01BE810F015B811200000E826E000EBD
:1013D800836E000E846EF00E876EF90E886E3D0ED9
:1013E800896E3B0E0F011C6FF90E146FFA0E0C6F0D
:1013F800000E286F000E136F000E0B6F000E1B6F90
:10140800000E0A6F000E126F000E1A6F096911693B
:101418001969159516951785980E0001606F1B0EB2
:10142800616F97EC0DF00E01BD89120EAA6F090EBF
:10143800F86F12002DC04CF02EC04DF0000E4B6E10
:10144800010E466E0E01C39182942DC006F02EC087
:1014580007F0086A096A000E82EC06F006C014F06C
:1014680007C015F008C016F009C017F0BC0E186EBA
:10147800740E196E130E1A6E3C0E1B6EFDEC01F005
:1014880014C047F015C048F016C049F017C04AF01C
:10149800010E466E000E4B6E120086C2E8FF020A6D
:1014A800D8A41200000EE8CF86F2000EE8CF87F22B
:1014B800000EE8CF88F221EE85F0DF50D8A403D0E3
:1014C800086A082A01D0086A08C085F18384100ECA
:1014D800E82EFED78382640E066E130E076EBAECF2
:1014E8000DF052C006F053C007F046EC0DF0C8EC02
:1014F8000DF00F015B8F0E01BE911200000E506EB1
:10150800000E516E000E0F01546F000E556F000E45
:10151800566F000E516F000E606E000E526F000E77
:10152800536F000E586F000E596F000E576F000E64
:101538005A6F000E616E000E656E000E666E000E2C
:10154800676E000E686E000E636E000E646E900E7D
:101558005B6F0E01C691BE8112007E0EF66E1B0EE9
:10156800F76E000EF86E00EE52F010EE05F009006E
:10157800F5CFEEFFE550E150FAE101EE85F011EE0E
:1015880004F0EE6AE550E150FCE1E250FAE100EEC9
:10159800BDF0130EEE6AE806FDE100EE46F00C0E13
:1015A800EE6AE806FDE157905792000EF86E0001CA
:1015B80022EF07F0000ECF6E000ED06E010ED16E36
:1015C800630ECD6EC00ECC6ECC50CDCF62F0000154
:1015D800636B62C063F0626B6211406E6351416E6F
:1015E8000E01C991C181960E0001606F1B0E616FDB
:1015F80092EC0DF0330ECE6E1200080E9E6E800E29
:101608009C6E240E9D6E820E9A6E060E9B6E000EC8
:101618000001606F000E616FA1EC0DF0000E00017B
:10162800606F000E616F9CEC0DF0000E0001606FA2
:10163800000E616FA6EC0DF0000E0001CF6F1200D6
:10164800000EC96E000ECA6E010ECB6EC768100E72
:10165800C66EC650C7CF62F00001636B62C063F00C
:10166800626B62113C6E63513D6E0E01C995C18576
:10167800940E0001606F1B0E616F88EC0DF0030E75
:10168800C86E12008482000E466E000E4B6E0E016C
:10169800C391960E0001606F1B0E616F92EC0DF006
:1016A800980E0001606F1B0E616F97EC0DF03C0EF9
:1016B8000001606F140E616FABEC0DF084921200A4
:1016C800350EE82EFED700F04B50D8A412008484C3
:1016D8008994360E0001606F1A0E616F92EC0DF05E
:1016E800FF0E0001616F6069EBEC0CF0C2EC0DF0CD
:1016F800010E4B6E12008394839288948892F60EA2
:101708000001606F100E616F83EC0DF0020E000196
:10171800606F0B0E6BEC0DF0000EE8CF87F2000E39
:10172800E8CF88F2020EE8CF86F21200000E000120
:10173800BE6F000E60EC0DF0000EFEEC0BF0320EEA
:101748000001C26F3E0E606F0F0E616F8DEC0DF0E1
:10175800000E0001CC6F000ECB6F010EBD6F1200A2
:10176800980E066E1B0E076EB5EC0DF0960E066E03
:101778001B0E076EB0EC0DF0000E076E000E066E25
:1017880038EC0DF0C6EC0DF08284000E0E01CB6F24
:10179800C38112004650D8B40BD0000E466E47C025
:1017A80060F048C061F049C062F04AC063F01200BE
:1017B800000E0001606F000E616F000E626F000E78
:1017C800636F12000001686F68C0CEF060C0C7F098
:1017D80061C0C8F062C0C9F063C0CAF064C0C3F099
:1017E80065C0C4F066C0C5F067C0C6F0000E000151
:1017F800CD6F12000001606F00016051110F606F22
:101808006051800A990FD8B002D0E70E606F60511E
:10181800800A750FD8A002D00A0E606F6051320F8F
:10182800C26F12000E01C9953CC006F03DC007F01A
:1018380046EC0DF03A503B10D8B4120001D8120013
:101848000500FA6E3A50FD6E3B50FE6EF850FF6E82
:10185800FA5012000E01C99140C006F041C007F0CD
:1018680038EC0DF03E503F10D8B4120001D81200E9
:101878000500FA6E3E50FD6E3F50FE6EF850FF6E4A
:10188800FA501200010EBE6E000EBD6E000EBF6E45
:10189800040EBB6E000EBA6E0E01C993C1839C0E76
:1018A8000001606F1B0E616F8DEC0DF0D00EBC6EE9
:1018B8001200840EAB6E000EAC6E000EAA6E000E07
:1018C800A96E9A0E0001606F1B0E616FABEC0DF0F4
:1018D800AD50FC0B0109AD6E0E01CB91C381120016
:1018E8000E01CB91A9CF2FF0AACF30F02FC02DF049
:1018F80030C02EF001D812000500FA6E4250FD6E7D
:101908004350FE6EF850FF6EFA50120074EC0DF062
:101918002AEC0DF0E9EC09F054EC0DF082EC0AF039
:101928005DEC0CF024EC0BF046EC0CF0DEEC0AF06D
:1019380001EC0BF0120000016A516C03F3CF6EF05A
:10194800F4CF6FF06A516D03F3506F276B516C033E
:10195800F3506F276EC06AF06FC06BF012004450EE
:101968004510D8B40CD001D80AD00500FA6E4450FE
:10197800FD6E4550FE6EF850FF6EFA5012000F01D2
:10198800159512000E01C9930001D651D711D8B48C
:10199800120001D812000500FA6ED651FD6ED7511B
:1019A800FE6EF850FF6EFA5012000E01C6915050AC
:1019B8005110D8B4120001D812000500FA6E505028
:1019C800FD6E5150FE6EF850FF6EFA501200CEA414
:1019D80008D0CE9000016151CD6E60C0CCFFCE80A2
:1019E800120000016151CD6E60C0CCFF1200C8A486
:1019F80008D0C89000016151C76E60C0C6FFC8809A
:101A0800120000016151C76E60C0C6FF1200FACF14
:101A180004F0FBCF05F00E01C1B3C9A302D0C6EC98
:101A28000CF005C0FBFF04C0FAFF57921100960E98
:101A3800066E1B0E076EB0EC0DF084948984680E58
:101A4800066E170E076EB5EC0DF01200000E0E01B3
:101A5800DC6F000EDD6F000EDE6F000EDF6F000E14
:101A6800E06F000EE16F1200CEA407D0CE900750B1
:101A7800CD6E06C0CCFFCE8012000750CD6E06C0DA
:101A8800CCFF1200C8A407D0C8900750C76E06C084
:101A9800C6FFC88012000750C76E06C0C6FF1200F6
:101AA800600E0E01D36F000ED56F000ED76F080EB3
:101AB800D96F000ED86F12000001606F640E00012C
:101AC800606502D0640E606F60C0C1F01200000152
:101AD800616F61C05AFF60C057FF0F015B8F120032
:101AE800F28A0E01B983B991B995BB91B599B691AE
:101AF80012000F0115A51200B3EC0CF0120060C023
:101B080050F061C051F0120060C03AF061C03BF083
:101B1800120060C0D6F061C0D7F0120060C03EF07D
:101B280061C03FF0120060C044F061C045F012008F
:101B380060C0D2F061C0D3F0120060C0D4F061C0C0
:101B4800D5F0120060C0D0F061C0D1F0120060C0C2
:101B580042F061C043F0120006C03EF007C03FF0FB
:101B6800120006C044F007C045F0120006C03AF063
:0B1B780007C03BF0120010FF0AE7114D
:101B8400CE801200C8801200CE801200C8801200DD
:0A1B940012001200120012001200ED
:020000040020DA
:10000000FFFFFFFFFFFFFFFFFFFFFFFFFFFFFFFF00
:10001000FFFFFFFFFFFFFFFFFFFFFFFFFFFFFFFFF0
:10002000FFFFFFFFFFFFFFFFFFFFFFFFFFFFFFFFE0
:10003000FFFFFFFFFFFFFFFFFFFFFFFFFFFFFFFFD0
:10004000FFFFFFFFFFFFFFFFFFFFFFFFFFFFFFFFC0
:10005000FFFFFFFFFFFFFFFFFFFFFFFFFFFFFFFFB0
:10006000FFFFFFFFFFFFFFFFFFFFFFFFFFFFFFFFA0
:10007000FFFFFFFFFFFFFFFFFFFFFFFFFFFFFFFF90
:10008000FFFFFFFFFFFFFFFFFFFFFFFFFFFFFFFF80
:10009000FFFFFFFFFFFFFFFFFFFFFFFFFFFFFFFF70
:1000A000FFFFFFFFFFFFFFFFFFFFFFFFFFFFFFFF60
:1000B000FFFFFFFFFFFFFFFFFFFFFFFFFFFFFFFF50
:1000C000FFFFFFFFFFFFFFFFFFFFFFFFFFFFFFFF40
:1000D000FFFFFFFFFFFFFFFFFFFFFFFFFFFFFFFF30
:1000E000FFFFFFFFFFFFFFFFFFFFFFFFFFFFFFFF20
:1000F000FFFFFFFFFFFFFFFFFFFFFFFFFFFFFFFF10
:020000040030CA
:0C0000008CFFFFFF9FFFFFFFFFFFFFFFD3
:00000001FF
