:020000040000FA
:0400000051EF00F0CC
:060008005782D8EF0EF054
:100018005780D8CF31F0E8CF32F0E0CF33F0FACFC5
:1000280034F0FBCF35F0D9CF36F0DACF37F0F3CF55
:1000380038F0F4CF39F00E01C1B1C9A103D0F4EC06
:100048000DF017D0C1B5C9A503D0DCEC0DF011D067
:10005800C3B1CBA103D051EC0EF00BD0BDB9C5A9EB
:1000680003D059EC0FF005D0BEB1C6A102D0B6EC52
:100078000EF039C0F4FF38C0F3FF37C0DAFF36C0DE
:10008800D9FF35C0FBFF34C0FAFF33C0E0FF32C0F0
:0E009800E8FF31C0D8FF579010007DEF0CF04C
:10080000000A2A2A2A2A2A2A2A2A2A2A204E455730
:10081000205343414E202A2A2A2A2A2A2A2A2A2ACF
:070820000A0025640A000034
:100828001750800B206E17501724266E16BE268090
:100838002650D8B40DD02628D8A408D0000E146E9F
:10084800000E156E000E166E000E176E168E08D06E
:10085800000E146E000E156E000E166E000E176E4A
:100868001B50800B201A1B501B24256E1ABE258096
:100878002550D8B40DD02528D8A408D0000E186E5D
:10088800000E196E000E1A6E000E1B6E1A8E08D01E
:10089800000E186E000E196E000E1A6E000E1B6EFA
:1008A8002550D8B403D02650D8A409D0000E146E11
:1008B800000E156E000E166E000E176E12001A50FE
:1008C8001402F3CF2BF0F4CF2CF02B50216E226AB8
:1008D800236A246A2C50276E286A296A2A6A1950C2
:1008E8001502F3CF2BF0F4CF2CF02B502126000E5D
:1008F8002222232224222C502726000E28222922B5
:100908002A2218501602F3CF2BF0F4CF2CF02B50DC
:100918002126000E2222232224222C502726000ED4
:10092800282229222A2223C024F022C023F021C011
:1009380022F0216A18501502F3CF2BF0F4CF2CF0D7
:100948002B5021262C502222000E2322000E242276
:1009580019501402F3CF2BF0F4CF2CF02B50212692
:100968002C502222000E2322000E242223C024F021
:1009780022C023F021C022F0216A18501402F3CFBC
:100988002BF0F4CF2CF02B5021262C502222000ED5
:100998002322000E24221A501502F3CF2BF0F4CF95
:1009A8002CF02B5027262C502822000E2922000E2E
:1009B8002A2219501602F3CF2BF0F4CF2CF02B502B
:1009C80027262C502822000E2922000E2A221A50EF
:1009D8001602F3CF2BF0F4CF2CF02B501C6E2C50BA
:1009E8001D6E1E6A1F6A1EC01FF01DC01EF01CC0AF
:1009F8001DF01C6A1C5027261D5028221E50292233
:100A08001F502A2221C01CF022C01DF023C01EF056
:100A180024C01FF0190E05D0D8901F321E321D3287
:100A28001C32E82EF9D71C5027261D5028221E50AC
:100A380029221F502A2223C024F022C023F021C0DB
:100A480022F0216A255026C01CF01D6A1C26000EC3
:100A58001D22820E1C242B6EFF0E1D202C6E0FD023
:100A6800D8902736283629362A3624BE2780D890AB
:100A780021362236233624362B06D8A02C0629AE5A
:100A8800EFD7000E256E24AE17D0FF0E21141C6E72
:100A9800FF0E22141D6EFF0E23141E6E7F0E2414EB
:100AA8001F6E1C501D101E101F10D8B403D0010E4D
:100AB800256E02D027B0FBD72550D8B41FD0010E21
:100AC8002726000E282229222A222AA017D027C04A
:100AD8001CF028C01DF029C01EF02AC01FF01F34CA
:100AE8001F321E321D321C321CC027F01DC028F0D8
:100AF8001EC029F01FC02AF02B4A2C2A2CBE0DD06C
:100B08002C5003E12B28D8A008D0000E276E000E29
:100B1800286E800E296E7F0E20D02CBE05D02C505A
:100B28000EE12B04D8B00BD0000E276E000E286EF5
:100B3800000E296E000E2A6E000E206E0FD02BC0FC
:100B480026F0FF0E2716FF0E28167F0E2916000E18
:100B58002A1626B0298ED89026302A6E20502A12BE
:100B680027C014F028C015F029C016F02AC017F0C5
:100B780012007FC097F080C098F081C099F082C0C1
:100B88009AF083C09BF084C09CF085C09DF086C01D
:100B98009EF000019EAF02D0010E01D0000E956FAD
:100BA800966B95519611D8B410D09E1F9D1F9C1F0F
:100BB8009B1F9A1F991F981F976D000E98239923C2
:100BC8009A239B239C239D239E23D4AFD593D4BFE4
:100BD80005D0D45108E1D305D8B005D0000E926FE6
:100BE800010E916F04D0D3C091F0D4C092F0D1C05F
:100BF80093F0D2C094F095519611D8A402D0D5A5FF
:100C080003D09307D8A09407000EA06F1F0E9F6F04
:100C1800000EF96F7DD09F07D8A0A007DA0E9F2598
:100C2800D96E000EA021DA6E97C060F098C061F00E
:100C380099C062F09AC063F09BC064F09CC065F0F4
:100C48009DC066F09EC067F00A0E686F000E696F5F
:100C5800000E6A6F000E6B6F000E6C6F000E6D6FEA
:100C6800000E6E6F000E6F6FE8EC08F060C087F042
:100C780061C088F062C089F063C08AF064C08BF0FC
:100C880065C08CF066C08DF067C08EF087C072F0CA
:100C980089C073F076EC0DF000017251300FDF6EF1
:100CA8009107D8A092079307D8A0940797C060F03F
:100CB80098C061F099C062F09AC063F09BC064F07C
:100CC8009CC065F09DC066F09EC067F00A0E686F14
:100CD800000E696F000E6A6F000E6B6F000E6C6F6E
:100CE800000E6D6F000E6E6F000E6F6FA3EC07F0B5
:100CF80060C097F061C098F062C099F063C09AF044
:100D080064C09BF065C09CF066C09DF067C09EF013
:100D18000001A0BF1FD0A05103E19F05D8A01AD0A1
:100D28009751981199119A119B119C119D119E111F
:100D3800D8A471D792BF05D0925102E19105D8B0DD
:100D48006AD794BF07D0945103E19305D8A002D085
:100D5800D5B361D795519611D8A402D0D5A517D08F
:100D68009F07D8A0A00795519611D8A404D0000ECB
:100D7800906F2B0E03D0000E906F2D0E8F6FDA0E32
:100D88009F25D96E000EA021DA6E8FC0DFFF7DC0CF
:100D980072F07EC073F0DA0E9F25746F000EA021EA
:100DA800756F93C076F094C077F0F5EC0AF072C0D6
:100DB8007DF073C07EF01200A3C0D9FFA4C0DAFF93
:100DC800DECFF6FFDDCFF7FF0800F550250AD8A4DF
:100DD8009BD0A3C0D9FFA4C0DAFFDE2A000EDD2213
:100DE800000E0001D26F000ED16FD1C0D5F0D2C075
:100DF800D6F0D369D469A3C0D9FFA4C0DAFFDECF87
:100E0800F6FFDDCFF7FF0800F550640AD8B40DD01F
:100E1800A3C0D9FFA4C0DAFFDECFF6FFDDCFF7FF0E
:100E28000800F550690AD8A43FD0A3C0D9FFA4C0D0
:100E3800DAFFDE2A000EDD22A5C0D9FFA6C0DAFF40
:100E4800DFCFA7F0020EDE26DFCFA8F0000EDD22EE
:100E5800A7C0D9FFA8C0DAFFDECFA9F0DDCFAAF07E
:100E6800000EAABFFF0EAB6FAC6FAD6FAE6FAF6F6A
:100E7800B06FA1C07DF0A2C07EF0A9C07FF0AAC06B
:100E880080F0ABC081F0ACC082F0ADC083F0AEC0E2
:100E980084F0AFC085F0B0C086F0BDEC05F07DC031
:100EA800A1F07EC0A2F01200A3C0D9FFA4C0DAFF4F
:100EB800DECFF6FFDDCFF7FF0800F550250AD8A4EE
:100EC80017D0A3C0D9FFA4C0DAFFDE2A000EDD22A6
:100ED800000E636F250E626FA1C064F0A2C065F0BA
:100EE80044EC0BF0000E0001A26F010EA16F12007E
:100EF800A3C0D9FFA4C0DAFFDE2A000EDD22000E4F
:100F0800A26F000EA16F1200A3C0D9FFA4C0DAFF20
:100F1800DECFF6FFDDCFF7FF0800F5500001626F66
:100F2800636BA1C064F0A2C065F044EC0BF0A3C0F1
:100F3800D9FFA4C0DAFFDE2A000EDD22D3D7000EC7
:100F48000001716F6FAF12D06F1F6E1F6D1F6C1F86
:100F58006B1F6A1F691F686D000E69236A236B2364
:100F68006C236D236E236F23010E716F67AF12D050
:100F7800671F661F651F641F631F621F611F606D07
:100F8800000E61236223632364236523662367239A
:100F9800010E711B20EE72F0070EDE6AE806FDE214
:100FA800685169116A116B116C116D116E116F1115
:100FB800D8B446D0010E706F0AD0D8906837693718
:100FC8006A376B376C376D376E376F37702B6FAF8B
:100FD800F4D7D890723773377437753776377737D1
:100FE800783779376851605D695161596A5162593A
:100FF8006B5163596C5164596D5165596E516659FD
:101008006F516759D8A011D06851605F6951615B11
:101018006A51625B6B51635B6C51645B6D51655BDC
:101028006E51665B6F51675B7281D8906F336E3318
:101038006D336C336B336A3369336833702FC9D7B8
:101048007151D8B410D0791F781F771F761F751F7C
:10105800741F731F726D000E732374237523762318
:1010680077237823792372C060F073C061F074C06D
:1010780062F075C063F076C064F077C065F078C040
:1010880066F079C067F012000E6E0E50D8A409AE53
:101098001AD006C00AF007C00BF008C00CF009C04F
:1010A8000DF00A1E0B1E0C1E0D1E0A2A000E0B2226
:1010B8000C220D220AC010F00BC011F00CC012F067
:1010C8000DC013F008D006C010F007C011F008C01A
:1010D80012F009C013F00650071008100910D8A420
:1010E80009D0000E066E000E076E000E086E000E88
:1010F800096E1200960E0F6E06D00F2AD890133282
:10110800123211321032000E10140A6E000E111431
:101118000B6E000E12140C6EFE0E13140D6E0A5098
:101128000B100C100D10D8B40DD0E7D70F2A010EF4
:101138001026000E112212221322D89013321232D6
:1011480011321032000E10140A6E000E11140B6EBC
:10115800000E12140C6EFF0E13140D6E0A500B10B5
:101168000C100D10D8B407D0E1D70F06D890103660
:1011780011361236133612BE03D0020E0F60F5D7A1
:101188000FA0129ED8900F320FC00AF00B6A0C6A9B
:101198000D6A0AC00DF00C6A0B6A0A6A0A5010122E
:1011A8000B5011120C5012120D5013120E50D8A4DD
:1011B80009AE01D0138E10C006F011C007F012C09E
:1011C80008F013C009F01200000E0001716F67AF3C
:1011D80012D0671F661F651F641F631F621F611F90
:1011E800606D000E612362236323642365236623F5
:1011F8006723010E716F6FAF10D06F1F6E1F6D1FC9
:101208006C1F6B1F6A1F691F686D000E69236A23B4
:101218006B236C236D236E236F23685169116A1148
:101228006B116C116D116E116F11D8B43CD0010E99
:10123800706F0AD0D890683769376A376B376C3760
:101248006D376E376F37702B6FAFF4D76851605DAD
:10125800695161596A5162596B5163596C516459AA
:101268006D5165596E5166596F516759D8A010D0A4
:101278006851605F6951615B6A51625B6B51635B86
:101288006C51645B6D51655B6E51665B6F51675B5A
:10129800D8906F336E336D336C336B336A33693385
:1012A8006833702FD3D77151D8B410D0671F661F19
:1012B800651F641F631F621F611F606D000E61233D
:1012C80062236323642365236623672360C060F079
:1012D80061C061F062C062F063C063F064C064F032
:1012E80065C065F066C066F067C067F012005CD044
:1012F800010ECA6F82808282000ED86F000ED76FEF
:101308001200D74BD82B82808282D8BF1200D851C6
:1013180004E1640ED75DD8A01200020ECA6F000E59
:10132800D86F000ED76F1200D74BD82BCD51016E56
:10133800026AD751015C0250800A036ED851800AB4
:101348000358D8A08290CE51016E026AD751015C31
:101358000250800A036ED851800A0358D8A082929E
:10136800D8BF1200D85104E1640ED75DD8A012008E
:10137800030ECA6F000ED86F000ED76F1200D74B3E
:10138800D82B82908292D8BF1200080ED75D070E24
:10139800D859D8A01200010ECA6F000ED86F000EDF
:1013A800D76F8280829212000001CA51016E026AD0
:1013B8000250000AD8A412000150000AD8B498D7E5
:1013C800010AD8B49ED7030AD8B4AED7010AD8A464
:1013D8001200D5D767EC0EF0F28CF28EF28C90ECFE
:1013E8000DF05BEC0DF0000E2DEC0FF0000EC4ECD0
:1013F8000DF0000E0001C66F000EC56FE7EC0BF094
:10140800050E0001C26F0F0EC16FF10EE82EFED758
:10141800C12FFCD7C22FFAD70001C54BC62BC6BFB8
:10142800EDD7C65104E1080EC55DD8A0E7D7000E78
:10143800606F010E616FA3EC0AF0000E0001C86F27
:10144800000EC76F220EB96F080EBA6FD890C73555
:10145800D96EC835DA6E000ED926010EDA22DECF33
:10146800BBF0DDCFBCF07CEC0EF0020E0001C7250E
:10147800C76F000EC821C86FC8BFE4D7C85104E1C0
:10148800800EC75DD8A0DED7010EB96F080EBA6FFF
:101498007CEC0EF0AED70E01BE9184A202D0010EF4
:1014A80001D0000EFF0A086E084684500818FD0B8C
:1014B8000818846E22EE00F0DF50D8B40BD023EE6B
:1014C80002F0DECF08F0DDCF09F0810E0824D96ED6
:1014D800020E0AD023EE02F0DECF08F0DDCF09F0CD
:1014E800010E0824D96E020E0920DA6E5FCFDFFFE5
:1014F80023EE02F0DE2A000EDD2223EE02F0010EBA
:10150800DBBE0DD0010EDB5004E1800EDE5CD8A0FE
:1015180006D0020EE8CF01F38392839412008392DF
:10152800F60E066E160E076E96EC0FF052C006F019
:1015380053C007F013EC0FF0A2EC0FF0120022EEEC
:1015480000F0DF50D8B426D0000E0001656F000E01
:10155800646F010E6425D96E020E6521DA6EDF50C4
:10156800626F636BD8906435D96E6535DA6E6051F9
:10157800D9266151DA2262C0DEFF63C0DDFF644B09
:10158800652B65BFE6D765512BE1800E645DD8B049
:101598001200DFD7000E0001676F000E666F810E24
:1015A8006625D96E020E6721DA6EDF50626F636BB3
:1015B800D8906635D96E6735DA6E6051D926615193
:1015C800DA2262C0DEFF63C0DDFF664B672B67BFB0
:1015D800E6D7675105E1800E665DD8B01200DFD707
:1015E80012000001D5A10AD074C06BF075C06CF070
:1015F80072C06DF073C06EF03DEC0DF0000177BF66
:1016080005D076C07BF077C07CF004D0000E7C6FEC
:10161800000E7B6F000E7A6F000E796F0DD0000EF2
:10162800636F200E626F72C064F073C065F044ECA3
:101638000BF00001794B7A2B7B51795D7A51800A46
:10164800786F7C51800A7859D8A0E9D7D5B10AD0EB
:1016580074C06BF075C06CF072C06DF073C06EF042
:101668003DEC0DF074C060F075C061F00CEC0EF04C
:1016780000017B516025726F7C516121736F1200EC
:10168800000164516511D8B404D064516511D8A41F
:1016980004D0625152EC0FF0120020EE04F06451B5
:1016A800D9266551DA22DE50DE10D8B416D020EEE5
:1016B80004F06451D9266551DA2210EE02F0645123
:1016C800E1266551E222DE50E65CE650800A6A6F48
:1016D800DE50800A6A59D8B0120020EE02F0645138
:1016E800D9266551DA22DE2A000EDD221200480EC4
:1016F800066E1F0E076E96EC0FF084A202D0010E44
:1017080001D0000EFF0A086E084684500818FD0B29
:101718000818846E23EE01F0DF50D8A414D0010E0F
:10172800E8CF01F38394839252C006F053C007F0C8
:1017380013EC0FF0F60E066E160E076E96EC0FF011
:10174800A2EC0FF0120001C3E8FF010AD8A41200AE
:1017580083820E01BE810F015B811200000E826E32
:10176800000E836E000E846EF00E876EF90E886E82
:101778003D0E896E3B0E0F011C6FF90E146FFA0EA9
:101788000C6F000E286F000E136F000E0B6F000E0B
:101798001B6F000E0A6F000E126F000E1A6F096998
:1017A800116919691595169517854C0E0001606F1A
:1017B8001F0E616F73EC0FF00E01BD89120EAA6F38
:1017C800090EF86F120001C3E8FF020AD8A412003C
:1017D800000EE8CF01F3000EE8CF02F3000EE8CFC9
:1017E80003F322EE00F0DF50D8A404D00001626BAE
:1017F800622B02D00001626B62C000F28384100E7B
:10180800E82EFED78382F60E0001606F160E616F18
:1018180064EC0FF052C060F053C061F0C8EC0EF0F9
:101828009EEC0FF00F015B8F0E01BE9112002DC0D0
:101838004EF02EC04FF0000E4D6E010E486E0E0198
:10184800C39182942DC006F02EC007F0086A096A79
:10185800000E48EC08F006C014F007C015F008C0E8
:1018680016F009C017F0BC0E186E740E196E130E20
:101878001A6E3C0E1B6E14EC04F014C049F015C02F
:101888004AF016C04BF017C04CF0010E486E000E1F
:101898004D6E1200000E506E000E516E000E0F01BC
:1018A800546F000E556F000E566F000E516F000EEC
:1018B800606E000E526F000E536F000E586F000ED0
:1018C800596F000E576F000E5A6F000E616E000EB2
:1018D800656E000E666E000E676E000E686E000E76
:1018E800636E000E646E900E5B6F0E01C691BE8132
:1018F8001200360EF66E1F0EF76E000EF86E00EE32
:1019080052F010EE05F00900F5CFEEFFE550E1507A
:10191800FAE102EE00F011EE04F0EE6AE550E15053
:10192800FCE1E250FAE100EEC9F0310EEE6AE80699
:10193800FDE100EE48F00A0EEE6AE806FDE1579078
:101948005792000EF86E0001EEEF09F0B3C0B7F041
:10195800B4C0B8F0000E0001D06F000ECF6F13D0E6
:10196800B1C0A1F0B2C0A2F0B70EA36F000EA46F71
:10197800B5C0A5F0B6C0A6F0E0EC06F00001A15194
:10198800CF27A251D023B7C0F6FFB8C0F7FF080091
:10199800F5500009D8A4E4D7CFC0B1F0D0C0B2F058
:1019A8001200000ECF6E000ED06E010ED16E630EC7
:1019B800CD6EC00ECC6ECC50CDCF62F00001636B03
:1019C80062C063F0626B6211426E6351436E0E0136
:1019D800C991C1814A0E0001606F1F0E616F6EECE4
:1019E8000FF0330ECE6E1200080E9E6E800E9C6EA7
:1019F800240E9D6E820E9A6E060E9B6E000E0001DE
:101A0800606F000E616F7DEC0FF0000E0001606FDB
:101A1800000E616F78EC0FF0000E0001606F000E91
:101A2800616F82EC0FF0000E0001D96F1200000EFA
:101A3800C96E000ECA6E010ECB6EC768100EC66E58
:101A4800C650C7CF62F00001636B62C063F0626B7F
:101A580062113C6E63513D6E0E01C995C185480EF9
:101A68000001606F1F0E616F64EC0FF0030EC86E0B
:101A78001200000E0001716F000E706F0CD06FC065
:101A880062F0636B6DC064F06EC065F044EC0BF0FF
:101A98000001704B712B70516B25D96E71516C21FF
:101AA800DA6EDF506F6F6F51D8B41200E8D78394A5
:101AB8008392889488929E0E0001606F140E616F65
:101AC8005FEC0FF0020E0001606F0B0E38EC0FF0A8
:101AD800000EE8CF02F3000EE8CF03F3020EE8CFC2
:101AE80001F31200000173BF05D0735110E17205B4
:101AF800D8B00DD072C074F073C075F0741F751F24
:101B0800744B752B74C072F075C073F0120072C0FC
:101B180072F073C073F01200000E0001CA6F000E5D
:101B28002DEC0FF0000EC4EC0DF0320E0001CE6F5C
:101B3800F60E606F120E616F69EC0FF0000E000177
:101B4800D86F000ED76F010EC96F12004C0E066ECB
:101B58001F0E076E91EC0FF04A0E066E1F0E076EF1
:101B68008CEC0FF0000E076E000E066E05EC0FF001
:101B7800A0EC0FF08284000E0E01CB6FC38112001F
:101B88000001606F00016051800A9E0FD8B002D03A
:101B9800E20E606F6051800A630FD8A002D01C0E5D
:101BA800606F6051110F606F6051320FCE6F12007D
:101BB8000E01C9953CC006F03DC007F013EC0FF0CC
:101BC8003A503B10D8B4120001D812000500FA6E42
:101BD8003A50FD6E3B50FE6EF850FF6EFA50120000
:101BE8000E01C99142C006F043C007F005EC0FF0A2
:101BF80040504110D8B4120001D812000500FA6E06
:101C08004050FD6E4150FE6EF850FF6EFA501200C3
:101C180060C062F061C063F003D00001604B612BCB
:101C280060C0D9FF61C0DAFFDF50D8A4F6D7000141
:101C38006251605D606F63516159616F1200010EFE
:101C4800BE6E000EBD6E000EBF6E000EBB6E000EA7
:101C5800BA6E0E01C993C183500E0001606F1F0E4A
:101C6800616F69EC0FF0F00EBC6E1200840EAB6E63
:101C7800000EAC6E000EAA6E000EA96E4E0E00018C
:101C8800606F1F0E616F87EC0FF0AD50FC0B010900
:101C9800AD6E0E01CB91C38112000E01CB91A9CF7D
:101CA8002FF0AACF30F02FC02DF030C02EF001D881
:101CB80012000500FA6E4450FD6E4550FE6EF85055
:101CC800FF6EFA50120041EC0FF0F7EC0EF0B2EC98
:101CD8000BF021EC0FF04EEC0CF01BEC0DF03AEC95
:101CE8000EF023EC0EF0D5EC0CF0F8EC0CF0120032
:101CF800BB0E0001BF6F000EC06F000EB16F000E6B
:101D0800B26FB9C0B3F0BAC0B4F0BF0EB56F000E71
:101D1800B66FAAEC0CF0120046504710D8B40CD09D
:101D280001D80AD00500FA6E4650FD6E4750FE6E87
:101D3800F850FF6EFA5012000F01159512000E01AF
:101D4800C9930001FE51FF11D8B4120001D8120046
:101D58000500FA6EFE51FD6EFF51FE6EF850FF6EE3
:101D6800FA5012000E01C69150505110D8B412000A
:101D780001D812000500FA6E5050FD6E5150FE6EEB
:101D8800F850FF6EFA501200C8A408D0C89000019D
:101D98006151C76E60C0C6FFC88012000001615162
:101DA800C76E60C0C6FF1200FACF04F0FBCF05F083
:101DB8000E01C1B3C9A302D0A3EC0EF005C0FBFF0E
:101DC80004C0FAFF579211004A0E066E1F0E076EE6
:101DD8008CEC0FF084948984540E066E1B0E076EEB
:101DE80091EC0FF01200000E0E01DC6F000EDD6F9B
:101DF800000EDE6F000EDF6F000EE06F000EE16F69
:101E08001200CEA407D0CE900750CD6E06C0CCFFEE
:101E1800CE8012000750CD6E06C0CCFF1200C8A4B9
:101E280007D0C8900750C76E06C0C6FFC88012000A
:101E38000750C76E06C0C6FF1200600E0E01D36FB2
:101E4800000ED56F000ED76F080ED96F000ED86F31
:101E580012000001606F640E0001606502D0640E1C
:101E6800606F60C0CDF012000001616F61C05AFF61
:101E780060C057FF0F015B8F1200F28A0E01B98311
:101E8800B991B995BB91B599B69112000001606FEF
:101E98000E01C8A9FDD760C099FF12000001616F4B
:101EA800000161514AEC0FF012000F0115A5120054
:101EB80090EC0EF0120060C050F061C051F01200BA
:101EC80060C03AF061C03BF0120060C0FEF061C033
:101ED800FFF0120060C040F061C041F0120060C025
:101EE80046F061C047F0120060C0FAF061C0FBF034
:101EF800120060C0FCF061C0FDF0120060C03EF04E
:101F080061C03FF0120060C044F061C045F01200AB
:101F180006C040F007C041F0120006C046F007C0F6
:101F280047F0120006C03AF007C03BF0120010FF5D
:031F38001CE21197
:101F3C00C8801200CE801200C8801200120012005D
:061F4C0012001200120059
:020000040020DA
:10000000FFFFFFFFFFFFFFFFFFFFFFFFFFFFFFFF00
:10001000FFFFFFFFFFFFFFFFFFFFFFFFFFFFFFFFF0
:10002000FFFFFFFFFFFFFFFFFFFFFFFFFFFFFFFFE0
:10003000FFFFFFFFFFFFFFFFFFFFFFFFFFFFFFFFD0
:10004000FFFFFFFFFFFFFFFFFFFFFFFFFFFFFFFFC0
:10005000FFFFFFFFFFFFFFFFFFFFFFFFFFFFFFFFB0
:10006000FFFFFFFFFFFFFFFFFFFFFFFFFFFFFFFFA0
:10007000FFFFFFFFFFFFFFFFFFFFFFFFFFFFFFFF90
:10008000FFFFFFFFFFFFFFFFFFFFFFFFFFFFFFFF80
:10009000FFFFFFFFFFFFFFFFFFFFFFFFFFFFFFFF70
:1000A000FFFFFFFFFFFFFFFFFFFFFFFFFFFFFFFF60
:1000B000FFFFFFFFFFFFFFFFFFFFFFFFFFFFFFFF50
:1000C000FFFFFFFFFFFFFFFFFFFFFFFFFFFFFFFF40
:1000D000FFFFFFFFFFFFFFFFFFFFFFFFFFFFFFFF30
:1000E000FFFFFFFFFFFFFFFFFFFFFFFFFFFFFFFF20
:1000F000FFFFFFFFFFFFFFFFFFFFFFFFFFFFFFFF10
:020000040030CA
:0C0000008CFFFFFF9FFFFFFFFFFFFFFFD3
:00000001FF
