:020000040000FA
:040000004CEF00F0D1
:100008005282FACF04F0FBCF05F0D9CF06F0DACF51
:1000180007F0F3CF08F0F4CF09F0F6CF0AF0F7CFE6
:100028000BF0F8CF0CF0F5CF0DF0F2AC1BD00E01B1
:10003800C0B3C8A308D001D815D00500FA6E4F5038
:10004800FD6E50500AD0C0B1C8A10CD001D80AD05A
:100058000500FA6E4D50FD6E4E50FE6EF850FF6E64
:10006800FA5012000DC0F5FF0CC0F8FF0BC0F7FFE7
:100078000AC0F6FF09C0F4FF08C0F3FF07C0DAFFA3
:1000880006C0D9FF05C0FBFF04C0FAFF5292110059
:0400980054EF0DF024
:1008000000DA1B9E1B8E1B3C175E18CE1BE01816D1
:100810001C0E1C061CFE1BF61BEE1BE61BAE1BA2D1
:10082000190066EC0DF0000E0001876F010E866F57
:100830001E0EBFEC0DF00A0E126E290E9EEC0DF08E
:10084000060E0001816F130E806FAD0EE82EFED7ED
:10085000802FFCD7812FFAD700D000018651871155
:10086000D8B47BD1000E8D6F000E8C6F000E8D6F93
:10087000000E8C6F8C5143EC0BF0140E0001806F56
:10088000790EE82EFED7802FFCD700D000018C4BCC
:100890008D2B8DBFEFD78D5104E1640E8C5DD8A0F8
:1008A000E9D7000E8D6F000E8C6F8C51640843ECFD
:1008B0000BF0140E0001806F790EE82EFED7802F0A
:1008C000FCD700D000018C4B8D2B8DBFEED78D5106
:1008D00004E1640E8C5DD8A0E8D7000E8D6F000E89
:1008E0008C6F8CC00EF08DC00FF0000E0FBEFF0E8F
:1008F000106E116E010E45EC0AF00EC01CF00FC018
:100900001DF010C01EF011C01FF0000E206E000E72
:10091000216EC80E226E420E236E01EC09F01CC03F
:1009200088F01DC089F01EC08AF01FC08BF088C0FF
:100930007BF089C07CF08AC07DF08BC07EF0E7EC54
:100940000BF0030E0001806F970EE82EFED7802F6C
:10095000FCD700D000018C4B8D2B8DBFC2D78D51A1
:1009600004E1640E8C5DD8A0BCD7000E8D6F000E24
:100970008C6F640E806F000E816F8C51805F8D5183
:10098000815B80C00EF081C00FF0000E0FBEFF0E25
:10099000106E116E010E45EC0AF00EC01CF00FC077
:1009A0001DF010C01EF011C01FF0000E206E000ED2
:1009B000216EC80E226E420E236E01EC09F01CC09F
:1009C00088F01DC089F01EC08AF01FC08BF088C05F
:1009D0007BF089C07CF08AC07DF08BC07EF0E7ECB4
:1009E0000BF0030E0001806F970EE82EFED7802FCC
:1009F000FCD700D000018C4B8D2B8DBFBAD78D5109
:100A000004E1640E8C5DD8A0B4D7000E8D6F000E8B
:100A10008C6F8CC080F08DC081F0801F811F804B57
:100A2000812B80C00EF081C00FF0000E0FBEFF0EB4
:100A3000106E116E010E45EC0AF00EC01CF00FC0D6
:100A40001DF010C01EF011C01FF0000E206E000E31
:100A5000216EC80E226E420E236E01EC09F01CC0FE
:100A600088F01DC089F01EC08AF01FC08BF088C0BE
:100A70007BF089C07CF08AC07DF08BC07EF0E7EC13
:100A80000BF0030E0001806F970EE82EFED7802F2B
:100A9000FCD700D000018C4B8D2B8DBFBAD78D5168
:100AA00004E1640E8C5DD8A0B4D7000E8D6F000EEB
:100AB0008C6F9C0E806FFF0E816F8CC082F08DC09A
:100AC00083F0805182278151832382C00EF083C03E
:100AD0000FF0000E0FBEFF0E106E116E010E45ECF2
:100AE0000AF00EC01CF00FC01DF010C01EF011C0A7
:100AF0001FF0000E206E000E216EC80E226E420EF8
:100B0000236E01EC09F01CC088F01DC089F01EC0E6
:100B10008AF01FC08BF088C07BF089C07CF08AC04F
:100B20007DF08BC07EF0E7EC0BF0030E0001806FD0
:100B3000970EE82EFED7802FFCD700D000018C4BFB
:100B40008D2B8DBFB6D78D5104E1640E8C5DD8A07E
:100B5000B0D7000E876F000E866F000E43EC0BF0CF
:100B6000000E00017B6F000E7C6F000E7D6F000E8B
:100B70007E6FE7EC0BF00D0E0001806FFB0EE82E90
:100B8000FED7802FFCD700D0000E00017B6F000E37
:100B90007C6F000E7D6F000E7E6FE7EC0BF05DD674
:100BA0003850800B0001606F38503824666F37BEB4
:100BB00066816651D8B40DD06629D8A408D0000E3D
:100BC000356E000E366E000E376E000E386E378EA4
:100BD00008D0000E356E000E366E000E376E000E19
:100BE000386E3C50800B601B3C503C24616F3BBE18
:100BF00061816151D8B40DD06129D8A408D0000E0C
:100C0000396E000E3A6E000E3B6E000E3C6E3B8E4F
:100C100008D0000E396E000E3A6E000E3B6E000ECC
:100C20003C6E6151D8B403D06651D8A409D0000EEF
:100C3000356E000E366E000E376E000E386E1200E6
:100C40003B503502F3CF6BF0F4CF6CF06B51626F19
:100C5000636B646B656B6C51676F686B696B6A6B18
:100C60003A503602F3CF6BF0F4CF6CF06B51622741
:100C7000000E6323642365236C516727000E6823ED
:100C800069236A2339503702F3CF6BF0F4CF6CF04D
:100C90006B516227000E6323642365236C51672721
:100CA000000E682369236A2364C065F063C064F0A2
:100CB00062C063F0626B39503602F3CF6BF0F4CF51
:100CC0006CF06B5162276C516323000E6423000E9D
:100CD00065233A503502F3CF6BF0F4CF6CF06B51D3
:100CE00062276C516323000E6423000E652364C0E9
:100CF00065F063C064F062C063F0626B3950350226
:100D0000F3CF6BF0F4CF6CF06B5162276C5163231F
:100D1000000E6423000E65233B503602F3CF6BF0C8
:100D2000F4CF6CF06B5167276C516823000E692378
:100D3000000E6A233A503702F3CF6BF0F4CF6CF019
:100D40006B5167276C516823000E6923000E6A23DC
:100D50003B503702F3CF6BF0F4CF6CF06B513D6E2C
:100D60006C513E6E3F6A406A3FC040F03EC03FF06B
:100D70003DC03EF03D6A3D5067273E5068233F50DE
:100D8000692340506A2362C03DF063C03EF064C0F6
:100D90003FF065C040F0190E05D0D89040323F3288
:100DA0003E323D32E82EF9D73D5067273E5068234A
:100DB0003F50692340506A2364C065F063C064F00B
:100DC00062C063F0626B615166C03DF03E6A3D26D1
:100DD000000E3E22820E3D246B6FFF0E3E206C6F94
:100DE0000FD0D8906737683769376A3765BF678132
:100DF000D89062376337643765376B07D8A06C07C4
:100E000069AFEFD7000E616F65AF17D0FF0E6215A7
:100E10003D6EFF0E63153E6EFF0E64153F6E7F0E36
:100E20006515406E3D503E103F104010D8B403D0C1
:100E3000010E616F02D067B1FBD76151D8B41FD0EA
:100E4000010E6727000E682369236A236AA117D061
:100E500067C03DF068C03EF069C03FF06AC040F036
:100E6000403440323F323E323D323DC067F03EC0FA
:100E700068F03FC069F040C06AF06B4B6C2B6CBFF0
:100E80000DD06C5103E16B29D8A008D0000E676F1C
:100E9000000E686F800E696F7F0E20D06CBF05D08A
:100EA0006C510EE16B05D8B00BD0000E676F000ED1
:100EB000686F000E696F000E6A6F000E606F0FD0D2
:100EC0006BC066F0FF0E6717FF0E68177F0E69177D
:100ED000000E6A1766B1698FD89066316A6F6051EB
:100EE0006A1367C035F068C036F069C037F06AC071
:100EF00038F0120000017051800B456E7051702562
:100F0000476E6FBF47804750D8B40DD04728D8A44C
:100F100008D0000E6D6F000E6E6F000E6F6F000E2A
:100F2000706F6F8F06D0000E6D6F000E6E6F000E2B
:100F30006F6F000E706F7451800B466E45504618EF
:100F4000D8A4458C74517425466E73BF46804650B4
:100F5000D8B40DD04628D8A408D0000E716F000E6A
:100F6000726F000E736F000E746F738F06D0000ED9
:100F7000716F000E726F000E736F000E746F47502A
:100F8000465CD8B022D045AC02D0800E451A47C08E
:100F900048F046C047F048C046F06DC048F071C008
:100FA0006DF048C071F06EC048F072C06EF048C07D
:100FB00072F06FC048F073C06FF048C073F070C03B
:100FC00048F074C070F048C074F0000E486E47508E
:100FD00046C041F0426A415E000E425A42BE2CD0E9
:100FE000425004E11A0E415CD8A026D06D516E111A
:100FF0006F117011D8B402D0010E01D0000E486EEE
:10100000000E6D6F000E6E6F000E6F6F000E706F32
:1010100046C047F015D048A005D0D8904830010907
:10102000486E02D0D89048326DB1488E703570331A
:101030006F336E336D33472A4650475CD8A0EBD7E9
:1010400045BC28D04750D8A409D0000E6D6F000EC3
:101050006E6F000E6F6F000E706F120071516D2772
:1010600072516E2373516F237451702370A171D02C
:1010700048A005D0D89048300109486E02D0D890D9
:1010800048326DB1488E703570336F336E336D33C7
:10109000472A5FD071516D5D72516E5973516F590E
:1010A0007051800A416E7451800A4158D8B025D0E1
:1010B0006D51715D416E6E517259426E6F5173592F
:1010C000436E70517459446EFF0E41246D6FFF0ED4
:1010D00042206E6FFF0E43206F6FFF0E4420706F33
:1010E000800E451A486C4850D8A40FD0010E6D27C9
:1010F000000E6E236F23702308D071516D5F725103
:101100006E5B73516F5B7451705B6D516E116F113B
:101110007011D8A41CD04850D8A419D0000E6D6FFF
:10112000000E6E6F000E6F6F000E706F1200D89081
:101130006D376E376F37703748BE6D8148A002D06B
:10114000D88001D0D89048364750D8A447066FAF12
:10115000EED7000E466E48AE0BD048C041F07F0E71
:101160004116D8B403D0010E466E02D06DB1FBD744
:101170004650D8B420D0010E6D27000E6E236F2389
:10118000702370A118D06DC041F06EC042F06FC0E6
:1011900043F070C044F0443444324332423241326E
:1011A00041C06DF042C06EF043C06FF044C070F0BB
:1011B0004728D8A4472A4728D8B403D04750D8A4F2
:1011C0000DD0000E6D6F000E6E6F000E6F6F000E73
:1011D000706F4750D8A402D0000E456E47A002D0D1
:1011E0006F8F01D06F9FD8904730706F45BE708F62
:1011F0006DC06DF06EC06EF06FC06FF070C070F0BB
:1012000012001F50800B2C6E1F501F24336E1EBE09
:1012100033803350D8B40DD03328D8A408D0000E72
:101220001C6E000E1D6E000E1E6E000E1F6E1E8EBA
:1012300006D0000E1C6E000E1D6E000E1E6E000EFF
:101240001F6E2350800B2C1A23502324346E22BE91
:1012500034803450D8B40DD03428D8A408D0000E2F
:10126000206E000E216E000E226E000E236E228E66
:1012700006D0000E206E000E216E000E226E000EB3
:10128000236E2050211022102310D8A417D0000E56
:101290001C6E000E1D6E000E1E6E000E1F6E800E68
:1012A0001E127F0E1F122C501F121CC01CF01DC0DE
:1012B0001DF01EC01EF01FC01FF012003350D8A436
:1012C00009D0000E1C6E000E1D6E000E1E6E000E6C
:1012D0001F6E1200345033C024F0256A245E000EC5
:1012E000255A7F0E24242D6E000E25202E6E1CC044
:1012F00028F01DC029F01EC02AF01FC02BF0000EE0
:101300001C6E000E1D6E000E1E6E000E1F6E000E77
:101310002F6E000E306E000E316E000E326E000E1B
:10132000346E28D03450D8B411D0D890283629360D
:101330002A362B36D8901C361D361E361F3632BE46
:101340001C80D8902F363036313632362050285C0B
:101350002150295822502A5823502B58D8A009D060
:10136000328C2050285E2150295A22502A5A23506C
:101370002B5A342A190E3464D5D7285029102A1034
:101380002B10D8B411D02F800FD0D8901C361D361A
:101390001E361F3632BE1C80D8902F36303631367E
:1013A00032362D06D8A02E061EAEEFD7000E346EB4
:1013B00032AE17D0FF0E2F14246EFF0E3014256EA0
:1013C000FF0E3114266E7F0E3214276E2450251026
:1013D00026102710D8B403D0010E346E02D01CB0F2
:1013E000FBD73450D8B41FD0010E1C26000E1D228E
:1013F0001E221F221FA017D01CC024F01DC025F0E4
:101400001EC026F01FC027F027342732263225328F
:10141000243224C01CF025C01DF026C01EF027C0B9
:101420001FF02D4A2E2A2EBE10D02E5003E12D285B
:10143000D8A00BD0000E2E6E2D68000E1C6E000E74
:101440001D6E000E1E6E000E1F6E2EBE05D02E509D
:1014500011E12D04D8B00ED0000E2E6E000E2D6EB0
:10146000000E1C6E000E1D6E000E1E6E000E1F6E16
:10147000000E2C6E2DC033F033A002D01E8E01D092
:101480001E9ED89033301F6E0ED7166E1650D8A4FD
:1014900011AE1AD00EC012F00FC013F010C014F02D
:1014A00011C015F0121E131E141E151E122A000E56
:1014B00013221422152212C018F013C019F014C000
:1014C0001AF015C01BF008D00EC018F00FC019F0AC
:1014D00010C01AF011C01BF00E500F101010111098
:1014E000D8A409D0000E0E6E000E0F6E000E106E06
:1014F000000E116E1200960E176E06D0172AD890A5
:101500001B321A3219321832000E1814126E000EE5
:101510001914136E000E1A14146EFE0E1B14156EA1
:101520001250131014101510D8B40DD0E7D7172A85
:10153000010E1826000E19221A221B22D8901B32E7
:101540001A3219321832000E1814126E000E1914C5
:10155000136E000E1A14146EFF0E1B14156E12502B
:10156000131014101510D8B407D0E1D71706D8906F
:10157000183619361A361B361ABE03D0020E1760FB
:10158000F5D717A01A9ED890173217C012F0136A19
:10159000146A156A12C015F0146A136A126A12509E
:1015A00018121350191214501A1215501B121650FB
:1015B000D8A411AE01D01B8E18C00EF019C00FF0C8
:1015C0001AC010F01BC011F01200000177357835F9
:1015D0007A6F7A51D8A409D0000E756F000E766F1D
:1015E000000E776F000E786F120075C049F076C05C
:1015F0004AF077C04BF078C04CF0200E05D0D89060
:101600004C324B324A324932E82EF9D74950796F81
:10161000778FFF0E7517FF0E7617FF0E7717000EE8
:101620007817960E7A5F7AAF0DD07A51800A970FAD
:10163000D8A0D2D7D89078337733763375337A3FC2
:10164000F9D70DD01F0E7A6507D0C6D7D890753759
:101650007637773778377A077A51D8A4F7D7795120
:10166000D8B408D0781F771F761F756D000E7623CB
:101670007723782375C075F076C076F077C077F061
:1016800078C078F0120000017D6F00017D51B35DDC
:10169000D8A0B3C07DF0000E716F000E726FF80E0F
:1016A000736F410E746F000E396E000E3A6EF00EBD
:1016B0003B6E410E3C6E000E206E000E216EC80E79
:1016C000226E420E236E7D510E6E0F6A106A116AF1
:1016D000000E45EC0AF00EC01CF00FC01DF010C04B
:1016E0001EF011C01FF001EC09F01CC035F01DC048
:1016F00036F01EC037F01FC038F0D0EC05F035C012
:101700006DF036C06EF037C06FF038C070F07AEC14
:1017100007F06DC075F06EC076F06FC077F070C0E6
:1017200078F0E5EC0AF075C07BF076C07CF07BC009
:101730000EF07CC00FF03BEC0DF01200DFEC0DF072
:10174000D8B00AD02DD00BEC0EF0120007EC0EF042
:101750001200FFEC0DF01200ACC001F0ADC002F0C1
:1017600020EEA0F001D80AD00500FA6EDE50FD6E22
:10177000DE50FE6EF850FF6EFA501200026E036AE1
:101780000350000AD8A4E5D70250010AD8B4E1D723
:10179000030AD8B4D8D7010AD8B4D8D7070AD9D7FA
:1017A00000018E9790C0D9FF91C0DAFF904B912B2A
:1017B000DF500FEC0EF000019207D8A09307925172
:1017C0009311D8A402D0060E1200030E120051503D
:1017D0000E6E0F6A106A116A010E45EC0AF00EC017
:1017E00071F00FC072F010C073F011C074F07BC0C4
:1017F00039F07CC03AF07DC03BF07EC03CF0000187
:10180000B2510E6E0F6A106A116A010E45EC0AF0B1
:101810000EC035F00FC036F010C037F011C038F0F0
:10182000D0EC05F035C06DF036C06EF037C06FF00B
:1018300038C070F07AEC07F06DC075F06EC076F0CD
:101840006FC077F070C078F0E5EC0AF000017551D8
:101850007F6F7FC00EF00F6A22EC0DF0120027ECB4
:101860000EF090C0D9FF91C0DAFFDF6E0001904BFF
:10187000912B9207D8A0930792519311D8B404D01A
:1018800022EC0EF0050E12008E8506D0F3EC0DF062
:101890001200F7EC0DF01200A6C001F0A7C002F094
:1018A00020EE9AF001D80AD00500FA6EDE50FD6EE7
:1018B000DE50FE6EF850FF6EFA501200016E026AA2
:1018C0000250000AD8A4E5D70150010AD8B4E1D7E4
:1018D000030AD8B4DBD7010AD8B4D8D7070AD9D7B6
:1018E00000018E850AD003EC0EF012001CEC0EF005
:1018F000030E1200FFEC0DF01200A6C001F0A7C00D
:1019000002F020EE9AF001D80AD00500FA6EDE50FF
:10191000FD6EDE50FE6EF850FF6EFA501200016E42
:10192000026A0250000AD8A4E5D70150010AD8B4CF
:10193000E1D7030AD8B4D7D7010AD8B4D4D7070A55
:10194000D8B4D4D7D7D7000E826E000E836E000EA7
:10195000846EFC0E876E88688968E70E0F011C6F25
:1019600014690C69000E286F000E136F000E0B6FC8
:10197000000E1B6F000E0A6F000E126F000E1A6F22
:10198000096911691969140E0E01B36F0D0EF56F17
:101990000E0EF66F080EE36F130EB26F070EE26FB6
:1019A000120000018E97020E996F06D003EC0EF024
:1019B0001200FFEC0DF01200AAC001F0ABC002F063
:1019C00020EE9EF001D80AD00500FA6EDE50FD6EC2
:1019D000DE50FE6EF850FF6EFA501200016E026A81
:1019E0000250000AD8A4E5D70150020AD8B4DED7C5
:1019F000010AD8B4DBD7DDD719EC0EF000018EA7B1
:101A000007D0DFEC0DF0D8A003D00F0E0001986FC7
:101A100000019851020D010EF324F66E080EF42019
:101A2000F76E01D80CD00500FA6E0900F550FD6E76
:101A30000900F550FE6EF850FF6EFA5012000001DA
:101A4000986F12000EC010F00FC011F0D890113234
:101A50001032D890113210321050A06E0EC010F01B
:101A6000030E1016060E116ED8901036112EFCD7EC
:101A700010509F6E12000EC010F00FC011F0D890E1
:101A800011321032D890113210321050A36E0EC0A5
:101A900010F0030E1016060E116ED8901036112E8F
:101AA000FCD71050A26E120000EE8EF0260EEE6AE9
:101AB000E806FDE1516A506A4F6A4E6A4D6A5290DB
:101AC0005292000EF86E000111EF04F025EC0EF0BA
:101AD00084EC0DF0A3EC0CF092EC0DF0A9EC0DF001
:101AE000B4EC0DF075EC0DF01200010EBE6E000EA0
:101AF000BD6E000EBF6E9B0EBB6E000EBA6E0E0169
:101B0000C993F00EBC6E1200000E0E01DC6F000EC9
:101B1000DD6F000EDE6F000EDF6F000EE06F000E57
:101B2000E16F1200600E0E01D36F000ED56F000E34
:101B3000D76F020ED96F000ED86F1200136E13C04C
:101B400051F012C0B2F051C00EF00F6A22EC0DF04D
:101B50001200800EA16E0B0EA06E800E9F6EAD5017
:101B60003F0B4009AD6E1200800EA46E070EA36EEF
:101B7000800EA26EAD50CF0B1009AD6E12000001A9
:101B80007E6F000E43EC0BF07EC0B3F0120000013C
:101B90008E878F518F250FEC0EF0030E120000017F
:101BA0008E87D8808F350FEC0EF0050E120033ECC7
:101BB0000EF000018E91000E996F0E0E120096AC81
:101BC00003D0016A012A01D0016A0130120000012C
:101BD0008E9729EC0EF0040E120000018E91000E7B
:101BE000996F0E0E12001FEC0EF0090E12001FEC82
:101BF0000EF00A0E120022EC0EF0050E12002FEC71
:101C00000EF0000E120031EC0EF0010E120031EC5D
:101C10000EF0020E120031EC0EF0010E1200016EF9
:101C200001C091FF120016EC0EF012000E01C893D5
:101C300012000E01C89112000E01C8811200968A8E
:101C400096881200969A96881200F29A1200915085
:101C5000120096861200050E1200010E12009684E4
:081C600012009682120012002E
:020000040020DA
:10000000FFFFFFFFFFFFFFFFFFFFFFFFFFFFFFFF00
:10001000FFFFFFFFFFFFFFFFFFFFFFFFFFFFFFFFF0
:10002000FFFFFFFFFFFFFFFFFFFFFFFFFFFFFFFFE0
:10003000FFFFFFFFFFFFFFFFFFFFFFFFFFFFFFFFD0
:10004000FFFFFFFFFFFFFFFFFFFFFFFFFFFFFFFFC0
:10005000FFFFFFFFFFFFFFFFFFFFFFFFFFFFFFFFB0
:10006000FFFFFFFFFFFFFFFFFFFFFFFFFFFFFFFFA0
:10007000FFFFFFFFFFFFFFFFFFFFFFFFFFFFFFFF90
:10008000FFFFFFFFFFFFFFFFFFFFFFFFFFFFFFFF80
:10009000FFFFFFFFFFFFFFFFFFFFFFFFFFFFFFFF70
:1000A000FFFFFFFFFFFFFFFFFFFFFFFFFFFFFFFF60
:1000B000FFFFFFFFFFFFFFFFFFFFFFFFFFFFFFFF50
:1000C000FFFFFFFFFFFFFFFFFFFFFFFFFFFFFFFF40
:1000D000FFFFFFFFFFFFFFFFFFFFFFFFFFFFFFFF30
:1000E000FFFFFFFFFFFFFFFFFFFFFFFFFFFFFFFF20
:1000F000FFFFFFFFFFFFFFFFFFFFFFFFFFFFFFFF10
:020000040030CA
:0C000000ECFFFFFF9FFFFFFFFFFFFFFF73
:00000001FF
