:020000040000FA
:040000005AEF00F0C3
:100008005F82FACF2CF0FBCF2DF0D9CF2EF0DACFCC
:100018002FF0F3CF30F0F4CF31F00E01BDB9C5A900
:1000280003D0FAEC0AF034D0F2AC32D0C0B9C8A987
:1000380008D001D82DD00500FA6E5A50FD6E5B50DD
:100048000BD0C0BBC8AB0DD001D822D00500000131
:10005800FA6EA751FD6EA851FE6EF850FF6EFA5069
:100068001200BEB1C6A103D084EC0AF011D0C1B30E
:10007800C9A303D05EEC0AF00BD0C1B1C9A103D06B
:10008800D7EC09F005D0C3B1CBA102D034EC0AF00B
:1000980031C0F4FF30C0F3FF2FC0DAFF2EC0D9FF04
:1000A8002DC0FBFF2CC0FAFF5F92110018EF09F07A
:1000B8001250800B1B6E12501224216E11BE21802B
:1000C8002150D8B40DD02128D8A408D0000E0F6E26
:1000D800000E106E000E116E000E126E118E08D0FA
:1000E800000E0F6E000E106E000E116E000E126ED6
:1000F8001650800B1B1A16501624206E15BE208031
:100108002050D8B40DD02028D8A408D0000E136EE3
:10011800000E146E000E156E000E166E158E08D0A9
:10012800000E136E000E146E000E156E000E166E85
:100138002050D8B403D02150D8A409D0000E0F6E97
:10014800000E106E000E116E000E126E1200155089
:100158000F02F3CF26F0F4CF27F026501C6E1D6A4D
:100168001E6A1F6A2750226E236A246A256A145061
:100178001002F3CF26F0F4CF27F026501C26000EED
:100188001D221E221F2227502226000E232224224F
:10019800252213501102F3CF26F0F4CF27F0265072
:1001A8001C26000E1D221E221F2227502226000E6A
:1001B8002322242225221EC01FF01DC01EF01CC0B1
:1001C8001DF01C6A13501002F3CF26F0F4CF27F06D
:1001D80026501C2627501D22000E1E22000E1F220C
:1001E80014500F02F3CF26F0F4CF27F026501C2628
:1001F80027501D22000E1E22000E1F221EC01FF0B7
:100208001DC01EF01CC01DF01C6A13500F02F3CF56
:1002180026F0F4CF27F026501C2627501D22000E6A
:100228001E22000E1F2215501002F3CF26F0F4CF25
:1002380027F02650222627502322000E2422000EC3
:10024800252214501102F3CF26F0F4CF27F02650C0
:10025800222627502322000E2422000E2522155084
:100268001102F3CF26F0F4CF27F02650176E27504F
:10027800186E196A1A6A19C01AF018C019F017C04E
:1002880018F0176A175022261850232219502422D2
:100298001A5025221CC017F01DC018F01EC019F0F6
:1002A8001FC01AF0190E05D0D8901A321932183218
:1002B8001732E82EF9D71750222618502322195042
:1002C80024221A5025221EC01FF01DC01EF01CC07B
:1002D8001DF01C6A205021C017F0186A1726000E5E
:1002E8001822820E1724266EFF0E1820276E0FD0B4
:1002F800D89022362336243625361FBE2280D89041
:100308001C361D361E361F362606D8A0270624AEF4
:10031800EFD7000E206E1FAE17D0FF0E1C14176EFD
:10032800FF0E1D14186EFF0E1E14196E7F0E1F147B
:100338001A6E1750181019101A10D8B403D0010EDD
:10034800206E02D022B0FBD72050D8B41FD0010EA7
:100358002226000E23222422252225A017D022C0DF
:1003680017F023C018F024C019F025C01AF01A3469
:100378001A3219321832173217C022F018C023F077
:1003880019C024F01AC025F0264A272A27BE0DD006
:10039800275003E12628D8A008D0000E226E000EB0
:1003A800236E800E246E7F0E20D027BE05D02750E6
:1003B8000EE12604D8B00BD0000E226E000E236E7C
:1003C800000E246E000E256E000E1B6E0FD026C088
:1003D80021F0FF0E2216FF0E23167F0E2416000EA4
:1003E800251621B0248ED8902130256E1B50251259
:1003F80022C00FF023C010F024C011F025C012F065
:10040800120000016351800B6C6F635163256E6F9E
:1004180062BF6E816E51D8B40DD06E29D8A408D0B1
:10042800000E606F000E616F000E626F000E636F4A
:10043800628F06D0000E606F000E616F000E626F53
:10044800000E636F6751800B6D6F6C516D19D8A4E6
:100458006C8D675167256D6F66BF6D816D51D8B41E
:100468000DD06D29D8A408D0000E646F000E656FFA
:10047800000E666F000E676F668F06D0000E646F01
:10048800000E656F000E666F000E676F6E516D5D32
:10049800D8B022D06CAD02D0800E6C1B6EC06FF04D
:1004A8006DC06EF06FC06DF060C06FF064C060F03A
:1004B8006FC064F061C06FF065C061F06FC065F037
:1004C80062C06FF066C062F06FC066F063C06FF024
:1004D80067C063F06FC067F0000E6F6F6E516DC03C
:1004E80068F0696B685F000E695B69BF2CD0695161
:1004F80004E11A0E685DD8A026D06051611162111E
:100508006311D8B402D0010E01D0000E6F6F000E37
:10051800606F000E616F000E626F000E636F6DC03A
:100528006EF015D06FA105D0D8906F3101096F6FAB
:1005380002D0D8906F3360B16F8F63356333623305
:10054800613360336E2B6D516E5DD8A0EBD76CBDF7
:1005580028D06E51D8A409D0000E606F000E616FCC
:10056800000E626F000E636F1200645160276551C0
:100578006123665162236751632363A171D06FA120
:1005880005D0D8906F3101096F6F02D0D8906F33C2
:1005980060B16F8F633563336233613360336E2BC1
:1005A8005FD06451605D655161596651625963510C
:1005B800800A686F6751800A6859D8B025D06051A1
:1005C800645D686F61516559696F625166596A6FF8
:1005D800635167596B6FFF0E6825606FFF0E6921C5
:1005E800616FFF0E6A21626FFF0E6B21636F800ED1
:1005F8006C1B6F6D6F51D8A40FD0010E6027000ED1
:1006080061236223632308D06451605F6551615B95
:100618006651625B6751635B6051611162116311DE
:10062800D8A41CD06F51D8A419D0000E606F000E4A
:10063800616F000E626F000E636F1200D890603712
:100648006137623763376FBF60816FA102D0D8808E
:1006580001D0D8906F376E51D8A46E0762AFEED72D
:10066800000E6D6F6FAF0BD06FC068F07F0E68170C
:10067800D8B403D0010E6D6F02D060B1FBD76D51B5
:10068800D8B420D0010E6027000E612362236323B3
:1006980063A118D060C068F061C069F062C06AF0F8
:1006A80063C06BF06B356B336A336933683368C08A
:1006B80060F069C061F06AC062F06BC063F06E29D7
:1006C800D8A46E2B6E29D8B403D06E51D8A40DD0FF
:1006D800000E606F000E616F000E626F000E636F98
:1006E8006E51D8A402D0000E6C6F6EA102D0628F3A
:1006F80001D0629FD8906E31636F6CBF638F60C00A
:1007080060F061C061F062C062F063C063F0120023
:1007180000017351800B806F73517325876F72BF0F
:1007280087818751D8B40DD08729D8A408D0000E66
:10073800706F000E716F000E726F000E736F728F04
:1007480006D0000E706F000E716F000E726F000EF3
:10075800736F7751800B801B77517725886F76BF31
:1007680088818851D8B40DD08829D8A408D0000E23
:10077800746F000E756F000E766F000E776F768FB0
:1007880006D0000E746F000E756F000E766F000EA7
:10079800776F7451751176117711D8A417D0000EA0
:1007A800706F000E716F000E726F000E736F800E07
:1007B80072137F0E73138051731370C070F071C081
:1007C80071F072C072F073C073F012008751D8A430
:1007D80009D0000E706F000E716F000E726F000E60
:1007E800736F1200885187C078F0796B785F000EBC
:1007F800795B7F0E7825816F000E7921826F70C03A
:100808007CF071C07DF072C07EF073C07FF0000E86
:10081800706F000E716F000E726F000E736F000E16
:10082800836F000E846F000E856F000E866F000EBA
:10083800886F28D08851D8B411D0D8907C377D37AC
:100848007E377F37D890703771377237733786BFE6
:100858007081D890833784378537863774517C5DAB
:1008680075517D5976517E5977517F59D8A009D055
:10087800868D74517C5F75517D5B76517E5B7751B7
:100888007F5B882B190E8865D5D77C517D117E1129
:100898007F11D8B411D083810FD0D89070377137B9
:1008A8007237733786BF7081D8908337843785371E
:1008B80086378107D8A0820772AFEFD7000E886FFE
:1008C80086AF17D0FF0E8315786FFF0E8415796FEA
:1008D800FF0E85157A6F7F0E86157B6F785179111B
:1008E8007A117B11D8B403D0010E886F02D070B191
:1008F800FBD78851D8B41FD0010E7027000E712382
:100908007223732373A117D070C078F071C079F087
:1009180072C07AF073C07BF07B357B337A337933DE
:10092800783378C070F079C071F07AC072F07BC00B
:1009380073F0814B822B82BF10D0825103E1812951
:10094800D8A00BD0000E826F8169000E706F000E68
:10095800716F000E726F000E736F82BF05D08251E7
:1009680011E18105D8B00ED0000E826F000E816FA4
:10097800000E706F000E716F000E726F000E736FB5
:10098800000E806F81C087F087A102D0728F01D0DE
:10099800729FD8908731736F0ED74BEC0AF0F28EA6
:1009A800F28C73EC09F03AEC09F0520E00018A6FF0
:1009B8002B0E896F000EE82EFED7892FFCD78A2FC1
:1009C800FAD700F0000EBFEC09F0350EE82EFED77E
:1009D80000F0000EBFEC09F058EC09F093C08FF05E
:1009E80094C090F095C091F096C092F0A7EC09F0F1
:1009F80060C093F061C094F062C095F063C096F057
:100A080093C060F094C061F095C062F096C063F046
:100A1800000E0001646F000E656F000E666F000E19
:100A2800676FD2EC07F00001D8B0E0D793C064F04C
:100A380094C065F095C066F096C067F08FC060F00E
:100A480090C061F091C062F092C063F005EC02F0D2
:100A580060C070F061C071F062C072F063C073F082
:100A6800000E0001746F000E756F000E766F400E59
:100A7800776F8CEC03F070C097F071C098F072C07B
:100A880099F073C09AF0000E0001606F000E616F5C
:100A98008C0E626F420E636F97C064F098C065F069
:100AA80099C066F09AC067F0BEEC06F00001D8B0B5
:100AB80008D0000E976F000E986F8C0E996F420E3B
:100AC8009A6F97C060F098C061F099C062F09AC0C0
:100AD80063F0000E646F000E656F200E666F410EA6
:100AE800676FBEEC06F00001D8B008D0000E976F13
:100AF800000E986F200E996F410E9A6F97C060F0A4
:100B080098C061F099C062F09AC063F0000E646FFB
:100B1800000E656F200E666FC20E676F05EC02F05F
:100B280060C08BF061C08CF062C08DF063C08EF045
:100B38008BC060F08CC061F08DC062F08EC063F035
:100B480027EC07F000016051BFEC09F045D7096EAA
:100B58000950D8A404AE1AD001C005F002C006F0AE
:100B680003C007F004C008F0051E061E071E081E75
:100B7800052A000E06220722082205C00BF006C02F
:100B88000CF007C00DF008C00EF008D001C00BF043
:100B980002C00CF003C00DF004C00EF001500210AA
:100BA80003100410D8A409D0000E016E000E026EC6
:100BB800000E036E000E046E1200960E0A6E06D02A
:100BC8000A2AD8900E320D320C320B32000E0B145A
:100BD800056E000E0C14066E000E0D14076EFE0E48
:100BE8000E14086E0550061007100810D8B40DD062
:100BF800E7D70A2A010E0B26000E0C220D220E2220
:100C0800D8900E320D320C320B32000E0B14056EDA
:100C1800000E0C14066E000E0D14076EFF0E0E1457
:100C2800086E0550061007100810D8B407D0E1D791
:100C38000A06D8900B360C360D360E360DBE03D08C
:100C4800020E0A60F5D70AA00D9ED8900A320AC093
:100C580005F0066A076A086A05C008F0076A066AA6
:100C6800056A05500B1206500C1207500D12085059
:100C78000E120950D8A404AE01D00E8E0BC001F09C
:100C88000CC002F00DC003F00EC004F012005CD0DE
:100C9800010EAB6F82808282000EB16F000EB06FC2
:100CA8001200B04BB12B82808282B1BF1200B151C9
:100CB80004E1640EB05DD8A01200020EAB6F000E06
:100CC800B16F000EB06F1200B04BB12BAE51016E78
:100CD800026AB051015C0250800A036EB151800A69
:100CE8000358D8A08290AF51016E026AB051015CDE
:100CF8000250800A036EB151800A0358D8A082922C
:100D0800B1BF1200B15104E1640EB05DD8A0120069
:100D1800030EAB6F000EB16F000EB06F1200B04B38
:100D2800B12B82908292B1BF1200080EB05D070EFF
:100D3800B159D8A01200010EAB6F000EB16F000EB2
:100D4800B06F8280829212000001AB51016E026A7C
:100D58000250000AD8A412000150000AD8B498D74B
:100D6800010AD8B49ED7030AD8B4AED7010AD8A4CA
:100D78001200D5D7000E00016015686F000E6115CE
:100D8800696F800E62156A6F7F0E63156B6F68510D
:100D980069116A116B11D8A408D0000E606F000E9B
:100DA800616F000E626F000E636F000E6415686F4E
:100DB800000E6515696F800E66156A6F7F0E6715E0
:100DC8006B6F685169116A116B11D8A408D0000EB5
:100DD800646F000E656F000E666F000E676F63AF7D
:100DE80009D0606D611FD8B0612B621FD8B0622B2B
:100DF800800E635767AF09D0646D651FD8B0652B47
:100E0800661FD8B0662B800E6757000E601B000E59
:100E1800611B000E621B800E631B000E641B000E1C
:100E2800651B000E661B800E671B6451605D655173
:100E380061596651625967516359D8B002D0D89048
:100E48001200D8801200000162356335696F69515C
:100E5800D8A409D0000E606F000E616F000E626F9B
:100E6800000E636F120060C064F061C065F062C07C
:100E780066F063C067F0200E05D0D89067336633FC
:100E880065336433E82EF9D76451686F628FFF0EBB
:100E98006017FF0E6117FF0E6217000E6317960E9C
:100EA800695F69AF0DD06951800A970FD8A0D2D772
:100EB800D8906333623361336033693FF9D70DD01B
:100EC8001F0E696507D0C6D7D8906037613762377B
:100ED800633769076951D8A4F7D76851D8B408D0DF
:100EE800631F621F611F606D000E6123622363230D
:100EF80060C060F061C061F062C062F063C063F01E
:100F080012003A0E0001B325D96EDA6A000EDA2211
:100F1800000EDF6E9CA413D03A0EB325D96EDA6AA0
:100F2800000EDA22DF8201D80AD00500FA6EA1513C
:100F3800FD6EA251FE6EF850FF6EFA5012009CA290
:100F480014D03A0E0001B325D96EDA6A000EDA22FF
:100F5800DF8401D80AD00500FA6E9F51FD6EA051BA
:100F6800FE6EF850FF6EFA5012003A0E0001B325DB
:100F7800D96EDA6A000EDA22DF50D8B40CD001D864
:100F880012000500FA6E9D51FD6E9E51FE6EF850DE
:100F9800FF6EFA50120097EC0AF01200000E0001E2
:100FA8006015686F000E6115696F800E62156A6FB3
:100FB8007F0E63156B6F685169116A116B11D8A4A4
:100FC80008D0000E606F000E616F000E626F000E99
:100FD800636F000E6415686F000E6515696F800EEB
:100FE80066156A6F7F0E67156B6F685169116A1114
:100FF8006B11D8A408D0000E646F000E656F000E48
:10100800666F000E676F645160190AE165516119D6
:1010180007E16651621904E167516319D8B402D037
:10102800D8901200D88012000E01C09B0A0E000151
:10103800606F0F0E616F14EC0BF00E01C0993A0E41
:101048000001606F140E616F0FEC0BF0080E9E6EBE
:10105800800E9C6E240E9D6E8A0E9A6E000E9B6EFC
:101068009A0E0001606F160E616F1EEC0BF0780E81
:101078000001606F160E616F19EC0BF07E0E000117
:10108800606F160E616F23EC0BF0000E0001B26F5B
:10109800000EB56F000EB46F080EA96F000EB36F87
:1010A800000E536E000E526E0E01C08B1200000E21
:1010B800826E000E836E000E846EF00E876EF90E3F
:1010C800886E3D0E896E3B0E0F011C6FF70E146F74
:1010D800FA0E0C6F000E286F000E136F000E0B6FC8
:1010E800000E1B6F000E0A6F000E126F000E1A6FB3
:1010F800096911691969159516951785980E0001E2
:10110800606F160E616F0AEC0BF00E01BD890B0EB5
:10111800A96F120EAA6F090EF86F120028C038F0D6
:1011280029C039F0000E376E010E326E0E01C391E0
:10113800829428C001F029C002F0036A046A000EF4
:10114800ABEC05F001C00FF002C010F003C011F0C5
:1011580004C012F0BC0E136E740E146E130E156ECE
:101168003C0E166E5CEC00F00FC033F010C034F08B
:1011780011C035F012C036F0010E326E000E376E17
:101188001200000E656E000E666E000E676E000E91
:10119800686E000E636E000E646E000E616E000EC7
:1011A8000F015A6F000E586F000E546F000E556FE6
:1011B800000E566F000E606E000E536F000E516FDA
:1011C800000E526F940E5B6F000E576F0E01C691A2
:1011D800BE819E0E0001606F160E616F2DEC0BF044
:1011E8001200000ECF6E000ED06E010ED16E630E8F
:1011F800CD6EC00ECC6ECC50CDCF62F00001636BCB
:1012080062C063F0626B6211566E6351576E0E01D5
:10121800C991C181960E0001606F160E616F05ECD1
:101228000BF0330ECE6E1200900EF66E160EF76EA1
:10123800000EF86E0900F5CF5CF00900F5CF5DF0FF
:101248000900F5CF5EF000EEAAF00C0EEE6AE80693
:10125800FDE100EE32F0220EEE6AE806FDE15F9055
:101268005F92000EF86E0001D1EF04F08482000E48
:10127800326E000E376E0E01C391960E0001606F3C
:10128800160E616F05EC0BF0980E0001606F160EDC
:10129800616F0AEC0BF0240E0001606F110E616F94
:1012A80028EC0BF084921200350EE82EFED700F0E1
:1012B8003750D8A4120084848994700E0001606F9E
:1012C800150E616F05EC0BF0FF0E0001616F606990
:1012D800A8EC0AF042EC0BF0010E376E1200000E7B
:1012E8000001AB6F000EEFEC0AF0000EBFEC09F046
:1012F800320E0001AF6F960E606F0C0E616F00EC3E
:101308000BF0000E0001B16F000EB06F010EAA6F56
:101318001200980E016E160E026E37EC0BF0960E48
:10132800016E160E026E32EC0BF0000E026E000E0D
:10133800016ED5EC0AF046EC0BF08284000E0E012B
:10134800CB6FC38112003250D8B40BD0000E326E6E
:1013580033C060F034C061F035C062F036C063F06D
:101368001200000E0001606F000E616F000E626FC8
:10137800000E636F12000001606F00016051800A67
:101388009E0FD8B002D0E20E606F6051800A630FE2
:10139800D8A002D01C0E606F6051110F606F6051B1
:1013A800320FAF6F12000E01C99156C001F057C03D
:1013B80002F0D5EC0AF054505510D8B4120001D8F8
:1013C80012000500FA6E5450FD6E5550FE6EF8502E
:1013D800FF6EFA501200010EBE6E000EBD6E000EBA
:1013E800BF6E000EBB6E000EBA6E0E01C993C183AC
:1013F800940E0001606F160E616F00EC0BF0F00E9A
:10140800BC6E1200840EAB6E000EAC6E000EAA6E9F
:10141800000EA96E9C0E0001606F160E616F28EC1D
:101428000BF0AD50FC0B0109AD6E0E01CB91C381E1
:101438001200080E0001A96110D04A0EB425D96E19
:10144800DA6A000EDA22DF50996EB42B070EB46503
:1014580002D0000EB46FA92B12000E01C099120021
:101468000E01CB91A9CF2AF0AACF2BF02AC028F0E1
:101478002BC029F001D8120005000001FA6EA35113
:10148800FD6EA451FE6EF850FF6EFA50120044EC47
:101498000BF0C7EC0AF05BEC08F0E3EC0AF0C5ECE3
:1014A80008F006EC0AF0EFEC09F0F5EC08F018EC9F
:1014B80008F012000E01C9930001A551A611D8B475
:1014C800120001D812000500FA6EA551FD6EA65152
:1014D800FE6EF850FF6EFA50120058505910D8B4EA
:1014E8000CD001D80AD00500FA6E5850FD6E59503C
:1014F800FE6EF850FF6EFA5012000F01159512009B
:101508000E01C69100019B519C11D8B4120001D85C
:1015180012000500FA6E9B51FD6E9C51FE6EF8504C
:10152800FF6EFA501200420E0001B325D96EDA6A36
:10153800000EDA2298CFDFFFB32B070EB36502D077
:10154800000EB36F522A1200CEA408D0CE9000012C
:101558006151CD6E60C0CCFFCE8012000001615198
:10156800CD6E60C0CCFF1200960E016E160E026E94
:1015780032EC0BF0849489841A0E016E130E026EFD
:1015880037EC0BF01200000E0E01DC6F000EDD6F61
:10159800000EDE6F000EDF6F000EE06F000EE16FD1
:1015A8001200CEA407D0CE900250CD6E01C0CCFF61
:1015B800CE8012000250CD6E01C0CCFF1200600E2A
:1015C8000E01D36F000ED56F000ED76F080ED96FBE
:1015D800000ED86F12000001606F640E0001606594
:1015E80002D0640E606F60C0AEF012000F0115A546
:1015F800120071EC0AF0120060C0A5F061C0A6F0FC
:10160800120060C054F061C055F0120060C058F07C
:1016180061C059F0120060C05AF061C05BF012005E
:1016280060C0A7F061C0A8F0120060C09FF061C060
:10163800A0F0120060C0A1F061C0A2F0120060C06A
:101648009DF061C09EF0120060C0A3F061C0A4F0DC
:10165800120060C09BF061C09CF0120001C054F001
:1016680002C055F0120001C058F002C059F0120033
:101678009C989C88120097EC0AF01200CE80120009
:0B168800F29A1200CE8012001CE2114A
:0C169400120012001200120012001200DE
:020000040020DA
:10000000FFFFFFFFFFFFFFFFFFFFFFFFFFFFFFFF00
:10001000FFFFFFFFFFFFFFFFFFFFFFFFFFFFFFFFF0
:10002000FFFFFFFFFFFFFFFFFFFFFFFFFFFFFFFFE0
:10003000FFFFFFFFFFFFFFFFFFFFFFFFFFFFFFFFD0
:10004000FFFFFFFFFFFFFFFFFFFFFFFFFFFFFFFFC0
:10005000FFFFFFFFFFFFFFFFFFFFFFFFFFFFFFFFB0
:10006000FFFFFFFFFFFFFFFFFFFFFFFFFFFFFFFFA0
:10007000FFFFFFFFFFFFFFFFFFFFFFFFFFFFFFFF90
:10008000FFFFFFFFFFFFFFFFFFFFFFFFFFFFFFFF80
:10009000FFFFFFFFFFFFFFFFFFFFFFFFFFFFFFFF70
:1000A000FFFFFFFFFFFFFFFFFFFFFFFFFFFFFFFF60
:1000B000FFFFFFFFFFFFFFFFFFFFFFFFFFFFFFFF50
:1000C000FFFFFFFFFFFFFFFFFFFFFFFFFFFFFFFF40
:1000D000FFFFFFFFFFFFFFFFFFFFFFFFFFFFFFFF30
:1000E000FFFFFFFFFFFFFFFFFFFFFFFFFFFFFFFF20
:1000F000FFFFFFFFFFFFFFFFFFFFFFFFFFFFFFFF10
:020000040030CA
:0C0000008CFFFFFF9FFFFFFFFFFFFFFFD3
:00000001FF
