:020000040000FA
:0400000055EF00F0C8
:100008005F82FACF2CF0FBCF2DF0D9CF2EF0DACFCC
:100018002FF0F3CF30F0F4CF31F00E01BDB9C5A900
:1000280003D0CBEC1BF02FD0F2AC2DD0C0B9C8A9AF
:1000380009D001D828D005000101FA6E9251FD6E51
:1000480093510BD0C0BBC8AB0DD001D81CD0050054
:100058000101FA6E9051FD6E9151FE6EF850FF6EDF
:10006800FA501200C1B3C9A303D02AEC1BF00BD07D
:10007800C1B1C9A103D016EC1AF005D0C3B1CBA108
:1000880002D0D4EC1AF031C0F4FF30C0F3FF2FC017
:10009800DAFF2EC0D9FF2DC0FBFF2CC0FAFF5F92FC
:0600A8001100CBEF18F07F
:1008000000746573742064697374616E63653A2063
:10081000202020252E32660A00494E46004E414EC9
:0D08200000696E66006E616E006C6600007F
:10082E00000E0001C46F000EC36F9FC0D5F0A0C0B4
:10083E00D6F0A1C0D7F0A2C0D8F0D8AF16D0000E17
:10084E00C46F010EC36FD5C060F0D6C061F0D7C0C3
:10085E0062F0D8C063F02FEC1AF060C0D5F061C022
:10086E00D6F062C0D7F063C0D8F0000E0001DC6F86
:10087E00000EDB6F4AC0C8F04BC0C9F0C351C411A3
:10088E00D8A402D04EA413D0C351C411D8A404D0FE
:10089E00000EAE6F2B0E03D0000EAE6F2D0EAD6F91
:1008AE00ADC018F1DB4BDC2BC807D8A0C907D5C0EB
:1008BE0060F0D6C061F0D7C062F0D8C063F0F6EC3D
:1008CE0014F0000160056111D8A44BD0BF0EA46FC7
:1008DE00FF0EA56FA351A66FA76BA451A627A55116
:1008EE00A723A75106E11A0EA65DD8B002D0010EBD
:1008FE0001D0000EAF6FB06BAF51B011D8B40DD0A8
:10090E00180EDB25606F010EDC21616F190E626F10
:10091E00080E636F7AEC18F00CD0180EDB25606FA2
:10092E00010EDC21616F210E626F080E636F7AEC8F
:10093E0018F00001FD0EC827FF0EC9239DC072F0EE
:10094E009EC073F0180E746F010E756FC8C076F0EE
:10095E00C9C077F05DEC16F072C09DF073C09EF0CA
:10096E001200D5C060F0D6C061F0D7C062F0D8C01A
:10097E0063F0F6EC14F0000160516111D8A44BD075
:10098E00BF0EA46FFF0EA56FA351A66FA76BA45148
:10099E00A627A551A723A75106E11A0EA65DD8B02A
:1009AE0002D0010E01D0000EB16FB26BB151B21177
:1009BE00D8B40DD0180EDB25606F010EDC21616FEF
:1009CE001D0E626F080E636F7AEC18F00CD0180EC5
:1009DE00DB25606F010EDC21616F250E626F080E44
:1009EE00636F7AEC18F00001FD0EC827FF0EC923C5
:1009FE009DC072F09EC073F0180E746F010E756F6D
:100A0E00C8C076F0C9C077F05DEC16F072C09DF0EC
:100A1E0073C09EF01200000EDD6F000EDE6F800EB2
:100A2E00DF6F3F0EE06F000EDA6F000ED96FD5C08C
:100A3E0060F0D6C061F0D7C062F0D8C063F0000E8F
:100A4E00646F000E656F000E666F000E676FABEC85
:100A5E0016F00001D8A01ED078D0DDC060F0DEC048
:100A6E0061F0DFC062F0E0C063F0000E646F000E54
:100A7E00656F200E666F410E676FEEEC0AF060C078
:100A8E00DDF061C0DEF062C0DFF063C0E0F00001B7
:100A9E00D94BDA2BD5C079F0D6C07AF0D7C07BF01F
:100AAE00D8C07CF0000E646F000E656F200E666F6E
:100ABE00410E676FDDC060F0DEC061F0DFC062F036
:100ACE00E0C063F0EEEC0AF060C07DF061C07EF035
:100ADE0062C07FF063C080F08DEC14F00001D8A0EE
:100AEE001FD0BBD7DDC070F0DEC071F0DFC072F07A
:100AFE00E0C073F0000E746F000E756F200E766FEF
:100B0E00410E776FC8EC0FF070C0DDF071C0DEF0F3
:100B1E0072C0DFF073C0E0F00001D907D8A0DA0789
:100B2E00D5C079F0D6C07AF0D7C07BF0D8C07CF0B3
:100B3E00DDC07DF0DEC07EF0DFC07FF0E0C080F073
:100B4E008DEC14F00001D8A0CDD7A3C066F0676B72
:100B5E00A4EC18F000016651CA6FCAC0C7F0670E48
:100B6E00CA19D8A419D04C504D10D8A404D0000ED8
:100B7E004D6E010E4C6E4DBE05D04D5008E14C042D
:100B8E00D8B005D0000EC66F060EC56F08D04CC08B
:100B9E00C5F04DC0C6F003D04DAEF9D7F3D7670EF2
:100BAE00CA19D8A422D0DAAF06D0FC0ED95DFF0E3A
:100BBE00DA59D8A018D0FF0EA46FFF0EA56FC5C0CE
:100BCE00A6F0C6C0A7F0A451A627A551A723D951B8
:100BDE00A65DA751800AA86FDA51800AA859D8A03D
:100BEE0002D0660E01D0650EC76FC5C0BDF0C6C07F
:100BFE00BEF0670ECA19D8A405D0660EC719D8B4B0
:100C0E00DAAF02D0BD4BBE2B660EC719D8A416D0D4
:100C1E00DAAF0CD0000EDD6F000EDE6F800EDF6FD0
:100C2E003F0EE06F000EDA6F000ED96F670ECA1915
:100C3E00D8B404D0D951BD27DA51BE23000ED46FDB
:100C4E00000ED36FD5C0CBF0D6C0CCF0D7C0CDF050
:100C5E00D8C0CEF0DDC0A9F0DEC0AAF0DFC0ABF088
:100C6E00E0C0ACF07CD0CBC070F0CCC071F0CDC089
:100C7E0072F0CEC073F0DDC074F0DEC075F0DFC070
:100C8E0076F0E0C077F0C8EC0FF070C089F071C05C
:100C9E008AF072C08BF073C08CF0FCEC11F089C03E
:100CAE00CFF08AC0D0F08BC0D1F08CC0D2F0CFC0C4
:100CBE0060F0D0C061F0D1C062F0D2C063F05DECE4
:100CCE0015F060C0C1F061C0C2F0CBC079F0CCC0ED
:100CDE007AF0CDC07BF0CEC07CF0DDC064F0DEC01B
:100CEE0065F0DFC066F0E0C067F0CFC060F0D0C046
:100CFE0061F0D1C062F0D2C063F0EEEC0AF060C0D9
:100D0E007DF061C07EF062C07FF063C080F0EFECDA
:100D1E0018F079C0CBF07AC0CCF07BC0CDF07CC09F
:100D2E00CEF0DDC070F0DEC071F0DFC072F0E0C05A
:100D3E0073F0000E0001746F000E756F200E766F4B
:100D4E00410E776FC8EC0FF070C0DDF071C0DEF0B1
:100D5E0072C0DFF073C0E0F00001D34BD42BBD5155
:100D6E00D35DD451800AA46FBE51800AA459D8A075
:100D7E007AD7DDC060F0DEC061F0DFC062F0E0C0A7
:100D8E0063F0000E646F000E656FA00E666F400E6E
:100D9E00676FEEEC0AF060C0CFF061C0D0F062C0B9
:100DAE00D1F063C0D2F0CBC079F0CCC07AF0CDC018
:100DBE007BF0CEC07CF0CFC07DF0D0C07EF0D1C035
:100DCE007FF0D2C080F08DEC14F00001D8A016D0C8
:100DDE00CBC060F0CCC061F0CDC062F0CEC063F08D
:100DEE00CFC064F0D0C065F0D1C066F0D2C067F05D
:100DFE00ABEC16F00001D8B0C1B108D0000ECF6F29
:100E0E00000ED06F000ED16F000ED26FD5C060F005
:100E1E00D6C061F0D7C062F0D8C063F0CFC064F026
:100E2E00D0C065F0D1C066F0D2C067F041EC0EF0D4
:100E3E0060C0CBF061C0CCF062C0CDF063C0CEF02C
:100E4E00A9C0DDF0AAC0DEF0ABC0DFF0ACC0E0F0B0
:100E5E00650E0001C719D8B405D0D9C0BFF0DAC0ED
:100E6E00C0F004D0000EC06F000EBF6F000EBC6F3E
:100E7E00000EBB6F000EBA6F000EB96F000ED46F6E
:100E8E00000ED36FC8D0CBC070F0CCC071F0CDC007
:100E9E0072F0CEC073F0DDC074F0DEC075F0DFC04E
:100EAE0076F0E0C077F0C8EC0FF070C089F071C03A
:100EBE008AF072C08BF073C08CF0FCEC11F089C01C
:100ECE00CFF08AC0D0F08BC0D1F08CC0D2F0CFC0A2
:100EDE0060F0D0C061F0D1C062F0D2C063F05DECC2
:100EEE0015F060C0C1F061C0C2F04EB80DD0000167
:100EFE00C151C211D8A408D0670ECA19D8B4C0AF58
:100F0E0003D0B94BBA2B3AD00001BB51BC11D8B4A7
:100F1E00C0AF22D0180EDB25D96E010EDC21DA6EA1
:100F2E002E0EDF6EDB4BDC2BC807D8A0C907000ED8
:100F3E00BC6F010EBB6F10D0180EDB25D96E010EE3
:100F4E00DC21DA6E300EDF6EDB4BDC2BC807D8A04F
:100F5E00C907B907D8A0BA07B951BA11D8A4ECD7A6
:100F6E00180EDB25D96E010EDC21DA6EC151300F61
:100F7E00DF6EDB4BDC2BC807D8A0C907CBC079F0DE
:100F8E00CCC07AF0CDC07BF0CEC07CF0DDC064F07A
:100F9E00DEC065F0DFC066F0E0C067F0CFC060F085
:100FAE00D0C061F0D1C062F0D2C063F0EEEC0AF0B6
:100FBE0060C07DF061C07EF062C07FF063C080F0E3
:100FCE00EFEC18F079C0CBF07AC0CCF07BC0CDF04E
:100FDE007CC0CEF0DDC070F0DEC071F0DFC072F00C
:100FEE00E0C073F0000E0001746F000E756F200EDE
:100FFE00766F410E776FC8EC0FF070C0DDF071C0E8
:10100E00DEF072C0DFF073C0E0F00001BF07D8A0C1
:10101E00C007D34BD42BBD51D35DD451800AA46FDE
:10102E00BE51800AA459D8B008D0DCBF2CD7DC51F1
:10103E0004E14B0EDB5DD8A026D7BB51BC11D8B452
:10104E004EA80AD0180EDB25D96E010EDC21DA6E01
:10105E002E0EDF6EDB4BDC2B180EDB25D96E010E50
:10106E00DC21DA6E000EDF6E650EC719D8A4AED085
:10107E00000ED46F4F0ED36F180ED325D96E010EFE
:10108E00D421DA6E000EDF6E000EC46F000EC36F39
:10109E00DAAF08D0000EC46F010EC36FD96DDA1F20
:1010AE00D8B0DA2B000EC66F020EC56F2CD0D30748
:1010BE00D8A0D407180ED325D96E010ED421DA6E1E
:1010CE00D9C060F0DAC061F0000E636F0A0E626F75
:1010DE0077EC17F000016051300FDF6ED9C060F071
:1010EE00DAC061F0000E636F0A0E626FF1EC16F05B
:1010FE0060C0D9F061C0DAF00001C507D8A0C607FC
:10110E00C807D8A0C907D951DA11D8A4D0D7C6BFFD
:10111E0005D0C651CCE1C505D8B0C9D7D307D8A0E4
:10112E00D407C351C411D8A404D0000EB46F2B0E33
:10113E0003D0000EB46F2D0EB36F180ED325D96EDB
:10114E00010ED421DA6EB3C0DFFFC807D8A0C907DD
:10115E00D307D8A0D407BF0EA46FFF0EA56FA3515F
:10116E00A66FA76BA451A627A551A723A75106E1E9
:10117E001A0EA65DD8B002D0010E01D0000EB76FC8
:10118E00B86BB751B811D8A404D0000EB66F650E67
:10119E0003D0000EB66F450EB56F180ED325D96E5F
:1011AE00010ED421DA6EB5C0DFFFC807D8A0C9077B
:1011BE00180EDB25606F010EDC21616F180ED32532
:1011CE00626F010ED421636F7AEC18F09DC072F03D
:1011DE009EC073F0180E0001746F010E756FC8C0BB
:1011EE0076F0C9C077F05DEC16F072C09DF073C05A
:1011FE009EF01200E3C0D9FFE4C0DAFFDECFF6FFA7
:10120E00DDCFF7FF0800F550250AD8A4C5D1E3C0FD
:10121E00D9FFE4C0DAFFDE2A000EDD22000E4B6E8F
:10122E00000E4A6E4AC04EF04BC04FF04C684D68EF
:10123E00E3C0D9FFE4C0DAFFDECFF6FFDDCFF7FF64
:10124E000800F5502E0AD8A46ED0000E4D6E000E7A
:10125E004C6EE3C0D9FFE4C0DAFFDE2A000EDD22B9
:10126E00E3C0D9FFE4C0DAFFDECFF6FFDDCFF7FF34
:10127E000800F5502A0AD8A41CD0E3C0D9FFE4C058
:10128E00DAFFDE2A000EDD22E5C0D9FFE6C0DAFF66
:10129E00DFCFE7F0020EDE26DFCFE8F0000EDD2214
:1012AE00E7C0D9FFE8C0DAFFDECF4CF0DDCF4DF05E
:1012BE003AD0E3C0D9FFE4C0DAFFDECF67F0DDCF6E
:1012CE0068F0D9EC12F067C04CF068C04DF007D052
:1012DE00E3C0D9FFE4C0DAFFDE2A000EDD22D00E15
:1012EE000001E76FFF0EE86FE3C0D9FFE4C0DAFF3D
:1012FE00DECFF6FFDDCFF7FF0800F550E96FEA6BA2
:10130E00E751E927E851EA23EA5106E10A0EE95DC1
:10131E00D8B002D0010E01D0000EEB6FEC6BEB518A
:10132E00EC11D8A4D5D7E3C0D9FFE4C0DAFFDECFE5
:10133E00F6FFDDCFF7FF0800F5500001666F676B13
:10134E00A4EC18F000016651F36FF351D8B435D008
:10135E00E3C0D9FFE4C0DAFFDECFE7F0DDCFE8F07F
:10136E00010EE727000EE823E7C0F6FFE8C0F7FFFF
:10137E000800F550666F676BA4EC18F0000166511B
:10138E00F46FF451D8B419D0E3C0D9FFE4C0DAFF3A
:10139E00DECFE7F0DDCFE8F0020EE727000EE82300
:1013AE00E7C0F6FFE8C0F7FF0800F550666F676B01
:1013BE00A4EC18F000016651F56F660EF319D8A46F
:1013CE003FD0E3C0D9FFE4C0DAFFDECFF6FFDDCFBA
:1013DE00F7FF0800F5CFF6F0E3C0D9FFE4C0DAFF5F
:1013EE00DE2A000EDD22E5C0D9FFE6C0DAFFDFCF30
:1013FE00E7F0040EDE26DFCFE8F0000EDD22E7C0B8
:10140E00D9FFE8C0DAFFDECFEFF0DECFF0F0DECFAF
:10141E00F1F0DECFF2F0E1C09DF0E2C09EF0EFC041
:10142E009FF0F0C0A0F0F1C0A1F0F2C0A2F0F6C0A3
:10143E00A3F017EC04F09DC0E1F09EC0E2F01200A4
:10144E00F30E606F000E616F290E626F080E636FF0
:10145E00000E656F020E646FBBEC15F0000160515B
:10146E006111D8A469D0E3C0D9FFE4C0DAFFDECFA2
:10147E00E7F0DDCFE8F0010EE727000EE823E7C026
:10148E00F6FFE8C0F7FF0800F5CFF6F0BF0EE76FE6
:10149E00FF0EE86FE3C0D9FFE4C0DAFFDECFF6FF40
:1014AE00DDCFF7FF0800F550E96FEA6BE751E9274A
:1014BE00E851EA23EA5106E11A0EE95DD8B002D0EE
:1014CE00010E01D0000EED6FEE6BED51EE11E5C089
:1014DE00D9FFE6C0DAFFDFCFE7F0040EDE26DFCF5E
:1014EE00E8F0000EDD22E7C0D9FFE8C0DAFFDECF5C
:1014FE00EFF0DECFF0F0DECFF1F0DECFF2F0020E45
:10150E00E3C0D9FFE4C0DAFFDE26000EDD22E1C023
:10151E009DF0E2C09EF0EFC09FF0F0C0A0F0F1C0D1
:10152E00A1F0F2C0A2F0F6C0A3F017EC04F09DC03B
:10153E00E1F09EC0E2F01200E3C0D9FFE4C0DAFF92
:10154E00DECFF6FFDDCFF7FF0800F550250AD8A451
:10155E0017D0E3C0D9FFE4C0DAFFDE2A000EDD2289
:10156E00000E636F250E626FE1C064F0E2C065F09D
:10157E00B0EC17F0000E0001E26F010EE16F1200E9
:10158E00E3C0D9FFE4C0DAFFDE2A000EDD22000E32
:10159E00E26F000EE16F1200E3C0D9FFE4C0DAFF84
:1015AE00DECFF6FFDDCFF7FF0800F5500001626FCA
:1015BE00636BE1C064F0E2C065F0B0EC17F0E3C01D
:1015CE00D9FFE4C0DAFFDE2A000EDD22D3D70001F8
:1015DE006351800B6C6F63516325726F62BF7281B2
:1015EE007251D8B40DD07229D8A408D0000E606FF5
:1015FE00000E616F000E626F000E636F628F08D077
:10160E00000E606F000E616F000E626F000E636F52
:10161E006751800B6C1B67516725716F66BF7181B7
:10162E007151D8B40DD07129D8A408D0000E646FB2
:10163E00000E656F000E666F000E676F668F08D026
:10164E00000E646F000E656F000E666F000E676F02
:10165E007151D8B403D07251D8A409D0000E606F66
:10166E00000E616F000E626F000E636F1200665106
:10167E006003F3CF77F0F4CF78F077516D6F6E6B28
:10168E006F6B706B7851736F746B756B766B655196
:10169E006103F3CF77F0F4CF78F077516D27000E1A
:1016AE006E236F23702378517327000E74237523D6
:1016BE00762364516203F3CF77F0F4CF78F077514D
:1016CE006D27000E6E236F23702378517327000E43
:1016DE007423752376236FC070F06EC06FF06DC0EB
:1016EE006EF06D6B64516103F3CF77F0F4CF78F049
:1016FE0077516D2778516E23000E6F23000E7023E5
:10170E0065516003F3CF77F0F4CF78F077516D2702
:10171E0078516E23000E6F23000E70236FC070F091
:10172E006EC06FF06DC06EF06D6B64516003F3CFE1
:10173E0077F0F4CF78F077516D2778516E23000E45
:10174E006F23000E702366516103F3CF77F0F4CF51
:10175E0078F07751732778517423000E7523000E9D
:10176E00762365516203F3CF77F0F4CF78F077519B
:10177E00732778517423000E7523000E762366515D
:10178E006203F3CF77F0F4CF78F07751686F78512A
:10179E00696F6A6B6B6B6AC06BF069C06AF068C088
:1017AE0069F0686B68517327695174236A51752308
:1017BE006B5176236DC068F06EC069F06FC06AF031
:1017CE0070C06BF0190E05D0D8906B336A33693345
:1017DE006833E82EF9D768517327695174236A511B
:1017EE0075236B5176236FC070F06EC06FF06DC0B5
:1017FE006EF06D6B715172C068F0696B6827000EE8
:10180E006923820E6825776FFF0E6921786F0FD0DE
:10181E00D890733774377537763770BF7381D89019
:10182E006D376E376F3770377707D8A0780775AF7B
:10183E00EFD7000E716F70AF17D0FF0E6D15686F7A
:10184E00FF0E6E15696FFF0E6F156A6F7F0E7015A6
:10185E006B6F685169116A116B11D8B403D0010E08
:10186E00716F02D073B1FBD77151D8B41FD0010E76
:10187E007327000E74237523762376A117D073C0B9
:10188E0068F074C069F075C06AF076C06BF06B35A5
:10189E006B336A336933683368C073F069C074F0B0
:1018AE006AC075F06BC076F0774B782B78BF0DD091
:1018BE00785103E17729D8A008D0000E736F000E7F
:1018CE00746F800E756F7F0E20D078BF05D0785163
:1018DE000EE17705D8B00BD0000E736F000E746F4B
:1018EE00000E756F000E766F000E6C6F0FD077C006
:1018FE0072F0FF0E7317FF0E74177F0E7517000E22
:10190E00761772B1758FD8907231766F6C517613DF
:10191E0073C060F074C061F075C062F076C063F0A1
:10192E0012001250800B1B6E12501224216E11BE2B
:10193E0021802150D8B40DD02128D8A408D0000E73
:10194E000F6E000E106E000E116E000E126E118EC6
:10195E0008D0000E0F6E000E106E000E116E000EEF
:10196E00126E1650800B1B1A16501624206E15BEC2
:10197E0020802050D8B40DD02028D8A408D0000E36
:10198E00136E000E146E000E156E000E166E158E72
:10199E0008D0000E136E000E146E000E156E000EA3
:1019AE00166E2050D8B403D02150D8A409D0000E02
:1019BE000F6E000E106E000E116E000E126E1200E3
:1019CE0015500F02F3CF26F0F4CF27F026501C6EE1
:1019DE001D6A1E6A1F6A2750226E236A246A256AB0
:1019EE0014501002F3CF26F0F4CF27F026501C2609
:1019FE00000E1D221E221F2227502226000E2322F9
:101A0E002422252213501102F3CF26F0F4CF27F013
:101A1E0026501C26000E1D221E221F222750222673
:101A2E00000E2322242225221EC01FF01DC01EF0F0
:101A3E001CC01DF01C6A13501002F3CF26F0F4CF19
:101A4E0027F026501C2627501D22000E1E22000EA7
:101A5E001F2214500F02F3CF26F0F4CF27F026509A
:101A6E001C2627501D22000E1E22000E1F221EC0F5
:101A7E001FF01DC01EF01CC01DF01C6A13500F027B
:101A8E00F3CF26F0F4CF27F026501C2627501D2228
:101A9E00000E1E22000E1F2215501002F3CF26F04C
:101AAE00F4CF27F02650222627502322000E242280
:101ABE00000E252214501102F3CF26F0F4CF27F09A
:101ACE002650222627502322000E2422000E2522E5
:101ADE0015501102F3CF26F0F4CF27F02650176ED3
:101AEE002750186E196A1A6A19C01AF018C019F020
:101AFE0017C018F0176A17502226185023221950B3
:101B0E0024221A5025221CC017F01DC018F01EC02A
:101B1E0019F01FC01AF0190E05D0D8901A321932CA
:101B2E0018321732E82EF9D71750222618502322D2
:101B3E00195024221A5025221EC01FF01DC01EF05F
:101B4E001CC01DF01C6A205021C017F0186A172601
:101B5E00000E1822820E1724266EFF0E1820276EF6
:101B6E000FD0D89022362336243625361FBE22803B
:101B7E00D8901C361D361E361F362606D8A02706D0
:101B8E0024AEEFD7000E206E1FAE17D0FF0E1C1422
:101B9E00176EFF0E1D14186EFF0E1E14196E7F0E9B
:101BAE001F141A6E1750181019101A10D8B403D02B
:101BBE00010E206E02D022B0FBD72050D8B41FD019
:101BCE00010E2226000E23222422252225A017D024
:101BDE0022C017F023C018F024C019F025C01AF047
:101BEE001A341A3219321832173217C022F018C0AE
:101BFE0023F019C024F01AC025F0264A272A27BE42
:101C0E000DD0275003E12628D8A008D0000E226E52
:101C1E00000E236E800E246E7F0E20D027BE05D0C0
:101C2E0027500EE12604D8B00BD0000E226E000E07
:101C3E00236E000E246E000E256E000E1B6E0FD04E
:101C4E0026C021F0FF0E2216FF0E23167F0E24163D
:101C5E00000E251621B0248ED8902130256E1B50F3
:101C6E00251222C00FF023C010F024C011F025C0A1
:101C7E0012F0120000016351800B6C6F63516325EB
:101C8E006E6F62BF6E816E51D8B40DD06E29D8A41E
:101C9E0008D0000E606F000E616F000E626F000EB6
:101CAE00636F628F06D0000E606F000E616F000EC4
:101CBE00626F000E636F6751800B6D6F6C516D1903
:101CCE00D8A46C8D675167256D6F66BF6D816D51A0
:101CDE00D8B40DD06D29D8A408D0000E646F000EB4
:101CEE00656F000E666F000E676F668F06D0000E72
:101CFE00646F000E656F000E666F000E676F6E519B
:101D0E006D5DD8B022D06CAD02D0800E6C1B6EC053
:101D1E006FF06DC06EF06FC06DF060C06FF064C09C
:101D2E0060F06FC064F061C06FF065C061F06FC0AD
:101D3E0065F062C06FF066C062F06FC066F063C09F
:101D4E006FF067C063F06FC067F0000E6F6F6E517B
:101D5E006DC068F0696B685F000E695B69BF2CD05F
:101D6E00695104E11A0E685DD8A026D06051611148
:101D7E0062116311D8B402D0010E01D0000E6F6F44
:101D8E00000E606F000E616F000E626F000E636FCB
:101D9E006DC06EF015D06FA105D0D8906F310109CE
:101DAE006F6F02D0D8906F3360B16F8F633563332E
:101DBE006233613360336E2B6D516E5DD8A0EBD7FD
:101DCE006CBD28D06E51D8A409D0000E606F000EE5
:101DDE00616F000E626F000E636F12006451602718
:101DEE0065516123665162236751632363A171D0EC
:101DFE006FA105D0D8906F3101096F6F02D0D890C6
:101E0E006F3360B16F8F6335633362336133603329
:101E1E006E2B5FD06451605D655161596651625998
:101E2E006351800A686F6751800A6859D8B025D00F
:101E3E006051645D686F61516559696F6251665991
:101E4E006A6F635167596B6FFF0E6825606FFF0EE7
:101E5E006921616FFF0E6A21626FFF0E6B21636F46
:101E6E00800E6C1B6F6D6F51D8A40FD0010E6027C2
:101E7E00000E61236223632308D06451605F6551B5
:101E8E00615B6651625B6751635B60516111621108
:101E9E006311D8A41CD06F51D8A419D0000E606F56
:101EAE00000E616F000E626F000E636F1200D8900D
:101EBE0060376137623763376FBF60816FA102D0C1
:101ECE00D88001D0D8906F376E51D8A46E0762AF0C
:101EDE00EED7000E6D6F6FAF0BD06FC068F07F0E38
:101EEE006817D8B403D0010E6D6F02D060B1FBD766
:101EFE006D51D8B420D0010E6027000E61236223ED
:101F0E00632363A118D060C068F061C069F062C03D
:101F1E006AF063C06BF06B356B336A3369336833C9
:101F2E0068C060F069C061F06AC062F06BC063F0B7
:101F3E006E29D8A46E2B6E29D8B403D06E51D8A4B6
:101F4E000DD0000E606F000E616F000E626F000EFE
:101F5E00636F6E51D8A402D0000E6C6F6EA102D0CA
:101F6E00628F01D0629FD8906E31636F6CBF638FAA
:101F7E0060C060F061C061F062C062F063C063F087
:101F8E00120000017351800B806F73517325876FA0
:101F9E0072BF87818751D8B40DD08729D8A408D0B5
:101FAE00000E706F000E716F000E726F000E736F69
:101FBE00728F06D0000E706F000E716F000E726F72
:101FCE00000E736F7751800B801B77517725886FCA
:101FDE0076BF88818851D8B40DD08829D8A408D06E
:101FEE00000E746F000E756F000E766F000E776F19
:101FFE00768F06D0000E746F000E756F000E766F22
:10200E00000E776F7451751176117711D8A417D011
:10201E00000E706F000E716F000E726F000E736FF8
:10202E00800E72137F0E73138051731370C070F095
:10203E0071C071F072C072F073C073F012008751EC
:10204E00D8A409D0000E706F000E716F000E726F63
:10205E00000E736F1200885187C078F0796B785F2D
:10206E00000E795B7F0E7825816F000E7921826FCD
:10207E0070C07CF071C07DF072C07EF073C07FF0D6
:10208E00000E706F000E716F000E726F000E736F88
:10209E00000E836F000E846F000E856F000E866F2C
:1020AE00000E886F28D08851D8B411D0D8907C37C4
:1020BE007D377E377F37D8907037713772377337E9
:1020CE0086BF7081D89083378437853786377451B1
:1020DE007C5D75517D5976517E5977517F59D8A0C7
:1020EE0009D0868D74517C5F75517D5B76517E5B18
:1020FE0077517F5B882B190E8865D5D77C517D1162
:10210E007E117F11D8B411D083810FD0D890703743
:10211E0071377237733786BF7081D89083378437A3
:10212E00853786378107D8A0820772AFEFD7000EAA
:10213E00886F86AF17D0FF0E8315786FFF0E84154C
:10214E00796FFF0E85157A6F7F0E86157B6F78512E
:10215E0079117A117B11D8B403D0010E886F02D099
:10216E0070B1FBD78851D8B41FD0010E7027000E66
:10217E0071237223732373A117D070C078F071C0CE
:10218E0079F072C07AF073C07BF07B357B337A3393
:10219E007933783378C070F079C071F07AC072F00C
:1021AE007BC073F0814B822B82BF10D0825103E132
:1021BE008129D8A00BD0000E826F8169000E706F3E
:1021CE00000E716F000E726F000E736F82BF05D01E
:1021DE00825111E18105D8B00ED0000E826F000E33
:1021EE00816F000E706F000E716F000E726F000E19
:1021FE00736F000E806F81C087F087A102D0728F3F
:10220E0001D0729FD8908731736F0ED750EC1BF0B0
:10221E00F28EF28C5FEC1AF074EC19F0520E010192
:10222E00736F2B0E726F000EE82EFED7722FFCD737
:10223E00732FFAD700F0000E77EC1AF0350EE82E59
:10224E00FED700F0000E77EC1AF0AFEC19F07CC15F
:10225E0078F17DC179F17EC17AF17FC17BF147ECD6
:10226E001AF060C07CF161C07DF162C07EF163C086
:10227E007FF17CC160F07DC161F07EC162F07FC1F3
:10228E0063F0000E0001646F000E656F000E666F46
:10229E00000E676FABEC16F00001D8B0E0D77CC132
:1022AE0064F07DC165F07EC166F07FC167F078C1D4
:1022BE0060F079C161F07AC162F07BC163F041ECEC
:1022CE000EF060C070F061C071F062C072F063C059
:1022DE0073F0000E0001746F000E756F000E766FB6
:1022EE00400E776FC8EC0FF070C080F171C081F1B5
:1022FE0072C082F173C083F1000E0001796F000E7F
:10230E007A6F8C0E7B6F420E7C6F80C17DF081C127
:10231E007EF082C17FF083C180F08DEC14F000015D
:10232E00D8B009D0000E0101806F000E816F8C0EA7
:10233E00826F420E836F80C179F081C17AF082C1C3
:10234E007BF083C17CF0000E00017D6F000E7E6F6E
:10235E00200E7F6F410E806F8DEC14F00001D8B00F
:10236E0009D0000E0101806F000E816F200E826F6A
:10237E00410E836F80C160F081C161F082C162F055
:10238E0083C163F0000E0001646F000E656F200EB6
:10239E00666FC20E676F41EC0EF060C074F161C0E3
:1023AE0075F162C076F163C077F174C160F075C1EA
:1023BE0061F076C162F077C163F05DEC15F000015B
:1023CE00605177EC1AF0848E010E0101686F080ED1
:1023DE00696F80C16AF181C16BF182C16CF183C1F9
:1023EE006DF101EC1BF0849E30D740C099F041C0D6
:1023FE009AF042C09BF043C09CF089C099F08AC00D
:10240E009AF08BC09BF08CC09CF0810E00018D6FFA
:10241E00FF0E8E6F99C08FF09AC090F09BC091F016
:10242E009CC092F0180E05D0D89092339133903311
:10243E008F33E82EF9D78F518D25976F000E8E2191
:10244E00986F98BF0FD0985104E1170E975DD8A0E2
:10245E0009D089C089F08AC08AF08BC08BF08CC0FD
:10246E008CF0120098BF5FD097C08DF0FF0E8E6F6C
:10247E00FF0E8F6F7F0E906F000E916F8D6701D0E4
:10248E0007D09135913390338F338E338D2FF6D70E
:10249E008EC093F08FC094F090C095F091C096F0DE
:1024AE000001935199158D6F94519A158E6F955118
:1024BE009B158F6F96519C15906F8D518E118F11AC
:1024CE009011D8B4C6D799C08DF09AC08EF09BC02B
:1024DE008FF09CC090F0200E05D0D89090338F33A3
:1024EE008E338D33E82EF9D78D518E118F119011B9
:1024FE00D8B408D09351992794519A2395519B2380
:10250E0096519C23931D8D6F941D8E6F951D8F6F0D
:10251E00961D906F8D5199178E519A178F519B174B
:10252E0090519C1736D099C08DF09AC08EF09BC0FA
:10253E008FF09CC090F0200E05D0D89090338F3342
:10254E008E338D33E82EF9D78D518E118F11901158
:10255E00D8A408D0000E996F000E9A6F000E9B6FD4
:10256E00000E16D0D89099358D6F9A358E6F9B359B
:10257E008F6F9C35906F8D518E118F119011D8B435
:10258E0008D0000E996F000E9A6F800E9B6FBF0ED3
:10259E009C6F99C089F09AC08AF09BC08BF09CC04A
:1025AE008CF01200000E0001756F000E746F000E9D
:1025BE006E6F000E6D6F02D0674B682B010E736F3E
:1025CE0067C0F6FF68C0F7FF0800F550200AD8B4C0
:1025DE0018D0F70E696FFF0E6A6F67C0F6FF68C0FE
:1025EE00F7FF0800F5506B6F6C6B69516B276A51E2
:1025FE006C236C5104E1050E6B5DD8A002D0000E69
:10260E00736F73C06FF0706B6F517011D8B408D0C8
:10261E00D3D7000E6E6F010E6D6F674B682B2FD0E8
:10262E0067C0F6FF68C0F7FF0800F550696F6A6B68
:10263E006A51000AD8A423D069512B0AD8B4EDD719
:10264E00060AD8B4E6D71BD074C060F075C061F02E
:10265E00000E636F0A0E626F16EC1BF067C0F6FF7A
:10266E0068C0F7FF0800F5500001605F000E615B67
:10267E00300E6025746F000E6121756FCED7D00EAF
:10268E00696FFF0E6A6F67C0F6FF68C0F7FF08003C
:10269E00F5506B6F6C6B69516B276A516C236C51E3
:1026AE0006E10A0E6B5DD8B002D0010E01D0000E0D
:1026BE00716F726B71517211D8A4C6D76D516E11B4
:1026CE00D8A40DD074C069F075C06AF0691F6A1F76
:1026DE00694B6A2B69C067F06AC068F0120074C05B
:1026EE0067F075C068F01200096E0950D8A404AEE8
:1026FE001AD001C005F002C006F003C007F004C0F6
:10270E0008F0051E061E071E081E052A000E0622CC
:10271E000722082205C00BF006C00CF007C00DF012
:10272E0008C00EF008D001C00BF002C00CF003C0C0
:10273E000DF004C00EF00150021003100410D8A4C6
:10274E0009D0000E016E000E026E000E036E000E1A
:10275E00046E1200960E0A6E06D00A2AD8900E3219
:10276E000D320C320B32000E0B14056E000E0C14D3
:10277E00066E000E0D14076EFE0E0E14086E05503A
:10278E00061007100810D8B40DD0E7D70A2A010E8C
:10279E000B26000E0C220D220E22D8900E320D3278
:1027AE000C320B32000E0B14056E000E0C14066E5E
:1027BE00000E0D14076EFF0E0E14086E0550061057
:1027CE0007100810D8B407D0E1D70A06D8900B36F8
:1027DE000C360D360E360DBE03D0020E0A60F5D73E
:1027EE000AA00D9ED8900A320AC005F0066A076A42
:1027FE00086A05C008F0076A066A056A05500B12DA
:10280E0006500C1207500D1208500E120950D8A483
:10281E0004AE01D00E8E0BC001F00CC002F00DC044
:10282E0003F00EC004F012005CD0010E3B6E8280ED
:10283E008282000E516E000E506E1200504A512AC6
:10284E008280828251BE1200515004E1640E505CAF
:10285E00D8A01200020E3B6E000E516E000E506E8E
:10286E001200504A512A3E50016E026A5050015CCD
:10287E000250800A036E5150800A0358D8A08290ED
:10288E003F50016E026A5050015C0250800A036E86
:10289E005150800A0358D8A0829251BE1200515056
:1028AE0004E1640E505CD8A01200030E3B6E000EC5
:1028BE00516E000E506E1200504A512A8290829232
:1028CE0051BE1200080E505C070E5158D8A01200CF
:1028DE00010E3B6E000E516E000E506E8280829283
:1028EE0012003B50016E026A0250000AD8A4120078
:1028FE000150000AD8B499D7010AD8B49FD7030A59
:10290E00D8B4AFD7010AD8A41200D6D7000E000152
:10291E007915816F000E7A15826F800E7B15836F8D
:10292E007F0E7C15846F8151821183118411D8A47E
:10293E0008D0000E796F000E7A6F000E7B6F000EBE
:10294E007C6F000E7D15816F000E7E15826F800EDE
:10295E007F15836F7F0E8015846F815182118311D5
:10296E008411D8A408D0000E7D6F000E7E6F000E6D
:10297E007F6F000E806F7CAF09D0796D7A1FD8B053
:10298E007A2B7B1FD8B07B2B800E7C5780AF09D063
:10299E007D6D7E1FD8B07E2B7F1FD8B07F2B800E13
:1029AE008057000E791B000E7A1B000E7B1B800ECB
:1029BE007C1B000E7D1B000E7E1B000E7F1B800EEF
:1029CE00801B7D51795D7E517A597F517B598051A3
:1029DE007C59D8B002D0D8901200D880120044C0D2
:1029EE006AF045C06BF046C06CF047C06DF060C039
:1029FE006AF061C06BF062C06CF063C06DF06AC0CB
:102A0E0064F06BC065F06CC066F06DC067F0180EB8
:102A1E0006D00001D8906733663365336433E82EF1
:102A2E00F8D76451686F696B68516911D8A419D0D1
:102A3E00D8906A35646F6B35656F6C35666F6D3522
:102A4E00676F6451651166116711D8A405D0000E29
:102A5E00616F020E606F1200000E616F030E606FE9
:102A6E00120068296911D8A41CD06AC064F06BC02A
:102A7E0065F06CC066F06DC067F0090ED8906437D3
:102A8E00653766376737E82EF9D7645165116611D9
:102A9E006711D8A402D0010E01D0000E606F616BD9
:102AAE001200000E616F040E606F1200000162359D
:102ABE006335696F6951D8A409D0000E606F000E9E
:102ACE00616F000E626F000E636F120060C064F0E3
:102ADE0061C065F062C066F063C067F0200E05D07D
:102AEE00D8906733663365336433E82EF9D7645173
:102AFE00686F628FFF0E6017FF0E6117FF0E621771
:102B0E00000E6317960E695F69AF0DD06951800A8A
:102B1E00970FD8A0D2D7D890633362336133603326
:102B2E00693FF9D70DD01F0E696507D0C6D7D8906B
:102B3E00603761376237633769076951D8A4F7D7B1
:102B4E006851D8B408D0631F621F611F606D000EFC
:102B5E0061236223632360C060F061C061F062C0D4
:102B6E0062F063C063F0120060C067F061C068F08D
:102B7E0062C069F063C06AF000016407D8A06507FF
:102B8E0064290FE16529D8A40CD0000E616F000EE8
:102B9E00606F1200674B682B694B6A2B6407D8A0D5
:102BAE00650767C0D9FF68C0DAFFDF50D8B41CD004
:102BBE0069C0F6FF6AC0F7FF0800F5500009D8B4E7
:102BCE0013D064516511D8B40FD067C0D9FF68C057
:102BDE00DAFFDF50666F69C0F6FF6AC0F7FF0800C4
:102BEE00F5506619D8B4D6D767C0D9FF68C0DAFFDA
:102BFE00DF50666F69C0F6FF6AC0F7FF0800F55038
:102C0E00665D606F616BD8A061071200000E000157
:102C1E00FF25D96EDA6A010EDA22000EDF6E9CA451
:102C2E0014D0000EFF25D96EDA6A010EDA220101E8
:102C3E00DF8201D80AD00500FA6E8851FD6E8951E7
:102C4E00FE6EF850FF6EFA5012009CA215D0000EC8
:102C5E000001FF25D96EDA6A010EDA220101DF8446
:102C6E0001D80AD00500FA6E8651FD6E8751FE6EB0
:102C7E00F850FF6EFA501200000E0001FF25D96EBB
:102C8E00DA6A010EDA22DF50D8B40DD001D8120064
:102C9E0005000101FA6E8451FD6E8551FE6EF850ED
:102CAE00FF6EFA50120061EC1BF012004EA00AD01B
:102CBE0074C06BF075C06CF072C06DF073C06EF0C6
:102CCE0056EC19F0000177BF05D076C07BF077C0C7
:102CDE007CF004D0000E7C6F000E7B6F000E7A6FBE
:102CEE00000E796F0DD0000E636F200E626F72C0F2
:102CFE0064F073C065F0B0EC17F00001794B7A2BDD
:102D0E007B51795D7A51800A786F7C51800A7859AF
:102D1E00D8A0E9D74EB00AD074C06BF075C06CF075
:102D2E0072C06DF073C06EF056EC19F074C060F0A6
:102D3E0075C061F08FEC1AF000017B516025726F47
:102D4E007C516121736F1200000E00016015686FD7
:102D5E00000E6115696F800E62156A6F7F0E631526
:102D6E006B6F685169116A116B11D8A408D0000EEF
:102D7E00606F000E616F000E626F000E636F000ECB
:102D8E006415686F000E6515696F800E66156A6FA3
:102D9E007F0E67156B6F685169116A116B11D8A49C
:102DAE0008D0000E646F000E656F000E666F000E89
:102DBE00676F645160190AE16551611907E1665147
:102DCE00621904E167516319D8B402D0D890120089
:102DDE00D8801200000E0001656F63AF06D0626DE1
:102DEE00631FD8B0632B010E656F61AF06D0606DA7
:102DFE00611FD8B0612B010E651B000E676F000EB0
:102E0E00666F62516311D8B41CD0010E646F04D08A
:102E1E00D89062376337642B63AFFAD7D890663792
:102E2E0067376251605D63516159D8A005D0625118
:102E3E00605F6351615B6681D89063336233642F48
:102E4E00EDD76551D8B404D0666D671FD8B0672B27
:102E5E0066C060F067C061F012000E01C09B1A0ED2
:102E6E000001606F2C0E616FE5EC1BF00E01C09936
:102E7E00D60E0001606F350E616FE0EC1BF0080E90
:102E8E009E6E800E9C6E240E9D6E8A0E9A6E000EA5
:102E9E009B6E320E0001606F380E616FEFEC1BF00F
:102EAE00100E0001606F380E616FEAEC1BF0160E0B
:102EBE000001606F380E616FF4EC1BF0000E526E65
:102ECE00000E566E000E556E080E5B6E000E000163
:102EDE00FF6F000E546E000E536E0E01C08B12006B
:102EEE00000E0001656F61AF06D0606D611FD8B036
:102EFE00612B010E656F63AF04D0626D631FD8B096
:102F0E00632B62516311D8B418D0010E646F04D0D4
:102F1E00D89062376337642B63AFFAD76251605D26
:102F2E0063516159D8A004D06251605F6351615BF7
:102F3E00D89063336233642FF1D76551D8B404D07F
:102F4E00606D611FD8B0612B60C060F061C061F030
:102F5E001200000164516511D8B404D0645165119A
:102F6E00D8A404D06251C4EC1BF0120020EE04F081
:102F7E006451D9266551DA22DE50DE10D8B416D04F
:102F8E0020EE04F06451D9266551DA2210EE02F0DB
:102F9E006451E1266551E222DE50E65CE650800A7D
:102FAE006A6FDE50800A6A59D8B0120020EE02F025
:102FBE006451D9266551DA22DE2A000EDD22120076
:102FCE00000E826E000E836E000E846EF00E876E03
:102FDE00F90E886E3D0E896E3B0E0F011C6FF70EBB
:102FEE00146FFA0E0C6F000E286F000E136F000E8A
:102FFE000B6F000E1B6F000E0A6F000E126F000E8D
:10300E001A6F096911691969159516951785300E8C
:10301E000001606F380E616FDBEC1BF00E01BD8995
:10302E00120EAA6F090EF86F120028C038F029C0D0
:10303E0039F0000E376E010E326E0E01C39182947E
:10304E0028C001F029C002F0036A046A000E7BEC6E
:10305E0013F001C00FF002C010F003C011F004C055
:10306E0012F0BC0E136E740E146E130E156E3C0E13
:10307E00166E98EC0CF00FC033F010C034F011C087
:10308E0035F012C036F0010E326E000E376E1200A1
:10309E00F9C0FDF0FAC0FEF0000E496E000E486E4B
:1030AE0014D0F7C0E1F0F8C0E2F0FD0E0001E36FBE
:1030BE00000EE46FFBC0E5F0FCC0E6F001EC09F099
:1030CE000001E1514826E2514922FDC0F6FFFEC043
:1030DE00F7FF0800F5500009D8A4E3D748C0F7F071
:1030EE0049C0F8F0120062C066F063C067F060C0BD
:1030FE0068F061C069F000016651646F6751656FD9
:10310E00664B672B64C0F6FF65C0F7FFF86A68C0B0
:10311E00D9FF69C0DAFF684B692B070EF76403D03D
:10312E000800F55005D0F6CFE1FFF7CFE2FFE750EC
:10313E00DF6EDF50D8B41200DED7BF0E0001686F0D
:10314E00FF0E696F66C06AF067C06BF068516A2740
:10315E0069516B236B5106E11A0E6A5DD8B002D02D
:10316E00010E01D0000E6C6F6D6B6C516D11D8B4E9
:10317E0006D0200E6611666F6751676F120066C02B
:10318E0066F067C067F01200280EF66E380EF76E06
:10319E00000EF86E0900F5CF5CF00900F5CF5DF07A
:1031AE000900F5CF5EF001EE00F0680EEE6AE8065B
:1031BE00FDE10001FF6B00EE32F0250EEE6AE8062F
:1031CE00FDE15F905F92000EF86E00010DEF11F0C1
:1031DE00000E00017D1B000E7E1B000E7F1B800E5D
:1031EE00801B79C060F07AC061F07BC062F07CC059
:1031FE0063F07DC064F07EC065F07FC066F080C075
:10320E0067F041EC0EF060C079F061C07AF062C0F8
:10321E007BF063C07CF01200000ECF6E000ED06EFD
:10322E00010ED16E630ECD6EC00ECC6ECC50CDCFD6
:10323E0062F00001636B62C063F0626B6211576EE5
:10324E006351586E0E01C991C1812E0E0001606F3F
:10325E00380E616FD6EC1BF0330ECE6E1200010EDF
:10326E000001666F200E60196111D8B414D0F70EEC
:10327E00626FFF0E636F60C064F061C065F06251F3
:10328E00642763516523655104E1050E645DD8A082
:10329E0002D0000E666F66C060F0616B1200000E09
:1032AE000001716F000E706F0CD06FC062F0636B17
:1032BE006DC064F06EC065F0B0EC17F00001704B9D
:1032CE00712B70516B25D96E71516C21DA6EDF50F6
:1032DE006F6F6F51D8B41200E8D78482000E326E31
:1032EE00000E376E0E01C3912E0E0001606F380E68
:1032FE00616FD6EC1BF0300E0001606F380E616FFF
:10330E00DBEC1BF0380E0001606F300E616FF9ECD4
:10331E001BF0849212000001606F5B50D8B4FDD791
:10332E000E01C0B903D060C099FF10D0C099100E25
:10333E005624D96EDA6A010EDA2260C0DFFF562AF1
:10334E00070E566402D0000E566E5B06C089120040
:10335E00350EE82EFED700F03750D8A41200848424
:10336E008994040E0001606F370E616FD6EC1BF06E
:10337E00FF0E0001616F606972EC1BF00EEC1CF029
:10338E00010E376E1200300E016E380E026E03EC17
:10339E001CF02E0E016E380E026EFEEC1BF0000EAF
:1033AE00026E000E016E9FEC1BF012EC1CF082847C
:1033BE00000E0E01CB6FC3811200BF0E0001626FB3
:1033CE00FF0E636F60C064F061C065F062516427E8
:1033DE0063516523655106E11A0E645DD8B002D0C3
:1033EE00010E01D0000E606F616B1200D00E000155
:1033FE00626FFF0E636F60C064F061C065F0625172
:10340E00642763516523655106E10A0E645DD8B0E9
:10341E0002D0010E01D0000E606F616B12000E0122
:10342E00C99157C001F058C002F09FEC1BF001018A
:10343E008A518B11D8B4120001D812000500FA6E11
:10344E008A51FD6E8B51FE6EF850FF6EFA501200CF
:10345E0000016051611162116311D8B408D0000EE1
:10346E00601B000E611B000E621B800E631B60C092
:10347E0060F061C061F062C062F063C063F0120080
:10348E003250D8B40BD0000E326E33C060F034C060
:10349E0061F035C062F036C063F01200000E00011C
:1034AE00606F000E616F000E626F000E636F120090
:1034BE00000E3B6E000EB9EC1BF0000E77EC1AF00E
:1034CE00320E3F6E360E0001606F280E616FD1EC2A
:1034DE001BF0000E516E000E506E010E3A6E120071
:1034EE000001606F00016051800A9E0FD8B002D0BB
:1034FE00E20E606F6051800A630FD8A002D01C0EDE
:10350E00606F6051110F606F6051320F3F6E12008D
:10351E0060C062F061C063F003D00001604B612BAC
:10352E0060C0D9FF61C0DAFFDF50D8A4F6D7000122
:10353E006251605D606F63516159616F1200010EDF
:10354E00BE6E000EBD6E000EBF6E000EBB6E000E88
:10355E00BA6E0E01C993C1832C0E0001606F380E36
:10356E00616FD1EC1BF0F00EBC6E1200840EAB6ED0
:10357E00000EAC6E000EAA6E000EA96E340E000187
:10358E00606F380E616FF9EC1BF0AD50FC0B01094A
:10359E00AD6E0E01CB91C38112000E01CB91A9CF5E
:1035AE002AF0AACF2BF02AC028F02BC029F001D880
:1035BE00120005000101FA6E8C51FD6E8D51FE6EEA
:1035CE00F850FF6EFA501200080E5B6010D0100E0D
:1035DE005524D96EDA6A010EDA22DF50996E552A19
:1035EE00070E556402D0000E556E5B2A12000E01B6
:1035FE00C09912006A0E0101706F010E716F000EFC
:10360E000001F76F000EF86F68C1F9F069C1FAF0AA
:10361E00700EFB6F010EFC6F4FEC18F012000001E4
:10362E0060516203F3CF64F0F4CF65F06051630331
:10363E00F350652761516203F350652764C060F053
:10364E0065C061F012000E01C99301018E518F11F8
:10365E00D8B4120001D812000500FA6E8E51FD6E1C
:10366E008F51FE6EF850FF6EFA50120059505A10DC
:10367E00D8B40CD001D80AD00500FA6E5950FD6EA0
:10368E005A50FE6EF850FF6EFA5012000F0115954B
:10369E00120010EC1CF091EC1BF0E7EC17F0ADEC07
:1036AE001BF0BDEC1AF0A6EC1AF013EC19F034EC8A
:1036BE0017F01200080E0001FF25D96EDA6A010E0E
:1036CE00DA2298CFDFFFFF2B070EFF6502D0000E28
:1036DE00FF6F532A1200CEA408D0CE900001615184
:1036EE00CD6E60C0CCFFCE80120000016151CD6E58
:1036FE0060C0CCFF12002E0E016E380E026EFEEC74
:10370E001BF084948984940E016E330E026E03ECCA
:10371E001CF01200000E0E01DC6F000EDD6F000EAD
:10372E00DE6F000EDF6F000EE06F000EE16F120015
:10373E00CEA407D0CE900250CD6E01C0CCFFCE806D
:10374E0012000250CD6E01C0CCFF1200600E0E01B1
:10375E00D36F000ED56F000ED76F080ED96F000E07
:10376E00D86F12000001606F640E0001606502D018
:10377E00640E606F60C03EF012000001616F0001C8
:10378E00615192EC19F012000F0115A512003DECDB
:10379E001BF0120060C08EF161C08FF1120060C08C
:1037AE008AF161C08BF1120060C059F061C05AF00D
:1037BE00120060C092F161C093F1120060C090F1EE
:1037CE0061C091F1120060C086F161C087F11200F4
:1037DE0060C088F161C089F1120060C084F161C0DF
:1037EE0085F1120060C08CF161C08DF1120001C034
:1037FE008AF102C08BF1120001C059F002C05AF0DA
:10380E0012009C989C88120061EC1BF01200CE8076
:0D381E001200F29A1200CE8012001CE2117E
:0A382C001200120012001200120038
:020000040020DA
:10000000FFFFFFFFFFFFFFFFFFFFFFFFFFFFFFFF00
:10001000FFFFFFFFFFFFFFFFFFFFFFFFFFFFFFFFF0
:10002000FFFFFFFFFFFFFFFFFFFFFFFFFFFFFFFFE0
:10003000FFFFFFFFFFFFFFFFFFFFFFFFFFFFFFFFD0
:10004000FFFFFFFFFFFFFFFFFFFFFFFFFFFFFFFFC0
:10005000FFFFFFFFFFFFFFFFFFFFFFFFFFFFFFFFB0
:10006000FFFFFFFFFFFFFFFFFFFFFFFFFFFFFFFFA0
:10007000FFFFFFFFFFFFFFFFFFFFFFFFFFFFFFFF90
:10008000FFFFFFFFFFFFFFFFFFFFFFFFFFFFFFFF80
:10009000FFFFFFFFFFFFFFFFFFFFFFFFFFFFFFFF70
:1000A000FFFFFFFFFFFFFFFFFFFFFFFFFFFFFFFF60
:1000B000FFFFFFFFFFFFFFFFFFFFFFFFFFFFFFFF50
:1000C000FFFFFFFFFFFFFFFFFFFFFFFFFFFFFFFF40
:1000D000FFFFFFFFFFFFFFFFFFFFFFFFFFFFFFFF30
:1000E000FFFFFFFFFFFFFFFFFFFFFFFFFFFFFFFF20
:1000F000FFFFFFFFFFFFFFFFFFFFFFFFFFFFFFFF10
:020000040030CA
:0C0000008CFFFFFF9FFFFFFFFFFFFFFFD3
:00000001FF
