:020000040000FA
:0400000031EF00F0EC
:100008004282FACF2CF0FBCF2DF0F3CF2EF0F4CFB5
:100018002FF00E01BDB9C5A903D018EC05F013D017
:10002800F2AC11D0C3B1CBA103D056EC04F00BD085
:10003800C1B1C9A103D010EC04F005D0C1B3C9A364
:1000480002D081EC04F02FC0F4FF2EC0F3FF2DC0C6
:10005800FBFF2CC0FAFF429211009BEF03F01250F5
:10006800800B1B6E12501224216E11BE218021506C
:10007800D8B40DD02128D8A408D0000E0F6E000ED9
:10008800106E000E116E000E126E118E08D0000E4A
:100098000F6E000E106E000E116E000E126E1650CE
:1000A800800B1B1A16501624206E15BE2080205077
:1000B800D8B40DD02028D8A408D0000E136E000E96
:1000C800146E000E156E000E166E158E08D0000EFA
:1000D800136E000E146E000E156E000E166E205074
:1000E800D8B403D02150D8A409D0000E0F6E000E4A
:1000F800106E000E116E000E126E120015500F02D7
:10010800F3CF26F0F4CF27F026501C6E1D6A1E6A26
:100118001F6A2750226E236A246A256A1450100227
:10012800F3CF26F0F4CF27F026501C26000E1D2210
:100138001E221F2227502226000E23222422252297
:1001480013501102F3CF26F0F4CF27F026501C26C7
:10015800000E1D221E221F2227502226000E2322B7
:10016800242225221EC01FF01DC01EF01CC01DF039
:100178001C6A13501002F3CF26F0F4CF27F0265054
:100188001C2627501D22000E1E22000E1F2214506E
:100198000F02F3CF26F0F4CF27F026501C26275065
:1001A8001D22000E1E22000E1F221EC01FF01DC0A1
:1001B8001EF01CC01DF01C6A13500F02F3CF26F06E
:1001C800F4CF27F026501C2627501D22000E1E2291
:1001D800000E1F2215501002F3CF26F0F4CF27F09F
:1001E8002650222627502322000E2422000E2522E4
:1001F80014501102F3CF26F0F4CF27F02650222610
:1002080027502322000E2422000E25221550110209
:10021800F3CF26F0F4CF27F02650176E2750186E2C
:10022800196A1A6A19C01AF018C019F017C018F01C
:10023800176A1750222618502322195024221A50C0
:1002480025221CC017F01DC018F01EC019F01FC0D1
:100258001AF0190E05D0D8901A32193218321732FE
:10026800E82EF9D717502226185023221950242295
:100278001A5025221EC01FF01DC01EF01CC01DF004
:100288001C6A205021C017F0186A1726000E182281
:10029800820E1724266EFF0E1820276E0FD0D890D6
:1002A80022362336243625361FBE2280D8901C36A7
:1002B8001D361E361F362606D8A0270624AEEFD7D1
:1002C800000E206E1FAE17D0FF0E1C14176EFF0E07
:1002D8001D14186EFF0E1E14196E7F0E1F141A6E51
:1002E8001750181019101A10D8B403D0010E206E28
:1002F80002D022B0FBD72050D8B41FD0010E22263E
:10030800000E23222422252225A017D022C017F070
:1003180023C018F024C019F025C01AF01A341A3274
:1003280019321832173217C022F018C023F019C03A
:1003380024F01AC025F0264A272A27BE0DD02750B8
:1003480003E12628D8A008D0000E226E000E236EE6
:10035800800E246E7F0E20D027BE05D027500EE1D8
:100368002604D8B00BD0000E226E000E236E000EAD
:10037800246E000E256E000E1B6E0FD026C021F0D5
:10038800FF0E2216FF0E23167F0E2416000E2516CA
:1003980021B0248ED8902130256E1B50251222C002
:1003A8000FF023C010F024C011F025C012F0120085
:1003B800096E0950D8A404AE1AD001C005F002C0D5
:1003C80006F003C007F004C008F0051E061E071E4D
:1003D800081E052A000E06220722082205C00BF077
:1003E80006C00CF007C00DF008C00EF008D001C020
:1003F8000BF002C00CF003C00DF004C00EF0015069
:10040800021003100410D8A409D0000E016E000ECB
:10041800026E000E036E000E046E1200960E0A6E37
:1004280006D00A2AD8900E320D320C320B32000E4A
:100438000B14056E000E0C14066E000E0D14076EDC
:10044800FE0E0E14086E0550061007100810D8B4DA
:100458000DD0E7D70A2A010E0B26000E0C220D221A
:100468000E22D8900E320D320C320B32000E0B14C5
:10047800056E000E0C14066E000E0D14076EFF0EAE
:100488000E14086E0550061007100810D8B407D0CF
:10049800E1D70A06D8900B360C360D360E360DBE4F
:1004A80003D0020E0A60F5D70AA00D9ED8900A3232
:1004B8000AC005F0066A076A086A05C008F0076AF4
:1004C800066A056A05500B1206500C1207500D12E9
:1004D80008500E120950D8A404AE01D00E8E0BC0DD
:1004E80001F00CC002F00DC003F00EC004F01200C1
:1004F8005CD0010E616F82808282000E676F000EF1
:10050800666F1200664B672B8280828267BF12007B
:10051800675104E1640E665DD8A01200020E616F97
:10052800000E676F000E666F1200664B672B6451F2
:10053800016E026A6651015C0250800A036E6751BF
:10054800800A0358D8A082906551016E026A6651EC
:10055800015C0250800A036E6751800A0358D8A0D4
:10056800829267BF1200675104E1640E665DD8A0ED
:100578001200030E616F000E676F000E666F1200A7
:10058800664B672B8290829267BF1200080E665DE9
:10059800070E6759D8A01200010E616F000E676F31
:1005A800000E666F82808292120000016151016E16
:1005B800026A0250000AD8A412000150000AD8B4F6
:1005C80098D7010AD8B49ED7030AD8B4AED7010A7F
:1005D800D8A41200D5D7000E826E000E836E000ECE
:1005E800846EFC0E876E88688968FB0E0F011C6F8D
:1005F8001469FE0E0C6F000E286F000E136F000EAC
:100608000B6F000E1B6F000E0A6F000E126F000EAC
:100618001A6F096911691969159516951785860E56
:100628000001696F0A0E6A6F28EC05F00E01BD899A
:10063800120EAA6F12003DEC05F028C001F029C087
:1006480002F0036A046A000EDCEC01F001C00FF04E
:1006580002C010F003C011F004C012F0AE0E136E09
:10066800D40E146EB30E156E370E166E33EC00F002
:100678000FC03AF010C03BF011C03CF012C03DF082
:100688000E01C391000E396E000E3E6E010E386EDB
:100698001200C8EC04F0F28EF28CDEEC03F0BDEC34
:1006A80003F0520E00016E6F2B0E6D6F000EE82ED8
:1006B800FED76D2FFCD76E2FFAD700F0000EF8EC9E
:1006C80003F0350EE82EFED700F06CEC04F0150EA2
:1006D80000016E6F4B0E6D6FBE0EE82EFED76D2FAC
:1006E800FCD76E2FFAD7F0D7000ECF6E000ED06E63
:1006F800010ED16E630ECD6EC00ECC6ECC50CDCF38
:100708006BF000016C6B6BC06CF06B6B6B11326E35
:100718006C51336E0E01C991C181840E0001696F5D
:100728000A0E6A6F23EC05F0310ECE6E12007E0EB3
:10073800F66E0A0EF76E000EF86E0900F5CF3FF060
:100748000900F5CF40F00900F5CF41F000EE60F068
:10075800090EEE6AE806FDE100EE38F0070EEE6AD3
:10076800E806FDE142904292000EF86E00014DEF5E
:1007780003F03E0E0001696F060E6A6F2DEC05F05E
:100788000E01C391CA0E0001696F090E6A6F23EC4E
:1007980005F0860E0001696F0A0E6A6F28EC05F0F5
:1007A800000E386E000E396E000E3E6E010E00010E
:1007B800686F1200000E0001616F000E0DEC05F06D
:1007C800000EF8EC03F0320E0001656FF80E696F49
:1007D800040E6A6F1EEC05F0000E0001676F000E34
:1007E800666F010E606F12000001696F00016951A8
:1007F800800A9E0FD8B002D0E20E696F6951800A54
:10080800630FD8A002D01C0E696F6951EF0F696F92
:100818006951320F656F12000E01C99132C001F0A3
:1008280033C002F0F3EC04F030503110D8B41200A9
:1008380001D812000500FA6E3050FD6E3150FE6E80
:10084800F850FF6EFA501200010EBE6E000EBD6E1B
:10085800000EBF6E9F0EBB6E000EBA6E0E01C993DE
:10086800C183820E0001696F0A0E6A6F1EEC05F0E3
:10087800800EBC6E1200840EAB6E000EAC6E000EC5
:10088800AA6E000EA96E880E0001696F0A0E6A6FC3
:100898002DEC05F0AD50FC0B0109AD6E0E01CB91AE
:1008A800C38112000E01CB91A9CF2AF0AACF2BF059
:1008B8002AC028F02BC029F001D812000500FA6ED2
:1008C8003450FD6E3550FE6EF850FF6EFA5012002F
:1008D800BDEC03F03E50D8A412000E01C391FF0EE8
:1008E80000016A6FFC0E696FB8EC04F08484899487
:1008F80037EC05F0010E3E6E12000E01C99300019F
:100908006F517011D8B4120001D812000500FA6EA8
:100918006F51FD6E7051FE6EF850FF6EFA50120066
:1009280036503710D8B40CD001D80AD00500FA6E6A
:100938003650FD6E3750FE6EF850FF6EFA501200BA
:100948000F0115951200860E016E0A0E026E32EC2A
:1009580005F0000E026E000E016EF3EC04F00E01BD
:10096800C3813BEC05F01200CEA408D0CE90000164
:100978006A51CD6E69C0CCFFCE80120000016A5169
:10098800CD6E69C0CCFF120039EC05F0D7EC04F04D
:10099800EFEC02F001EC05F03FEC04F028EC04F079
:1009A80078EC03F01200000E0E01DC6F000EDD6F14
:1009B800000EDE6F000EDF6F000EE06F000EE16FBD
:1009C80012003950D8A41200849489844E0E016E06
:1009D800090E026E32EC05F0010E396E1200CEA43B
:1009E80007D0CE900250CD6E01C0CCFFCE80120051
:1009F8000250CD6E01C0CCFF1200600E0E01D36F05
:100A0800000ED56F000ED76F080ED96F000ED86F85
:100A180012000001696F640E0001696502D0640E5E
:100A2800696F69C064F012000F0115A5120094ECFB
:100A380004F0120069C06FF06AC070F0120069C05B
:100A480030F06AC031F0120069C036F06AC037F081
:100A5800120069C034F06AC035F0120001C036F0E7
:100A680002C037F01200CE801200F29A1200CE8037
:090A78001200CE9012001CE2EF06
:080A8200120012001200120024
:020000040020DA
:10000000FFFFFFFFFFFFFFFFFFFFFFFFFFFFFFFF00
:10001000FFFFFFFFFFFFFFFFFFFFFFFFFFFFFFFFF0
:10002000FFFFFFFFFFFFFFFFFFFFFFFFFFFFFFFFE0
:10003000FFFFFFFFFFFFFFFFFFFFFFFFFFFFFFFFD0
:10004000FFFFFFFFFFFFFFFFFFFFFFFFFFFFFFFFC0
:10005000FFFFFFFFFFFFFFFFFFFFFFFFFFFFFFFFB0
:10006000FFFFFFFFFFFFFFFFFFFFFFFFFFFFFFFFA0
:10007000FFFFFFFFFFFFFFFFFFFFFFFFFFFFFFFF90
:10008000FFFFFFFFFFFFFFFFFFFFFFFFFFFFFFFF80
:10009000FFFFFFFFFFFFFFFFFFFFFFFFFFFFFFFF70
:1000A000FFFFFFFFFFFFFFFFFFFFFFFFFFFFFFFF60
:1000B000FFFFFFFFFFFFFFFFFFFFFFFFFFFFFFFF50
:1000C000FFFFFFFFFFFFFFFFFFFFFFFFFFFFFFFF40
:1000D000FFFFFFFFFFFFFFFFFFFFFFFFFFFFFFFF30
:1000E000FFFFFFFFFFFFFFFFFFFFFFFFFFFFFFFF20
:1000F000FFFFFFFFFFFFFFFFFFFFFFFFFFFFFFFF10
:020000040030CA
:0C0000008CFFFFFF9FFFFFFFFFFFFFFFD3
:00000001FF
