:020000040000FA
:0400000017EF00F006
:100008001582FACF04F0FBCF05F0F2AC06D00E0152
:10001800C1B3C9A302D012EC01F005C0FBFF04C0B4
:10002800FAFF1592110032EF01F04BD0010E0D6E60
:100038008280000E126E000E116E1200114A122AF2
:10004800828012BE1200125004E1640E115CD8A026
:100058001200020E0D6E000E126E000E116E1200CE
:10006800114A122A0F50016E026A1150015C0250A7
:10007800800A036E1250800A0358D8A0829012BEDC
:100088001200125004E1640E115CD8A01200030E95
:100098000D6E000E126E000E116E1200114A122A19
:1000A800829012BE1200080E115C070E1258D8A0DA
:1000B8001200010E0D6E000E126E000E116E82807F
:1000C80012000D50016E026A0250000AD8A41200F4
:1000D8000150000AD8B4AAD7010AD8B4AFD7030A86
:1000E800D8B4BED7010AD8A41200D8D74BEC01F077
:1000F800F28EF28CFFEC00F0520E096E2B0E086E99
:10010800000EE82EFED7082EFCD7092EFAD700D00D
:10011800000E0B6E000E0A6E0A5056EC01F0030E2C
:10012800096EAE0E086EB30EE82EFED7082EFCD769
:10013800092EFAD700F00A4A0B2A0BBEEDD70B504E
:1001480004E1640E0A5CD8A0E7D7000E0B6E000E1F
:100158000A6E0A50640856EC01F0030E096EAE0EE2
:10016800086EB30EE82EFED7082EFCD7092EFAD754
:1001780000F00A4A0B2A0BBEECD70B5004E1640EC0
:100188000A5CD8A0E6D7FFD7000E826E000E836EF9
:10019800000E846EFE0E876E886889680F011C69E0
:1001A8001469FE0E0C6F000E286F000E136F000E00
:1001B8000B6F000E1B6F000E0A6F000E126F000E01
:1001C8001A6F0969116919691200010EBE6E000ED5
:1001D800BD6E000EBF6E9F0EBB6E000EBA6E0E0196
:1001E800C993C183CC0E066E020E076E5FEC01F058
:1001F800800EBC6E1200010E0C6E000E0D6E000E0D
:100208000F6E000E106E320E066E000E076E5FEC5B
:1002180001F0000E126E000E116E12000E01C9934D
:1002280013501410D8B4120001D812000500FA6E49
:100238001350FD6E1450FE6EF850FF6EFA50120007
:10024800000E0E01DC6F000EDD6F000EDE6F000E7B
:10025800DF6F000EE06F000EE16F120000EE0CF091
:10026800070EEE6AE806FDE115901592000EF86E8D
:1002780000017AEF00F0600E0E01D36F000ED56F0B
:10028800000ED76F080ED96F000ED86F120064ECFD
:1002980001F024EC01F0C8EC00F03FEC01F0E9ECCF
:1002A80000F01200066E640E066402D0640E066E3C
:1002B80006C00FF0120006C013F007C014F01200B9
:0602C800F29A1200120080
:020000040020DA
:10000000FFFFFFFFFFFFFFFFFFFFFFFFFFFFFFFF00
:10001000FFFFFFFFFFFFFFFFFFFFFFFFFFFFFFFFF0
:10002000FFFFFFFFFFFFFFFFFFFFFFFFFFFFFFFFE0
:10003000FFFFFFFFFFFFFFFFFFFFFFFFFFFFFFFFD0
:10004000FFFFFFFFFFFFFFFFFFFFFFFFFFFFFFFFC0
:10005000FFFFFFFFFFFFFFFFFFFFFFFFFFFFFFFFB0
:10006000FFFFFFFFFFFFFFFFFFFFFFFFFFFFFFFFA0
:10007000FFFFFFFFFFFFFFFFFFFFFFFFFFFFFFFF90
:10008000FFFFFFFFFFFFFFFFFFFFFFFFFFFFFFFF80
:10009000FFFFFFFFFFFFFFFFFFFFFFFFFFFFFFFF70
:1000A000FFFFFFFFFFFFFFFFFFFFFFFFFFFFFFFF60
:1000B000FFFFFFFFFFFFFFFFFFFFFFFFFFFFFFFF50
:1000C000FFFFFFFFFFFFFFFFFFFFFFFFFFFFFFFF40
:1000D000FFFFFFFFFFFFFFFFFFFFFFFFFFFFFFFF30
:1000E000FFFFFFFFFFFFFFFFFFFFFFFFFFFFFFFF20
:1000F000FFFFFFFFFFFFFFFFFFFFFFFFFFFFFFFF10
:020000040030CA
:0C0000008CFFFFFF9FFFFFFFFFFFFFFFD3
:00000001FF
