:020000040000FA
:040000005FEF00F0BE
:100008005F82FACF2CF0FBCF2DF0D9CF2EF0DACFCC
:100018002FF0F3CF30F0F4CF31F00E01BDB9C5A900
:1000280003D0D1EC06F039D0F2AC37D0C0B9C8A9AA
:1000380008D001D832D00500FA6E5A50FD6E5B50D8
:100048000AD0C0BBC8AB0CD001D827D00500FA6EC7
:100058005850FD6E5950FE6EF850FF6EFA5012005F
:10006800BEB1C6A103D057EC06F017D0C1B5C9A5DB
:1000780003D090EC05F011D0C1B3C9A303D031EC83
:1000880006F00BD0C1B1C9A103D0A8EC05F005D08A
:10009800C3B1CBA102D005EC06F031C0F4FF30C0EB
:1000A800F3FF2FC0DAFF2EC0D9FF2DC0FBFF2CC0F5
:1000B800FAFF5F92110089EF04F01250800B1B6E5B
:1000C80012501224216E11BE21802150D8B40DD0B7
:1000D8002128D8A408D0000E0F6E000E106E000E56
:1000E800116E000E126E118E08D0000E0F6E000EEB
:1000F800106E000E116E000E126E1650800B1B1A39
:1001080016501624206E15BE20802050D8B40DD06D
:100118002028D8A408D0000E136E000E146E000E0E
:10012800156E000E166E158E08D0000E136E000E9A
:10013800146E000E156E000E166E2050D8B403D043
:100148002150D8A409D0000E0F6E000E106E000EBC
:10015800116E000E126E120015500F02F3CF26F02A
:10016800F4CF27F026501C6E1D6A1E6A1F6A27509E
:10017800226E236A246A256A14501002F3CF26F0EF
:10018800F4CF27F026501C26000E1D221E221F2207
:1001980027502226000E2322242225221350110242
:1001A800F3CF26F0F4CF27F026501C26000E1D2290
:1001B8001E221F2227502226000E23222422252217
:1001C8001EC01FF01DC01EF01CC01DF01C6A13507D
:1001D8001002F3CF26F0F4CF27F026501C26275024
:1001E8001D22000E1E22000E1F2214500F02F3CFF4
:1001F80026F0F4CF27F026501C2627501D22000E8B
:100208001E22000E1F221EC01FF01DC01EF01CC0A3
:100218001DF01C6A13500F02F3CF26F0F4CF27F01D
:1002280026501C2627501D22000E1E22000E1F22BB
:1002380015501002F3CF26F0F4CF27F026502226CF
:1002480027502322000E2422000E252214501102CA
:10025800F3CF26F0F4CF27F026502226275023226A
:10026800000E2422000E252215501102F3CF26F08D
:10027800F4CF27F02650176E2750186E196A1A6A9D
:1002880019C01AF018C019F017C018F0176A1750DB
:10029800222618502322195024221A5025221CC025
:1002A80017F01DC018F01EC019F01FC01AF0190E63
:1002B80005D0D8901A32193218321732E82EF9D7E9
:1002C8001750222618502322195024221A5025226A
:1002D8001EC01FF01DC01EF01CC01DF01C6A20505F
:1002E80021C017F0186A1726000E1822820E17244C
:1002F800266EFF0E1820276E0FD0D8902236233690
:10030800243625361FBE2280D8901C361D361E3650
:100318001F362606D8A0270624AEEFD7000E206E7B
:100328001FAE17D0FF0E1C14176EFF0E1D14186E8B
:10033800FF0E1E14196E7F0E1F141A6E1750181018
:1003480019101A10D8B403D0010E206E02D022B0B2
:10035800FBD72050D8B41FD0010E2226000E23222E
:100368002422252225A017D022C017F023C018F078
:1003780024C019F025C01AF01A341A32193218326A
:10038800173217C022F018C023F019C024F01AC081
:1003980025F0264A272A27BE0DD0275003E1262814
:1003A800D8A008D0000E226E000E236E800E246E98
:1003B8007F0E20D027BE05D027500EE12604D8B0E6
:1003C8000BD0000E226E000E236E000E246E000E5F
:1003D800256E000E1B6E0FD026C021F0FF0E2216D0
:1003E800FF0E23167F0E2416000E251621B0248E2C
:1003F800D8902130256E1B50251222C00FF023C043
:1004080010F024C011F025C012F01200096E095036
:10041800D8A404AE1AD001C005F002C006F003C08B
:1004280007F004C008F0051E061E071E081E052A50
:10043800000E06220722082205C00BF006C00CF0A9
:1004480007C00DF008C00EF008D001C00BF002C0C4
:100458000CF003C00DF004C00EF0015002100310A0
:100468000410D8A409D0000E016E000E026E000E12
:10047800036E000E046E1200960E0A6E06D00A2A4B
:10048800D8900E320D320C320B32000E0B14056E62
:10049800000E0C14066E000E0D14076EFE0E0E14E0
:1004A800086E0550061007100810D8B40DD0E7D70D
:1004B8000A2A010E0B26000E0C220D220E22D890BD
:1004C8000E320D320C320B32000E0B14056E000E7C
:1004D8000C14066E000E0D14076EFF0E0E14086E37
:1004E8000550061007100810D8B407D0E1D70A063F
:1004F800D8900B360C360D360E360DBE03D0020ED4
:100508000A60F5D70AA00D9ED8900A320AC005F0F5
:10051800066A076A086A05C008F0076A066A056A73
:1005280005500B1206500C1207500D1208500E12EF
:100538000950D8A404AE01D00E8E0BC001F00CC037
:1005480002F00DC003F00EC004F012005CD0010EE2
:10055800696F82808282000E6F6F000E6E6F1200CC
:100568006E4B6F2B828082826FBF12006F5104E145
:10057800640E6E5DD8A01200020E696F000E6F6FD8
:10058800000E6E6F12006E4B6F2B6C51016E026A7B
:100598006E51015C0250800A036E6F51800A035845
:1005A800D8A082906D51016E026A6E51015C0250B2
:1005B800800A036E6F51800A0358D8A082926FBFD9
:1005C80012006F5104E1640E6E5DD8A01200030E94
:1005D800696F000E6F6F000E6E6F12006E4B6F2BFF
:1005E800829082926FBF1200080E6E5D070E6F59DF
:1005F800D8A01200010E696F000E6F6F000E6E6FAB
:1006080082808292120000016951016E026A0250D2
:10061800000AD8A412000150000AD8B498D7010AD9
:10062800D8B49ED7030AD8B4AED7010AD8A412000A
:10063800D5D73A0E00017125D96EDA6A000EDA2292
:10064800000EDF6E9CA413D03A0E7125D96EDA6ABB
:10065800000EDA22DF8201D80AD00500FA6E78513E
:10066800FD6E7951FE6EF850FF6EFA5012009CA292
:1006780014D03A0E00017125D96EDA6A000EDA221A
:10068800DF8401D80AD00500FA6E7651FD6E7751E5
:10069800FE6EF850FF6EFA5012003A0E00017125F6
:1006A800D96EDA6A000EDA22DF50D8B40CD001D83D
:1006B80012000500FA6E7451FD6E7551FE6EF85009
:1006C800FF6EFA50120069EC06F0120026EEFCF0FC
:1006D800DF50D8B40BD027EEFEF0DECF03F0DDCF2D
:1006E80004F07D0E0324D96E070E0AD027EEFEF023
:1006F800DECF03F0DDCF04F0FD0E0324D96E060E25
:100708000420DA6E5FCFDFFF27EEFEF0DE2A000E50
:10071800DD2227EEFEF0010EDBBE0DD0010EDB5010
:1007280004E1800EDE5CD8A006D0020EE8CFFDF70B
:100738000F015B9F1200FF0E026E100E016EA5ECFA
:1007480006F0B40E016E090E026E18EC07F027ECE5
:1007580007F0838212000E01C09B3A0E00017F6FE2
:10076800060E806FF0EC06F00E01C099DC0E000159
:100778007F6F0B0E806FEBEC06F0080E9E6E800EFE
:100788009C6E240E9D6E8A0E9A6E000E9B6E5E0EF7
:1007980000017F6F0E0E806FFAEC06F03A0E000132
:1007A8007F6F0E0E806FF5EC06F0400E00017F6F34
:1007B8000E0E806FFFEC06F0000E0001706F000E49
:1007C800736F000E726F080E7E6F000E716F000E51
:1007D8004B6E000E4A6E0E01C08B1200000E826E28
:1007E800000E836E000E846EF00E876EF90E886E12
:1007F8003D0E896E3B0E0F011C6F1469FA0E0C6FCB
:10080800000E286F000E136F000E0B6F000E1B6F8B
:10081800000E0A6F000E126F000E1A6F0969116937
:1008280019691595169517855C0E00017F6F0E0ED8
:10083800806FE6EC06F00E01BD89120EAA6F090E54
:10084800F86F120028C038F029C039F0000E376E52
:10085800010E326E0E01C391829428C001F029C0A6
:1008680002F0036A046A000E0AEC02F001C00FF0FD
:1008780002C010F003C011F004C012F0BC0E136ED9
:10088800740E146E130E156E3C0E166E61EC00F0AD
:100898000FC033F010C034F011C035F012C036F07C
:1008A800010E326E000E376E1200000E656E000EDD
:1008B800666E000E676E000E686E000E636E000EA8
:1008C800646E000E616E000E0F015A6F000E586FB5
:1008D800000E546F000E556F000E566F000E606EBE
:1008E800000E536F000E516F000E526F940E5B6F27
:1008F800000E576F0E01C691BE81620E00017F6F18
:100908000E0E806F09EC07F01200520EF66E0E0EF6
:10091800F76E000EF86E0900F5CF5CF00900F5CF10
:100928005DF00900F5CF5EF006EEFCF011EE04F084
:10093800EE6AE550E150FCE1E250FAE100EE60F0C9
:10094800140EEE6AE806FDE100EE32F01A0EEE6AC9
:10095800E806FDE15F905F92000EF86E0001B5EFCA
:1009680004F01CEC06F0F28EF28C44EC05F0000E5C
:100978000001866F000E856F000185B104D0320E2C
:10098800BFEC06F003D0000EBFEC06F0290E000104
:10099800846F960E836F7F0EE82EFED7832FFCD7C9
:1009A800842FFAD7000E78EC05F0E6D7560E016EC4
:1009B8000E0E026E18EC07F027EEFDF0DF50D8A4FB
:1009C80010D0010EE8CFFDF7839483920F015B8F5F
:1009D800FF0E026E100E016EA5EC06F027EC07F074
:1009E8001200FDC7E8FF010AD8A4120083920B0E7B
:1009F800CAEC06F01200000ECF6E000ED06E010E8B
:100A0800D16E630ECD6EC00ECC6ECC50CDCF81F0C2
:100A18000001826B81C082F0816B8111546E82511A
:100A2800556E0E01C991C1815A0E00017F6F0E0EDD
:100A3800806FE1EC06F0330ECE6E1200000EC96E28
:100A4800000ECA6E010ECB6EC768100EC66EC65079
:100A5800C7CF81F00001826B81C082F0816B811168
:100A68004E6E82514F6E0E01C995C185560E00011A
:100A78007F6F0E0E806FD7EC06F0010EC86E120065
:100A8800000E0001696F000EBFEC06F0000E78EC56
:100A980005F0320E00016D6F540E7F6F050E806FEA
:100AA800DCEC06F0000E00016F6F000E6E6F010E99
:100AB800686F12005C0E016E0E0E026E13EC07F0EA
:100AC8005A0E016E0E0E026E0EEC07F0000E026E4C
:100AD800000E016E97EC06F025EC07F08284000EFC
:100AE8000E01CB6FC381120000017F6F00017F519F
:100AF800800A9E0FD8B002D0E20E7F6F7F51800A25
:100B0800630FD8A002D01C0E7F6F7F51EF0F7F6F4D
:100B18007F51320F6D6F12000E01C9954EC001F062
:100B28004FC002F0A5EC06F04C504D10D8B412009E
:100B380001D812000500FA6E4C50FD6E4D50FE6E45
:100B4800F850FF6EFA5012000E01C99154C001F01E
:100B580055C002F097EC06F052505310D8B412006A
:100B680001D812000500FA6E5250FD6E5350FE6E09
:100B7800F850FF6EFA501200010EBE6E000EBD6EE8
:100B8800000EBF6E000EBB6E000EBA6E0E01C9934A
:100B9800C183580E00017F6F0E0E806FDCEC06F0EB
:100BA800F00EBC6E1200840EAB6E000EAC6E000E22
:100BB800AA6E000EA96E600E00017F6F0E0E806F88
:100BC80004EC07F0AD50FC0B0109AD6E0E01CB91A2
:100BD800C3811200080E00017E6110D0420E7225FA
:100BE800D96EDA6A000EDA22DF50996E722B070E80
:100BF800726502D0000E726F7E2B12000E01C09932
:100C080012000E01CB91A9CF2AF0AACF2BF02AC04F
:100C180028F02BC029F001D8120005000001FA6E57
:100C28007A51FD6E7B51FE6EF850FF6EFA5012003D
:100C380023EC07F089EC06F0F2EC03F0B3EC06F0D5
:100C480059EC04F0D7EC05F022EC05F0C0EC05F007
:100C5800FFEC04F0AFEC03F012000E01C9930001A1
:100C68007C517D11D8B4120001D812000500FA6E2B
:100C78007C51FD6E7D51FE6EF850FF6EFA501200E9
:100C880056505710D8B40CD001D80AD00500FA6EC7
:100C98005650FD6E5750FE6EF850FF6EFA50120017
:100CA8000F01159512000E01C69150505110D8B47D
:100CB800120001D812000500FA6E5050FD6E515016
:100CC800FE6EF850FF6EFA501200600E000171259A
:100CD800D96EDA6A000EDA2298CFDFFF712B070E81
:100CE800716502D0000E716F4A2A12005A0E016E09
:100CF8000E0E026E0EEC07F084948984BC0E016E11
:100D08000A0E026E13EC07F01200000E0E01DC6FE3
:100D1800000EDD6F000EDE6F000EDF6F000EE06F5D
:100D2800000EE16F1200CEA407D0CE900250CD6E17
:100D380001C0CCFFCE8012000250CD6E01C0CCFFA6
:100D48001200C8A407D0C8900250C76E01C0C6FFE1
:100D5800C88012000250C76E01C0C6FF1200600EA4
:100D68000E01D36F000ED56F000ED76F080ED96F26
:100D7800000ED86F120000017F6F640E00017F65BE
:100D880002D0640E7F6F7FC06CF01200016E01C04C
:100D98005AFF0F015B8F5B8112000F0115A512002E
:100DA80044EC06F012007FC04CF080C04DF01200F9
:100DB8007FC07CF080C07DF012007FC052F080C000
:100DC80053F012007FC056F080C057F012007FC069
:100DD8005AF080C05BF012007FC058F080C059F014
:100DE80012007FC076F080C077F012007FC078F0E4
:100DF80080C079F012007FC074F080C075F01200D6
:100E08007FC07AF080C07BF012007FC050F080C0B5
:100E180051F0120001C052F002C053F0120001C09C
:100E280056F002C057F0120001C04CF002C04DF05D
:100E380012009C989C88120069EC06F01200F29A45
:0D0E48001200CE801200C88012001CE2EFE4
:0E0E5600120012001200120012001200120010
:020000040020DA
:10000000FFFFFFFFFFFFFFFFFFFFFFFFFFFFFFFF00
:10001000FFFFFFFFFFFFFFFFFFFFFFFFFFFFFFFFF0
:10002000FFFFFFFFFFFFFFFFFFFFFFFFFFFFFFFFE0
:10003000FFFFFFFFFFFFFFFFFFFFFFFFFFFFFFFFD0
:10004000FFFFFFFFFFFFFFFFFFFFFFFFFFFFFFFFC0
:10005000FFFFFFFFFFFFFFFFFFFFFFFFFFFFFFFFB0
:10006000FFFFFFFFFFFFFFFFFFFFFFFFFFFFFFFFA0
:10007000FFFFFFFFFFFFFFFFFFFFFFFFFFFFFFFF90
:10008000FFFFFFFFFFFFFFFFFFFFFFFFFFFFFFFF80
:10009000FFFFFFFFFFFFFFFFFFFFFFFFFFFFFFFF70
:1000A000FFFFFFFFFFFFFFFFFFFFFFFFFFFFFFFF60
:1000B000FFFFFFFFFFFFFFFFFFFFFFFFFFFFFFFF50
:1000C000FFFFFFFFFFFFFFFFFFFFFFFFFFFFFFFF40
:1000D000FFFFFFFFFFFFFFFFFFFFFFFFFFFFFFFF30
:1000E000FFFFFFFFFFFFFFFFFFFFFFFFFFFFFFFF20
:1000F000FFFFFFFFFFFFFFFFFFFFFFFFFFFFFFFF10
:020000040030CA
:0C0000008CFFFFFF9FFFFFFFFFFFFFFFD3
:00000001FF
