:020000040000FA
:0400000096EF37F050
:106F2C00000157EF3EF0000E93EC38F01200800E8B
:106F3C00A46E070EA36E800EA26EAD50CF0B10097F
:106F4C00AD6E1200800EA16E0B0EA06E800E9F6EA9
:106F5C00AD503F0B4009AD6E1200066E06C06FF0CF
:106F6C0005C06EF06FC001F0026A0DEC38F0120033
:106F7C00600E0E01D36F000ED56F000ED76F020E90
:106F8C00D96F000ED86F1200D7EC37F026EC38F022
:106F9C00BEEC37F0A8EC37F09DEC37F0E5EC37F0B1
:106FAC001200000E0E01DC6F000EDD6F000EDE6FA6
:106FBC00000EDF6F000EE06F000EE16F1200010E8D
:106FCC00BE6E000EBD6E000EBF6E9B0EBB6E000E35
:106FDC00BA6E0E01C993F00EBC6E120001C003F024
:106FEC0002C004F0D89004320332D8900432033239
:106FFC000350A36E01C003F0030E0316060E046EBD
:10700C00D8900336042EFCD70350A26E120001C098
:10701C0003F002C004F0D89004320332D89004324A
:10702C0003320350A06E01C003F0030E0316060ECC
:10703C00046ED8900336042EFCD703509F6E1200BA
:10704C00000E826E000E836E000E846EFC0E876E38
:10705C00886889680F011C6914690C69000E286F17
:10706C00000E136F000E0B6F000E1B6F000E0A6FDD
:10707C00000E126F000E1A6F096911691969080E5A
:10708C000E01E36F070EE26F120000016F51016EEB
:10709C00026A036A046A010E44EC39F001C045F03F
:1070AC0002C046F003C047F004C048F05BC02CF0AF
:1070BC005CC02DF05DC02EF05EC02FF000016E5153
:1070CC00016E026A036A046A010E44EC39F001C0D5
:1070DC0028F002C029F003C02AF004C02BF0AEEC5B
:1070EC003CF028C041F029C042F02AC043F02BC02C
:1070FC0044F028EC3BF041C051F042C052F043C088
:10710C0053F044C054F0E7EC38F051505F6E5FC060
:10711C0001F0026A0DEC38F012005D6E000E456E47
:10712C00000E466EF80E476E410E486E000E2C6E29
:10713C00000E2D6EF00E2E6E410E2F6E000E136E85
:10714C00000E146EC80E156E420E166E5D50016E5A
:10715C00026A036A046A000E44EC39F001C00FF0B5
:10716C0002C010F003C011F004C012F0E4EC39F0CE
:10717C000FC028F010C029F011C02AF012C02BF05B
:10718C00AEEC3CF028C041F029C042F02AC043F0DC
:10719C002BC044F028EC3BF041C051F042C052F0FF
:1071AC0043C053F044C054F0E7EC38F051C05BF0EE
:1071BC0052C05CF05BC001F05CC002F0F4EC37F044
:1071CC001200533454345A6E5A50D8A409D0000EBD
:1071DC00516E000E526E000E536E000E546E120065
:1071EC0051C055F052C056F053C057F054C058F02F
:1071FC00200E05D0D8905832573256325532E82EE0
:10720C00F9D75550596E538EFF0E5116FF0E52166C
:10721C00FF0E5316000E5416960E5A5E5AAE0DD033
:10722C005A50800A970FD8A0D2D7D89054325332E4
:10723C00523251325A3EF9D70DD01F0E5A6407D034
:10724C00C6D7D89051365236533654365A065A5001
:10725C00D8A4F7D75950D8B408D0541E531E521E78
:10726C00516C000E52225322542251C051F052C084
:10727C0052F053C053F054C054F01200096E095030
:10728C00D8A404AE1AD001C005F002C006F003C0A9
:10729C0007F004C008F0051E061E071E081E052A6E
:1072AC00000E06220722082205C00BF006C00CF0C7
:1072BC0007C00DF008C00EF008D001C00BF002C0E2
:1072CC000CF003C00DF004C00EF0015002100310BE
:1072DC000410D8A409D0000E016E000E026E000E30
:1072EC00036E000E046E1200960E0A6E06D00A2A69
:1072FC00D8900E320D320C320B32000E0B14056E80
:10730C00000E0C14066E000E0D14076EFE0E0E14FD
:10731C00086E0550061007100810D8B40DD0E7D72A
:10732C000A2A010E0B26000E0C220D220E22D890DA
:10733C000E320D320C320B32000E0B14056E000E99
:10734C000C14066E000E0D14076EFF0E0E14086E54
:10735C000550061007100810D8B407D0E1D70A065C
:10736C00D8900B360C360D360E360DBE03D0020EF1
:10737C000A60F5D70AA00D9ED8900A320AC005F013
:10738C00066A076A086A05C008F0076A066A056A91
:10739C0005500B1206500C1207500D1208500E120D
:1073AC000950D8A404AE01D00E8E0BC001F00CC055
:1073BC0002F00DC003F00EC004F012001250800B4E
:1073CC001F6E12501224266E11BE26802650D8B481
:1073DC000DD02628D8A408D0000E0F6E000E106E0B
:1073EC00000E116E000E126E118E06D0000E0F6E76
:1073FC00000E106E000E116E000E126E1650800BE9
:10740C001F1A16501624276E15BE27802750D8B485
:10741C000DD02728D8A408D0000E136E000E146EC1
:10742C00000E156E000E166E158E06D0000E136E25
:10743C00000E146E000E156E000E166E1350141006
:10744C0015101610D8A417D0000E0F6E000E106E6B
:10745C00000E116E000E126E800E11127F0E1212A3
:10746C001F5012120FC00FF010C010F011C011F00D
:10747C0012C012F012002650D8A409D0000E0F6EC4
:10748C00000E106E000E116E000E126E12002750C0
:10749C0026C017F0186A175E000E185A7F0E1724B4
:1074AC00206E000E1820216E0FC01BF010C01CF0B7
:1074BC0011C01DF012C01EF0000E0F6E000E106EEB
:1074CC00000E116E000E126E000E226E000E236E58
:1074DC00000E246E000E256E000E276E28D027504D
:1074EC00D8B411D0D8901B361C361D361E36D89009
:1074FC000F3610361136123625BE0F80D890223634
:10750C0023362436253613501B5C14501C5815504A
:10751C001D5816501E58D8A009D0258C13501B5E30
:10752C0014501C5A15501D5A16501E5A272A190E43
:10753C002764D5D71B501C101D101E10D8B411D0A9
:10754C0022800FD0D8900F3610361136123625BE49
:10755C000F80D89022362336243625362006D8A024
:10756C00210611AEEFD7000E276E25AE17D0FF0EF9
:10757C002214176EFF0E2314186EFF0E2414196EAE
:10758C007F0E25141A6E1750181019101A10D8B433
:10759C0003D0010E276E02D00FB0FBD72750D8B402
:1075AC001FD0010E0F26000E10221122122212A043
:1075BC0017D00FC017F010C018F011C019F012C07E
:1075CC001AF01A341A3219321832173217C00FF057
:1075DC0018C010F019C011F01AC012F0204A212A5C
:1075EC0021BE10D0215003E12028D8A00BD0000ED2
:1075FC00216E2068000E0F6E000E106E000E116EC4
:10760C00000E126E21BE05D0215011E12004D8B01D
:10761C000ED0000E216E000E206E000E0F6E000EAE
:10762C00106E000E116E000E126E000E1F6E20C03A
:10763C0026F026A002D0118E01D0119ED8902630B3
:10764C00126E0ED74450800B4D6E445044244F6E36
:10765C0043BE4F804F50D8B40DD04F28D8A408D07B
:10766C00000E416E000E426E000E436E000E446E14
:10767C00438E06D0000E416E000E426E000E436E1D
:10768C00000E446E4850800B4E6E4D504E18D8A4D0
:10769C004D8C485048244E6E47BE4E804E50D8B448
:1076AC000DD04E28D8A408D0000E456E000E466EA4
:1076BC00000E476E000E486E478E06D0000E456ECB
:1076CC00000E466E000E476E000E486E4F504E5C1C
:1076DC00D8B022D04DAC02D0800E4D1A4FC050F015
:1076EC004EC04FF050C04EF041C050F045C041F07C
:1076FC0050C045F042C050F046C042F050C046F079
:10770C0043C050F047C043F050C047F044C050F065
:10771C0048C044F050C048F0000E506E4F504EC060
:10772C0049F04A6A495E000E4A5A4ABE2CD04A5069
:10773C0004E11A0E495CD8A026D0415042104310E7
:10774C004410D8B402D0010E01D0000E506E000EC1
:10775C00416E000E426E000E436E000E446E4EC023
:10776C004FF015D050A005D0D89050300109506E74
:10777C0002D0D890503241B0508E4434443243320F
:10778C00423241324F2A4E504F5CD8A0EBD74DBC01
:10779C0028D04F50D8A409D0000E416E000E426E76
:1077AC00000E436E000E446E1200455041264650AA
:1077BC004222475043224850442244A071D050A04A
:1077CC0005D0D89050300109506E02D0D89050326C
:1077DC0041B0508E443444324332423241324F2A0B
:1077EC005FD04550415C4650425847504358445036
:1077FC00800A496E4850800A4958D8B025D041506B
:10780C00455C496E425046584A6E435047584B6E41
:10781C00445048584C6EFF0E4924416EFF0E4A20CE
:10782C00426EFF0E4B20436EFF0E4C20446E800EBA
:10783C004D1A506C5050D8A40FD0010E4126000E9A
:10784C0042224322442208D04550415E4650425ABF
:10785C004750435A4850445A415042104310441028
:10786C00D8A41CD05050D8A419D0000E416E000ED4
:10787C00426E000E436E000E446E1200D8904136DC
:10788C0042364336443650BE418050A002D0D88098
:10789C0001D0D89050364F50D8A44F0643AEEED7F7
:1078AC00000E4E6E50AE0BD050C049F07F0E4916F4
:1078BC00D8B403D0010E4E6E02D041B0FBD74E505F
:1078CC00D8B420D0010E4126000E4222432244227D
:1078DC0044A018D041C049F042C04AF043C04BF01C
:1078EC0044C04CF04C344C324B324A32493249C0D1
:1078FC0041F04AC042F04BC043F04CC044F04F281A
:10790C00D8A44F2A4F28D8B403D04F50D8A40DD0A8
:10791C00000E416E000E426E000E436E000E446E61
:10792C004F50D8A402D0000E4D6E4FA002D0438E03
:10793C0001D0439ED8904F30446E4DBE448E41C012
:10794C0041F042C042F043C043F044C044F0120046
:10795C002B50800B346E2B502B243A6E2ABE3A805F
:10796C003A50D8B40DD03A28D8A408D0000E286EBE
:10797C00000E296E000E2A6E000E2B6E2A8E08D079
:10798C00000E286E000E296E000E2A6E000E2B6E55
:10799C002F50800B341A2F502F24396E2EBE398065
:1079AC003950D8B40DD03928D8A408D0000E2C6E7C
:1079BC00000E2D6E000E2E6E000E2F6E2E8E08D029
:1079CC00000E2C6E000E2D6E000E2E6E000E2F6E05
:1079DC003950D8B403D03A50D8A409D0000E286E30
:1079EC00000E296E000E2A6E000E2B6E12002E5009
:1079FC002802F3CF3FF0F4CF40F03F50356E366A9B
:107A0C00376A386A40503B6E3C6A3D6A3E6A2D507C
:107A1C002902F3CF3FF0F4CF40F03F503526000E53
:107A2C0036223722382240503B26000E3C223D2283
:107A3C003E222C502A02F3CF3FF0F4CF40F03F50BF
:107A4C003526000E36223722382240503B26000EB7
:107A5C003C223D223E2237C038F036C037F035C0CC
:107A6C0036F0356A2C502902F3CF3FF0F4CF40F0BA
:107A7C003F50352640503622000E3722000E382259
:107A8C002D502802F3CF3FF0F4CF40F03F50352675
:107A9C0040503622000E3722000E382237C038F004
:107AAC0036C037F035C036F0356A2C502802F3CF8B
:107ABC003FF0F4CF40F03F50352640503622000EB8
:107ACC003722000E38222E502902F3CF3FF0F4CF8C
:107ADC0040F03F503B2640503C22000E3D22000E11
:107AEC003E222D502A02F3CF3FF0F4CF40F03F500E
:107AFC003B2640503C22000E3D22000E3E222E50D2
:107B0C002A02F3CF3FF0F4CF40F03F50306E40509C
:107B1C00316E326A336A32C033F031C032F030C069
:107B2C0031F0306A30503B2631503C2232503D22ED
:107B3C0033503E2235C030F036C031F037C032F011
:107B4C0038C033F0190E05D0D8903332323231327E
:107B5C003032E82EF9D730503B2631503C2232508F
:107B6C003D2233503E2237C038F036C037F035C096
:107B7C0036F0356A39503AC030F0316A3026000E92
:107B8C003122820E30243F6EFF0E3120406E0FD01A
:107B9C00D8903B363C363D363E3638BE3B80D8908E
:107BAC0035363636373638363F06D8A040063DAE29
:107BBC00EFD7000E396E38AE17D0FF0E3514306E7D
:107BCC00FF0E3614316EFF0E3714326E7F0E3814E2
:107BDC00336E3050311032103310D8B403D0010E44
:107BEC00396E02D03BB0FBD73950D8B41FD0010E40
:107BFC003B26000E3C223D223E223EA017D03BC02D
:107C0C0030F03CC031F03DC032F03EC033F0333484
:107C1C00333232323132303230C03BF031C03CF092
:107C2C0032C03DF033C03EF03F4A402A40BE0DD03A
:107C3C00405003E13F28D8A008D0000E3B6E000E48
:107C4C003C6E800E3D6E7F0E20D040BE05D0405065
:107C5C000EE13F04D8B00BD0000E3B6E000E3C6E14
:107C6C00000E3D6E000E3E6E000E346E0FD03FC007
:107C7C003AF0FF0E3B16FF0E3C167F0E3D16000E23
:107C8C003E163AB03D8ED8903A303E6E34503E128D
:107C9C003BC028F03CC029F03DC02AF03EC02BF080
:107CAC001200CAEC37F0000E0001676F010E666F10
:107CBC0099EC37F00A0E056E280EB3EC37F0060E71
:107CCC000001616F130E606FAD0EE82EFED7602FB2
:107CDC00FCD7612FFAD700D0000166516711D8B4D8
:107CEC007BD1000E6D6F000E6C6F000E6D6F000E71
:107CFC006C6F6C5193EC38F0140E0001606F790EC0
:107D0C00E82EFED7602FFCD700D000016C4B6D2BFA
:107D1C006DBFEFD76D5104E1640E6C5DD8A0E9D74F
:107D2C00000E6D6F000E6C6F6C51640893EC38F0A4
:107D3C00140E0001606F790EE82EFED7602FFCD771
:107D4C0000D000016C4B6D2B6DBFEED76D5104E173
:107D5C00640E6C5DD8A0E8D7000E6D6F000E6C6FD2
:107D6C006CC001F06DC002F0000E02BEFF0E036E7F
:107D7C00046E010E44EC39F001C00FF002C010F09B
:107D8C0003C011F004C012F0000E136E000E146E3E
:107D9C00C80E156E420E166EE4EC39F00FC068F08A
:107DAC0010C069F011C06AF012C06BF068C05BF0D3
:107DBC0069C05CF06AC05DF06BC05EF04BEC38F0F3
:107DCC00140E0001606F790EE82EFED7602FFCD7E1
:107DDC0000D000016C4B6D2B6DBFC2D76D5104E10F
:107DEC00640E6C5DD8A0BCD7000E6D6F000E6C6F6E
:107DFC00640E606F000E616F6C51605F6D51615B62
:107E0C0060C001F061C002F0000E02BEFF0E036EF6
:107E1C00046E010E44EC39F001C00FF002C010F0FA
:107E2C0003C011F004C012F0000E136E000E146E9D
:107E3C00C80E156E420E166EE4EC39F00FC068F0E9
:107E4C0010C069F011C06AF012C06BF068C05BF032
:107E5C0069C05CF06AC05DF06BC05EF04BEC38F052
:107E6C00140E0001606F790EE82EFED7602FFCD740
:107E7C0000D000016C4B6D2B6DBFBAD76D5104E176
:107E8C00640E6C5DD8A0B4D7000E6D6F000E6C6FD5
:107E9C006CC060F06DC061F0601F611F604B612BA6
:107EAC0060C001F061C002F0000E02BEFF0E036E56
:107EBC00046E010E44EC39F001C00FF002C010F05A
:107ECC0003C011F004C012F0000E136E000E146EFD
:107EDC00C80E156E420E166EE4EC39F00FC068F049
:107EEC0010C069F011C06AF012C06BF068C05BF092
:107EFC0069C05CF06AC05DF06BC05EF04BEC38F0B2
:107F0C00140E0001606F790EE82EFED7602FFCD79F
:107F1C0000D000016C4B6D2B6DBFBAD76D5104E1D5
:107F2C00640E6C5DD8A0B4D7000E6D6F000E6C6F34
:107F3C009C0E606FFF0E616F6CC062F06DC063F0E1
:107F4C00605162276151632362C001F063C002F08B
:107F5C00000E02BEFF0E036E046E010E44EC39F0EF
:107F6C0001C00FF002C010F003C011F004C012F0F9
:107F7C00000E136E000E146EC80E156E420E166EA9
:107F8C00E4EC39F00FC068F010C069F011C06AF071
:107F9C0012C06BF068C05BF069C05CF06AC05DF049
:107FAC006BC05EF04BEC38F0140E0001606F790E74
:107FBC00E82EFED7602FFCD700D000016C4B6D2B48
:107FCC006DBFB6D76D5104E1640E6C5DD8A0B0D70F
:107FDC00000E676F000E666F000E93EC38F0000E0B
:107FEC005B6E000E5C6E000E5D6E000E5E6E4BECFA
:047FFC0038F072D611
:020000040020DA
:10000000FFFFFFFFFFFFFFFFFFFFFFFFFFFFFFFF00
:10001000FFFFFFFFFFFFFFFFFFFFFFFFFFFFFFFFF0
:10002000FFFFFFFFFFFFFFFFFFFFFFFFFFFFFFFFE0
:10003000FFFFFFFFFFFFFFFFFFFFFFFFFFFFFFFFD0
:10004000FFFFFFFFFFFFFFFFFFFFFFFFFFFFFFFFC0
:10005000FFFFFFFFFFFFFFFFFFFFFFFFFFFFFFFFB0
:10006000FFFFFFFFFFFFFFFFFFFFFFFFFFFFFFFFA0
:10007000FFFFFFFFFFFFFFFFFFFFFFFFFFFFFFFF90
:10008000FFFFFFFFFFFFFFFFFFFFFFFFFFFFFFFF80
:10009000FFFFFFFFFFFFFFFFFFFFFFFFFFFFFFFF70
:1000A000FFFFFFFFFFFFFFFFFFFFFFFFFFFFFFFF60
:1000B000FFFFFFFFFFFFFFFFFFFFFFFFFFFFFFFF50
:1000C000FFFFFFFFFFFFFFFFFFFFFFFFFFFFFFFF40
:1000D000FFFFFFFFFFFFFFFFFFFFFFFFFFFFFFFF30
:1000E000FFFFFFFFFFFFFFFFFFFFFFFFFFFFFFFF20
:1000F000FFFFFFFFFFFFFFFFFFFFFFFFFFFFFFFF10
:020000040030CA
:0C000000ECFFFFFF9FFFFFFFFFFFFFFF73
:00000001FF
