:020000040000FA
:0400000031EF00F0EC
:100008004482FACF2CF0FBCF2DF0F3CF2EF0F4CFB3
:100018002FF00E01BDB9C5A903D060EC07F013D0CD
:10002800F2AC11D0C3B1CBA103D0ACEC06F00BD02D
:10003800C1B1C9A103D066EC06F005D0C1B3C9A30C
:1000480002D0D7EC06F02FC0F4FF2EC0F3FF2DC06E
:10005800FBFF2CC0FAFF44921100DDEF05F01250AF
:10006800800B1B6E12501224216E11BE218021506C
:10007800D8B40DD02128D8A408D0000E0F6E000ED9
:10008800106E000E116E000E126E118E08D0000E4A
:100098000F6E000E106E000E116E000E126E1650CE
:1000A800800B1B1A16501624206E15BE2080205077
:1000B800D8B40DD02028D8A408D0000E136E000E96
:1000C800146E000E156E000E166E158E08D0000EFA
:1000D800136E000E146E000E156E000E166E205074
:1000E800D8B403D02150D8A409D0000E0F6E000E4A
:1000F800106E000E116E000E126E120015500F02D7
:10010800F3CF26F0F4CF27F026501C6E1D6A1E6A26
:100118001F6A2750226E236A246A256A1450100227
:10012800F3CF26F0F4CF27F026501C26000E1D2210
:100138001E221F2227502226000E23222422252297
:1001480013501102F3CF26F0F4CF27F026501C26C7
:10015800000E1D221E221F2227502226000E2322B7
:10016800242225221EC01FF01DC01EF01CC01DF039
:100178001C6A13501002F3CF26F0F4CF27F0265054
:100188001C2627501D22000E1E22000E1F2214506E
:100198000F02F3CF26F0F4CF27F026501C26275065
:1001A8001D22000E1E22000E1F221EC01FF01DC0A1
:1001B8001EF01CC01DF01C6A13500F02F3CF26F06E
:1001C800F4CF27F026501C2627501D22000E1E2291
:1001D800000E1F2215501002F3CF26F0F4CF27F09F
:1001E8002650222627502322000E2422000E2522E4
:1001F80014501102F3CF26F0F4CF27F02650222610
:1002080027502322000E2422000E25221550110209
:10021800F3CF26F0F4CF27F02650176E2750186E2C
:10022800196A1A6A19C01AF018C019F017C018F01C
:10023800176A1750222618502322195024221A50C0
:1002480025221CC017F01DC018F01EC019F01FC0D1
:100258001AF0190E05D0D8901A32193218321732FE
:10026800E82EF9D717502226185023221950242295
:100278001A5025221EC01FF01DC01EF01CC01DF004
:100288001C6A205021C017F0186A1726000E182281
:10029800820E1724266EFF0E1820276E0FD0D890D6
:1002A80022362336243625361FBE2280D8901C36A7
:1002B8001D361E361F362606D8A0270624AEEFD7D1
:1002C800000E206E1FAE17D0FF0E1C14176EFF0E07
:1002D8001D14186EFF0E1E14196E7F0E1F141A6E51
:1002E8001750181019101A10D8B403D0010E206E28
:1002F80002D022B0FBD72050D8B41FD0010E22263E
:10030800000E23222422252225A017D022C017F070
:1003180023C018F024C019F025C01AF01A341A3274
:1003280019321832173217C022F018C023F019C03A
:1003380024F01AC025F0264A272A27BE0DD02750B8
:1003480003E12628D8A008D0000E226E000E236EE6
:10035800800E246E7F0E20D027BE05D027500EE1D8
:100368002604D8B00BD0000E226E000E236E000EAD
:10037800246E000E256E000E1B6E0FD026C021F0D5
:10038800FF0E2216FF0E23167F0E2416000E2516CA
:1003980021B0248ED8902130256E1B50251222C002
:1003A8000FF023C010F024C011F025C012F0120085
:1003B80000016351800B6C6F635163256E6F62BFE0
:1003C8006E816E51D8B40DD06E29D8A408D0000E15
:1003D800606F000E616F000E626F000E636F628FB8
:1003E80006D0000E606F000E616F000E626F000E87
:1003F800636F6751800B6D6F6C516D19D8A46C8D4C
:10040800675167256D6F66BF6D816D51D8B40DD08A
:100418006D29D8A408D0000E646F000E656F000E19
:10042800666F000E676F668F06D0000E646F000E51
:10043800656F000E666F000E676F6E516D5DD8B008
:1004480022D06CAD02D0800E6C1B6EC06FF06DC0F8
:100458006EF06FC06DF060C06FF064C060F06FC088
:1004680064F061C06FF065C061F06FC065F062C094
:100478006FF066C062F06FC066F063C06FF067C06F
:1004880063F06FC067F0000E6F6F6E516DC068F05B
:10049800696B685F000E695B69BF2CD0695104E124
:1004A8001A0E685DD8A026D06051611162116311DF
:1004B800D8B402D0010E01D0000E6F6F000E606F2D
:1004C800000E616F000E626F000E636F6DC06EF0FC
:1004D80015D06FA105D0D8906F3101096F6F02D088
:1004E800D8906F3360B16F8F633563336233613394
:1004F80060336E2B6D516E5DD8A0EBD76CBD28D0E4
:100508006E51D8A409D0000E606F000E616F000E06
:10051800626F000E636F120064516027655161239A
:10052800665162236751632363A171D06FA105D01F
:10053800D8906F3101096F6F02D0D8906F3360B1D6
:100548006F8F633563336233613360336E2B5FD0F3
:100558006451605D65516159665162596351800A01
:10056800686F6751800A6859D8B025D06051645DBA
:10057800686F61516559696F625166596A6F635155
:1005880067596B6FFF0E6825606FFF0E6921616FF9
:10059800FF0E6A21626FFF0E6B21636F800E6C1B6A
:1005A8006F6D6F51D8A40FD0010E6027000E612324
:1005B8006223632308D06451605F6551615B6651B3
:1005C800625B6751635B6051611162116311D8A46A
:1005D8001CD06F51D8A419D0000E606F000E616F47
:1005E800000E626F000E636F1200D890603761379B
:1005F800623763376FBF60816FA102D0D88001D0A6
:10060800D8906F376E51D8A46E0762AFEED7000E40
:100618006D6F6FAF0BD06FC068F07F0E6817D8B4DE
:1006280003D0010E6D6F02D060B1FBD76D51D8B405
:1006380020D0010E6027000E61236223632363A18B
:1006480018D060C068F061C069F062C06AF063C029
:100658006BF06B356B336A336933683368C060F0AD
:1006680069C061F06AC062F06BC063F06E29D8A4FB
:100678006E2B6E29D8B403D06E51D8A40DD0000EBD
:10068800606F000E616F000E626F000E636F6E5137
:10069800D8A402D0000E6C6F6EA102D0628F01D078
:1006A800629FD8906E31636F6CBF638F60C060F0DB
:1006B80061C061F062C062F063C063F01200096E4D
:1006C8000950D8A404AE1AD001C005F002C006F043
:1006D80003C007F004C008F0051E061E071E081E0A
:1006E800052A000E06220722082205C00BF006C0C4
:1006F8000CF007C00DF008C00EF008D001C00BF0D8
:1007080002C00CF003C00DF004C00EF0015002103E
:1007180003100410D8A409D0000E016E000E026E5A
:10072800000E036E000E046E1200960E0A6E06D0BE
:100738000A2AD8900E320D320C320B32000E0B14EE
:10074800056E000E0C14066E000E0D14076EFE0EDC
:100758000E14086E0550061007100810D8B40DD0F6
:10076800E7D70A2A010E0B26000E0C220D220E22B4
:10077800D8900E320D320C320B32000E0B14056E6F
:10078800000E0C14066E000E0D14076EFF0E0E14EC
:10079800086E0550061007100810D8B407D0E1D726
:1007A8000A06D8900B360C360D360E360DBE03D021
:1007B800020E0A60F5D70AA00D9ED8900A320AC028
:1007C80005F0066A076A086A05C008F0076A066A3B
:1007D800056A05500B1206500C1207500D120850EE
:1007E8000E120950D8A404AE01D00E8E0BC001F031
:1007F8000CC002F00DC003F00EC004F012005CD073
:10080800010E7B6F82808282000E816F000E806FE6
:100818001200804B812B8280828281BF120081511D
:1008280004E1640E805DD8A01200020E7B6F000EFA
:10083800816F000E806F1200804B812B7E51016EFC
:10084800026A8051015C0250800A036E8151800A5D
:100858000358D8A082907F51016E026A8051015CD2
:100868000250800A036E8151800A0358D8A08292F0
:1008780081BF1200815104E1640E805DD8A012008E
:10088800030E7B6F000E816F000E806F1200804B8D
:10089800812B8290829281BF1200080E805D070E24
:1008A8008159D8A01200010E7B6F000E816F000ED7
:1008B800806F82808292120000017B51016E026A71
:1008C8000250000AD8A412000150000AD8B498D7E0
:1008D800010AD8B49ED7030AD8B4AED7010AD8A45F
:1008E8001200D5D71EEC07F0F28EF28C1CEC06F045
:1008F80095EC05F0520E0001716F2B0E706F000E13
:10090800E82EFED7702FFCD7712FFAD700F0000E13
:100918004EEC06F0350EE82EFED700F0C2EC06F0DD
:10092800150E0001716F4B0E706FBE0EE82EFED7CC
:10093800702FFCD7712FFAD700F036EC06F060C0A4
:1009480072F061C073F062C074F063C075F072C079
:1009580060F073C061F074C062F075C063F0000E9F
:100968000001646F000E656FF00E666FC10E676F51
:10097800DCEC01F060C076F061C077F062C078F01E
:1009880063C079F076C060F077C061F078C062F03B
:1009980079C063F0D5EC04F0000160514EEC06F02C
:1009A800BDD7000162356335696F6951D8A409D094
:1009B800000E606F000E616F000E626F000E636FB5
:1009C800120060C064F061C065F062C066F063C088
:1009D80067F0200E05D0D8906733663365336433EB
:1009E800E82EF9D76451686F628FFF0E6017FF0E0B
:1009F8006117FF0E6217000E6317960E695F69AFE5
:100A08000DD06951800A970FD8A0D2D7D8906333F8
:100A1800623361336033693FF9D70DD01F0E6965C2
:100A280007D0C6D7D8906037613762376337690710
:100A38006951D8A4F7D76851D8B408D0631F621F8A
:100A4800611F606D000E61236223632360C060F044
:100A580061C061F062C062F063C063F0120085ECAF
:100A680007F028C037F029C038F028C001F029C0A5
:100A780002F0036A046A000E63EC03F001C00FF091
:100A880002C010F003C011F004C012F04D0E136E36
:100A9800150E146E8C0E156E3C0E166E33EC00F0AF
:100AA8000FC032F010C033F011C034F012C035F06E
:100AB8000E01C391000E316E000E366E010E306EBF
:100AC8001200000E826E000E836E000E846EFC0E05
:100AD800876E88688968FB0E0F011C6F1469FE0E0B
:100AE8000C6F000E286F000E136F000E0B6F000EB8
:100AF8001B6F000E0A6F000E126F000E1A6F096945
:100B080011691969159516951785160E0001606FFC
:100B18000F0E616F70EC07F00E01BD89120EAA6FFF
:100B28001200660E0001606F0A0E616F75EC07F027
:100B38000E01C391FE0E0001606F0B0E616F6BEC2E
:100B480007F0160E0001606F0F0E616F70EC07F072
:100B5800000E306E000E316E000E366E000E386ECE
:100B6800000E376E010E0001826F1200000ECF6E6C
:100B7800000ED06E010ED16E630ECD6EC00ECC6E1F
:100B8800CC50CDCF62F00001636B62C063F0626B42
:100B980062113B6E63513C6E0E01C991C181140E06
:100BA8000001606F0F0E616F6BEC07F0330ECE6EB5
:100BB80012000E0EF66E0F0EF76E000EF86E09009C
:100BC800F5CF41F00900F5CF42F00900F5CF43F029
:100BD80000EE7AF0090EEE6AE806FDE100EE30F06C
:100BE800090EEE6AE806FDE144904492000EF86EA4
:100BF800000176EF04F03150D8B40FD00E01C39144
:100C080085EC07F0000E026E000E016E3BEC07F05B
:100C1800000E316E000E366E120084948984FA0E2E
:100C2800016E0D0E026E7AEC07F0010E316E1200A5
:100C3800000E00017B6F000E55EC07F0000E4EEC25
:100C480006F0320E00017F6F060E606F080E616FAE
:100C580066EC07F0000E0001816F000E806F010E38
:100C68007A6F12003050D8B40BD0000E306E32C0FC
:100C780060F033C061F034C062F035C063F0120038
:100C8800000E0001606F000E616F000E626F000EB3
:100C9800636F12000001606F00016051800A9E0FAF
:100CA800D8B002D0E20E606F6051800A630FD8A0FE
:100CB80002D01C0E606F6051EF0F606F6051320FF1
:100CC8007F6F12000E01C9913BC001F03CC002F0D9
:100CD8003BEC07F039503A10D8B4120001D8120092
:100CE8000500FA6E3950FD6E3A50FE6EF850FF6EF0
:100CF800FA501200010EBE6E000EBD6E000EBF6EE1
:100D08009F0EBB6E000EBA6E0E01C993C183120E00
:100D18000001606F0F0E616F66EC07F0800EBC6E0D
:100D28001200840EAB6E000EAC6E000EAA6E000EA2
:100D3800A96E180E0001606F0F0E616F75EC07F059
:100D4800AD50FC0B0109AD6E0E01CB91C3811200B1
:100D58000E01CB91A9CF2AF0AACF2BF02AC028F0F8
:100D68002BC029F001D812000500FA6E3D50FD6E27
:100D78003E50FE6EF850FF6EFA50120095EC05F0EA
:100D88003650D8A412000E01C391FF0E0001616F06
:100D9800FC0E606F0EEC07F0848489947FEC07F0FA
:100DA800010E366E12000E01C993000183518411A1
:100DB800D8B4120001D812000500FA6E8351FD6EF6
:100DC8008451FE6EF850FF6EFA5012003F504010EA
:100DD800D8B40CD001D80AD00500FA6E3F50FD6E89
:100DE8004050FE6EF850FF6EFA5012000F01159534
:100DF8001200160E016E0F0E026E7AEC07F0000E4E
:100E0800026E000E016E3BEC07F00E01C38183EC0D
:100E180007F01200CEA408D0CE9000016151CD6E2B
:100E280060C0CCFFCE80120000016151CD6E60C061
:100E3800CCFF120081EC07F02DEC07F065EC05F013
:100E480049EC07F095EC06F07EEC06F0BAEC05F0FC
:100E58001200000E0E01DC6F000EDD6F000EDE6F5B
:100E6800000EDF6F000EE06F000EE16F1200CEA4DF
:100E780007D0CE900250CD6E01C0CCFFCE801200BC
:100E88000250CD6E01C0CCFF1200600E0E01D36F70
:100E9800000ED56F000ED76F080ED96F000ED86FF1
:100EA80012000001606F640E0001606502D0640EDC
:100EB800606F60C07EF012000F0115A51200EAEC09
:100EC80006F0120060C083F061C084F0120060C0B8
:100ED80039F061C03AF0120060C03FF061C040F0E4
:100EE800120060C03DF061C03EF0120001C03FF04A
:100EF80002C040F01200CE801200F29A1200CE809A
:090F08001200CE9012001CE2EF71
:080F120012001200120012008F
:020000040020DA
:10000000FFFFFFFFFFFFFFFFFFFFFFFFFFFFFFFF00
:10001000FFFFFFFFFFFFFFFFFFFFFFFFFFFFFFFFF0
:10002000FFFFFFFFFFFFFFFFFFFFFFFFFFFFFFFFE0
:10003000FFFFFFFFFFFFFFFFFFFFFFFFFFFFFFFFD0
:10004000FFFFFFFFFFFFFFFFFFFFFFFFFFFFFFFFC0
:10005000FFFFFFFFFFFFFFFFFFFFFFFFFFFFFFFFB0
:10006000FFFFFFFFFFFFFFFFFFFFFFFFFFFFFFFFA0
:10007000FFFFFFFFFFFFFFFFFFFFFFFFFFFFFFFF90
:10008000FFFFFFFFFFFFFFFFFFFFFFFFFFFFFFFF80
:10009000FFFFFFFFFFFFFFFFFFFFFFFFFFFFFFFF70
:1000A000FFFFFFFFFFFFFFFFFFFFFFFFFFFFFFFF60
:1000B000FFFFFFFFFFFFFFFFFFFFFFFFFFFFFFFF50
:1000C000FFFFFFFFFFFFFFFFFFFFFFFFFFFFFFFF40
:1000D000FFFFFFFFFFFFFFFFFFFFFFFFFFFFFFFF30
:1000E000FFFFFFFFFFFFFFFFFFFFFFFFFFFFFFFF20
:1000F000FFFFFFFFFFFFFFFFFFFFFFFFFFFFFFFF10
:020000040030CA
:0C0000008CFFFFFF9FFFFFFFFFFFFFFFD3
:00000001FF
